{
  "contractName": "DSProxyCache",
  "abi": [
    {
      "constant": true,
      "inputs": [
        {
          "name": "_code",
          "type": "bytes"
        }
      ],
      "name": "read",
      "outputs": [
        {
          "name": "",
          "type": "address"
        }
      ],
      "payable": false,
      "stateMutability": "view",
      "type": "function"
    },
    {
      "constant": false,
      "inputs": [
        {
          "name": "_code",
          "type": "bytes"
        }
      ],
      "name": "write",
      "outputs": [
        {
          "name": "target",
          "type": "address"
        }
      ],
      "payable": false,
      "stateMutability": "nonpayable",
      "type": "function"
    }
  ],
  "bytecode": "0x608060405234801561001057600080fd5b5061029c806100206000396000f30060806040526004361061004b5763ffffffff7c01000000000000000000000000000000000000000000000000000000006000350416637ed0c3b281146100505780638bf4515c146100d2575b600080fd5b34801561005c57600080fd5b506040805160206004803580820135601f81018490048402850184019095528484526100a994369492936024939284019190819084018382808284375094975061012b9650505050505050565b6040805173ffffffffffffffffffffffffffffffffffffffff9092168252519081900360200190f35b3480156100de57600080fd5b506040805160206004803580820135601f81018490048402850184019095528484526100a99436949293602493928401919081908401838280828437509497506101e79650505050505050565b6000808251602084016000f09150813b156001811461004b5750826040518082805190602001908083835b602083106101755780518252601f199092019160209182019101610156565b51815160209384036101000a6000190180199092169116179052604080519290940182900390912060009081529081905291909120805473ffffffffffffffffffffffffffffffffffffffff191673ffffffffffffffffffffffffffffffffffffffff87161790555092949350505050565b600080826040518082805190602001908083835b6020831061021a5780518252601f1990920191602091820191016101fb565b51815160209384036101000a60001901801990921691161790526040805192909401829003909120600090815290819052919091205473ffffffffffffffffffffffffffffffffffffffff1696955050505050505600a165627a7a72305820ffda34e1f7c7d95cab4ae4153c8fa6de9400540276823fc66738e85e87f5f3df0029",
  "source": "pragma solidity ^0.4.13;\n\n// DSProxyCache\n// This global cache stores addresses of contracts previously deployed\n// by a proxy. This saves gas from repeat deployment of the same\n// contracts and eliminates blockchain bloat.\n\n// By default, all proxies deployed from the same factory store\n// contracts in the same cache. The cache a proxy instance uses can be\n// changed.  The cache uses the sha3 hash of a contract's bytecode to\n// lookup the address\ncontract DSProxyCache {\n    mapping(bytes32 => address) cache;\n\n    function read(bytes _code) public view returns (address) {\n        bytes32 hash = keccak256(_code);\n        return cache[hash];\n    }\n\n    function write(bytes _code) public returns (address target) {\n        assembly {\n            target := create(0, add(_code, 0x20), mload(_code))\n            switch iszero(extcodesize(target))\n            case 1 {\n            // throw if contract failed to deploy\n                revert(0, 0)\n            }\n        }\n        bytes32 hash = keccak256(_code);\n        cache[hash] = target;\n    }\n}\n",
  "sourcePath": "/Users/samrichards/code/tu/etherswing/contracts/development/makerdao/sai-proxy/ds-proxy/DSProxyCache.sol",
  "compiler": {
    "name": "solc",
    "version": "0.4.24+commit.e67f0147.Emscripten.clang"
  },
  "schemaVersion": "3.0.10",
  "updatedAt": "2019-08-22T14:53:45.496Z",
  "devdoc": {
    "methods": {}
  },
  "userdoc": {
    "methods": {}
  }
}