{
  "contractName": "DSProxy",
  "abi": [
    {
      "constant": false,
      "inputs": [
        {
          "name": "owner_",
          "type": "address"
        }
      ],
      "name": "setOwner",
      "outputs": [],
      "payable": false,
      "stateMutability": "nonpayable",
      "type": "function"
    },
    {
      "constant": true,
      "inputs": [],
      "name": "cache",
      "outputs": [
        {
          "name": "",
          "type": "address"
        }
      ],
      "payable": false,
      "stateMutability": "view",
      "type": "function"
    },
    {
      "constant": false,
      "inputs": [
        {
          "name": "authority_",
          "type": "address"
        }
      ],
      "name": "setAuthority",
      "outputs": [],
      "payable": false,
      "stateMutability": "nonpayable",
      "type": "function"
    },
    {
      "constant": true,
      "inputs": [],
      "name": "owner",
      "outputs": [
        {
          "name": "",
          "type": "address"
        }
      ],
      "payable": false,
      "stateMutability": "view",
      "type": "function"
    },
    {
      "constant": true,
      "inputs": [],
      "name": "authority",
      "outputs": [
        {
          "name": "",
          "type": "address"
        }
      ],
      "payable": false,
      "stateMutability": "view",
      "type": "function"
    },
    {
      "inputs": [
        {
          "name": "_cacheAddr",
          "type": "address"
        }
      ],
      "payable": false,
      "stateMutability": "nonpayable",
      "type": "constructor"
    },
    {
      "payable": true,
      "stateMutability": "payable",
      "type": "fallback"
    },
    {
      "anonymous": true,
      "inputs": [
        {
          "indexed": true,
          "name": "sig",
          "type": "bytes4"
        },
        {
          "indexed": true,
          "name": "guy",
          "type": "address"
        },
        {
          "indexed": true,
          "name": "foo",
          "type": "bytes32"
        },
        {
          "indexed": true,
          "name": "bar",
          "type": "bytes32"
        },
        {
          "indexed": false,
          "name": "wad",
          "type": "uint256"
        },
        {
          "indexed": false,
          "name": "fax",
          "type": "bytes"
        }
      ],
      "name": "LogNote",
      "type": "event"
    },
    {
      "anonymous": false,
      "inputs": [
        {
          "indexed": true,
          "name": "authority",
          "type": "address"
        }
      ],
      "name": "LogSetAuthority",
      "type": "event"
    },
    {
      "anonymous": false,
      "inputs": [
        {
          "indexed": true,
          "name": "owner",
          "type": "address"
        }
      ],
      "name": "LogSetOwner",
      "type": "event"
    },
    {
      "constant": false,
      "inputs": [
        {
          "name": "_target",
          "type": "address"
        },
        {
          "name": "_data",
          "type": "bytes"
        }
      ],
      "name": "execute",
      "outputs": [
        {
          "name": "response",
          "type": "bytes32"
        }
      ],
      "payable": true,
      "stateMutability": "payable",
      "type": "function"
    },
    {
      "constant": false,
      "inputs": [
        {
          "name": "_cacheAddr",
          "type": "address"
        }
      ],
      "name": "setCache",
      "outputs": [
        {
          "name": "",
          "type": "bool"
        }
      ],
      "payable": false,
      "stateMutability": "nonpayable",
      "type": "function"
    }
  ],
  "bytecode": "0x608060405234801561001057600080fd5b50604051602080610835833981016040819052905160018054600160a060020a0319163390811790915590917fce241d7ca1f669fee44b6fc00b8eba2df3bb514eed0f6f668f8f89096e81ed9490600090a261007481640100000000610085810204565b151561007f57600080fd5b5061028f565b60006100bd337fffffffff0000000000000000000000000000000000000000000000000000000083351664010000000061016e810204565b15156100c857600080fd5b604080513480825260208201838152369383018490526004359360243593849386933393600080357fffffffff0000000000000000000000000000000000000000000000000000000016949092606082018484808284376040519201829003965090945050505050a4600160a060020a038416151561014657600080fd5b60028054600160a060020a038616600160a060020a0319909116179055600192505050919050565b6000600160a060020a03831630141561018957506001610289565b600154600160a060020a03848116911614156101a757506001610289565b600054600160a060020a031615156101c157506000610289565b60008054604080517fb7009613000000000000000000000000000000000000000000000000000000008152600160a060020a0387811660048301523060248301527fffffffff00000000000000000000000000000000000000000000000000000000871660448301529151919092169263b700961392606480820193602093909283900390910190829087803b15801561025a57600080fd5b505af115801561026e573d6000803e3d6000fd5b505050506040513d602081101561028457600080fd5b505190505b92915050565b6105978061029e6000396000f3006080604052600436106100825763ffffffff7c010000000000000000000000000000000000000000000000000000000060003504166313af403581146100845780631cff79cd146100a557806360c7d295146101115780637a9e5e4b146101425780638da5cb5b14610163578063948f507614610178578063bf7e214f146101ad575b005b34801561009057600080fd5b50610082600160a060020a03600435166101c2565b60408051602060046024803582810135601f81018590048502860185019096528585526100ff958335600160a060020a03169536956044949193909101919081908401838280828437509497506102409650505050505050565b60408051918252519081900360200190f35b34801561011d57600080fd5b506101266102fd565b60408051600160a060020a039092168252519081900360200190f35b34801561014e57600080fd5b50610082600160a060020a036004351661030c565b34801561016f57600080fd5b50610126610386565b34801561018457600080fd5b50610199600160a060020a0360043516610395565b604080519115158252519081900360200190f35b3480156101b957600080fd5b50610126610453565b6101d833600035600160e060020a031916610462565b15156101e357600080fd5b6001805473ffffffffffffffffffffffffffffffffffffffff1916600160a060020a0383811691909117918290556040519116907fce241d7ca1f669fee44b6fc00b8eba2df3bb514eed0f6f668f8f89096e81ed9490600090a250565b600061025833600035600160e060020a031916610462565b151561026357600080fd5b60408051348082526020820183815236938301849052600435936024359384938693339360008035600160e060020a031916949092606082018484808284376040519201829003965090945050505050a4600160a060020a03851615156102c957600080fd5b60206000855160208701886113885a03f460005193508015600181146102ee576102f3565b600080fd5b5050505092915050565b600254600160a060020a031681565b61032233600035600160e060020a031916610462565b151561032d57600080fd5b6000805473ffffffffffffffffffffffffffffffffffffffff1916600160a060020a03838116919091178083556040519116917f1abebea81bfa2637f28358c371278fb15ede7ea8dd28d2e03b112ff6d936ada491a250565b600154600160a060020a031681565b60006103ad33600035600160e060020a031916610462565b15156103b857600080fd5b60408051348082526020820183815236938301849052600435936024359384938693339360008035600160e060020a031916949092606082018484808284376040519201829003965090945050505050a4600160a060020a038416151561041e57600080fd5b60028054600160a060020a03861673ffffffffffffffffffffffffffffffffffffffff19909116179055600192505050919050565b600054600160a060020a031681565b6000600160a060020a03831630141561047d57506001610565565b600154600160a060020a038481169116141561049b57506001610565565b600054600160a060020a031615156104b557506000610565565b60008054604080517fb7009613000000000000000000000000000000000000000000000000000000008152600160a060020a038781166004830152306024830152600160e060020a0319871660448301529151919092169263b700961392606480820193602093909283900390910190829087803b15801561053657600080fd5b505af115801561054a573d6000803e3d6000fd5b505050506040513d602081101561056057600080fd5b505190505b929150505600a165627a7a72305820c151d215ec748f82b7b886ad66aa94e8f6ebb80092969b69644914ffc0c25c400029",
  "source": "pragma solidity ^0.4.13;\n\nimport \"./auth.sol\";\nimport \"./note.sol\";\nimport \"./DSProxyCache.sol\";\n\n// DSProxy\n// Allows code execution using a persistant identity This can be very\n// useful to execute a sequence of atomic actions. Since the owner of\n// the proxy can be changed, this allows for dynamic ownership models\n// i.e. a multisig\ncontract DSProxy is DSAuth, DSNote {\n    DSProxyCache public cache;  // global cache for contracts\n\n    function DSProxy(address _cacheAddr) public {\n        require(setCache(_cacheAddr));\n    }\n\n    function() public payable {\n    }\n\n    // use the proxy to execute calldata _data on contract _code\n//    function execute(bytes _code, bytes _data)\n//    public\n//    payable\n//    returns (address target, bytes32 response)\n//    {\n//        target = cache.read(_code);\n//        if (target == 0x0) {\n//            // deploy contract & store its address in cache\n//            target = cache.write(_code);\n//        }\n//\n//        response = execute(target, _data);\n//    }\n\n    function execute(address _target, bytes _data)\n    public\n    auth\n    note\n    payable\n    returns (bytes32 response)\n    {\n        require(_target != 0x0);\n\n        // call contract in current context\n        assembly {\n            let succeeded := delegatecall(sub(gas, 5000), _target, add(_data, 0x20), mload(_data), 0, 32)\n            response := mload(0)      // load delegatecall output\n            switch iszero(succeeded)\n            case 1 {\n            // throw if delegatecall faciled\n                revert(0, 0)\n            }\n        }\n    }\n\n    //set new cache\n    function setCache(address _cacheAddr)\n    public\n    auth\n    note\n    returns (bool)\n    {\n        require(_cacheAddr != 0x0);        // invalid cache address\n        cache = DSProxyCache(_cacheAddr);  // overwrite cache\n        return true;\n    }\n}",
  "sourcePath": "/Users/samrichards/code/tu/etherswing/contracts/development/makerdao/sai-proxy/ds-proxy/DSProxy.sol",
  "compiler": {
    "name": "solc",
    "version": "0.4.24+commit.e67f0147.Emscripten.clang"
  },
  "schemaVersion": "3.0.10",
  "updatedAt": "2019-08-22T14:53:55.219Z",
  "devdoc": {
    "methods": {}
  },
  "userdoc": {
    "methods": {}
  }
}