{
  "contractName": "DSProxyFactory",
  "abi": [
    {
      "constant": true,
      "inputs": [
        {
          "name": "",
          "type": "address"
        }
      ],
      "name": "isProxy",
      "outputs": [
        {
          "name": "",
          "type": "bool"
        }
      ],
      "payable": false,
      "stateMutability": "view",
      "type": "function"
    },
    {
      "constant": true,
      "inputs": [],
      "name": "cache",
      "outputs": [
        {
          "name": "",
          "type": "address"
        }
      ],
      "payable": false,
      "stateMutability": "view",
      "type": "function"
    },
    {
      "anonymous": false,
      "inputs": [
        {
          "indexed": true,
          "name": "sender",
          "type": "address"
        },
        {
          "indexed": false,
          "name": "proxy",
          "type": "address"
        },
        {
          "indexed": false,
          "name": "cache",
          "type": "address"
        }
      ],
      "name": "Created",
      "type": "event"
    },
    {
      "constant": false,
      "inputs": [],
      "name": "build",
      "outputs": [
        {
          "name": "proxy",
          "type": "address"
        }
      ],
      "payable": false,
      "stateMutability": "nonpayable",
      "type": "function"
    },
    {
      "constant": false,
      "inputs": [
        {
          "name": "owner",
          "type": "address"
        }
      ],
      "name": "build",
      "outputs": [
        {
          "name": "proxy",
          "type": "address"
        }
      ],
      "payable": false,
      "stateMutability": "nonpayable",
      "type": "function"
    }
  ],
  "bytecode": "0x608060405261000c61005b565b604051809103906000f080158015610028573d6000803e3d6000fd5b5060018054600160a060020a031916600160a060020a039290921691909117905534801561005557600080fd5b5061006b565b6040516102bc80610b6983390190565b610aef8061007a6000396000f3006080604052600436106100615763ffffffff7c010000000000000000000000000000000000000000000000000000000060003504166329710388811461006657806360c7d2951461009b5780638e1a55fc146100cc578063f3701da2146100e1575b600080fd5b34801561007257600080fd5b50610087600160a060020a0360043516610102565b604080519115158252519081900360200190f35b3480156100a757600080fd5b506100b0610117565b60408051600160a060020a039092168252519081900360200190f35b3480156100d857600080fd5b506100b0610126565b3480156100ed57600080fd5b506100b0600160a060020a0360043516610136565b60006020819052908152604090205460ff1681565b600154600160a060020a031681565b600061013133610136565b905090565b600154600090600160a060020a031661014d61027e565b600160a060020a03909116815260405190819003602001906000f08015801561017a573d6000803e3d6000fd5b5060015460408051600160a060020a03808516825292831660208201528151939450918516927f454b0172f64812df0cd504c2bd7df7aab8ff328a54d946b4bd0fa7c527adf9cc9281900390910190a280600160a060020a03166313af4035836040518263ffffffff167c01000000000000000000000000000000000000000000000000000000000281526004018082600160a060020a0316600160a060020a03168152602001915050600060405180830381600087803b15801561023e57600080fd5b505af1158015610252573d6000803e3d6000fd5b505050600160a060020a0382166000908152602081905260409020805460ff1916600117905550919050565b6040516108358061028f833901905600608060405234801561001057600080fd5b50604051602080610835833981016040819052905160018054600160a060020a0319163390811790915590917fce241d7ca1f669fee44b6fc00b8eba2df3bb514eed0f6f668f8f89096e81ed9490600090a261007481640100000000610085810204565b151561007f57600080fd5b5061028f565b60006100bd337fffffffff0000000000000000000000000000000000000000000000000000000083351664010000000061016e810204565b15156100c857600080fd5b604080513480825260208201838152369383018490526004359360243593849386933393600080357fffffffff0000000000000000000000000000000000000000000000000000000016949092606082018484808284376040519201829003965090945050505050a4600160a060020a038416151561014657600080fd5b60028054600160a060020a038616600160a060020a0319909116179055600192505050919050565b6000600160a060020a03831630141561018957506001610289565b600154600160a060020a03848116911614156101a757506001610289565b600054600160a060020a031615156101c157506000610289565b60008054604080517fb7009613000000000000000000000000000000000000000000000000000000008152600160a060020a0387811660048301523060248301527fffffffff00000000000000000000000000000000000000000000000000000000871660448301529151919092169263b700961392606480820193602093909283900390910190829087803b15801561025a57600080fd5b505af115801561026e573d6000803e3d6000fd5b505050506040513d602081101561028457600080fd5b505190505b92915050565b6105978061029e6000396000f3006080604052600436106100825763ffffffff7c010000000000000000000000000000000000000000000000000000000060003504166313af403581146100845780631cff79cd146100a557806360c7d295146101115780637a9e5e4b146101425780638da5cb5b14610163578063948f507614610178578063bf7e214f146101ad575b005b34801561009057600080fd5b50610082600160a060020a03600435166101c2565b60408051602060046024803582810135601f81018590048502860185019096528585526100ff958335600160a060020a03169536956044949193909101919081908401838280828437509497506102409650505050505050565b60408051918252519081900360200190f35b34801561011d57600080fd5b506101266102fd565b60408051600160a060020a039092168252519081900360200190f35b34801561014e57600080fd5b50610082600160a060020a036004351661030c565b34801561016f57600080fd5b50610126610386565b34801561018457600080fd5b50610199600160a060020a0360043516610395565b604080519115158252519081900360200190f35b3480156101b957600080fd5b50610126610453565b6101d833600035600160e060020a031916610462565b15156101e357600080fd5b6001805473ffffffffffffffffffffffffffffffffffffffff1916600160a060020a0383811691909117918290556040519116907fce241d7ca1f669fee44b6fc00b8eba2df3bb514eed0f6f668f8f89096e81ed9490600090a250565b600061025833600035600160e060020a031916610462565b151561026357600080fd5b60408051348082526020820183815236938301849052600435936024359384938693339360008035600160e060020a031916949092606082018484808284376040519201829003965090945050505050a4600160a060020a03851615156102c957600080fd5b60206000855160208701886113885a03f460005193508015600181146102ee576102f3565b600080fd5b5050505092915050565b600254600160a060020a031681565b61032233600035600160e060020a031916610462565b151561032d57600080fd5b6000805473ffffffffffffffffffffffffffffffffffffffff1916600160a060020a03838116919091178083556040519116917f1abebea81bfa2637f28358c371278fb15ede7ea8dd28d2e03b112ff6d936ada491a250565b600154600160a060020a031681565b60006103ad33600035600160e060020a031916610462565b15156103b857600080fd5b60408051348082526020820183815236938301849052600435936024359384938693339360008035600160e060020a031916949092606082018484808284376040519201829003965090945050505050a4600160a060020a038416151561041e57600080fd5b60028054600160a060020a03861673ffffffffffffffffffffffffffffffffffffffff19909116179055600192505050919050565b600054600160a060020a031681565b6000600160a060020a03831630141561047d57506001610565565b600154600160a060020a038481169116141561049b57506001610565565b600054600160a060020a031615156104b557506000610565565b60008054604080517fb7009613000000000000000000000000000000000000000000000000000000008152600160a060020a038781166004830152306024830152600160e060020a0319871660448301529151919092169263b700961392606480820193602093909283900390910190829087803b15801561053657600080fd5b505af115801561054a573d6000803e3d6000fd5b505050506040513d602081101561056057600080fd5b505190505b929150505600a165627a7a72305820c151d215ec748f82b7b886ad66aa94e8f6ebb80092969b69644914ffc0c25c400029a165627a7a72305820340704b01e40fbfff834042b46cf9f73190b79c0b305a34d39d7770db2b8ab290029608060405234801561001057600080fd5b5061029c806100206000396000f30060806040526004361061004b5763ffffffff7c01000000000000000000000000000000000000000000000000000000006000350416637ed0c3b281146100505780638bf4515c146100d2575b600080fd5b34801561005c57600080fd5b506040805160206004803580820135601f81018490048402850184019095528484526100a994369492936024939284019190819084018382808284375094975061012b9650505050505050565b6040805173ffffffffffffffffffffffffffffffffffffffff9092168252519081900360200190f35b3480156100de57600080fd5b506040805160206004803580820135601f81018490048402850184019095528484526100a99436949293602493928401919081908401838280828437509497506101e79650505050505050565b6000808251602084016000f09150813b156001811461004b5750826040518082805190602001908083835b602083106101755780518252601f199092019160209182019101610156565b51815160209384036101000a6000190180199092169116179052604080519290940182900390912060009081529081905291909120805473ffffffffffffffffffffffffffffffffffffffff191673ffffffffffffffffffffffffffffffffffffffff87161790555092949350505050565b600080826040518082805190602001908083835b6020831061021a5780518252601f1990920191602091820191016101fb565b51815160209384036101000a60001901801990921691161790526040805192909401829003909120600090815290819052919091205473ffffffffffffffffffffffffffffffffffffffff1696955050505050505600a165627a7a72305820ffda34e1f7c7d95cab4ae4153c8fa6de9400540276823fc66738e85e87f5f3df0029",
  "source": "pragma solidity ^0.4.13;\n\nimport \"./DSProxyCache.sol\";\nimport \"./DSProxy.sol\";\n\n// DSProxyFactory\n// This factory deploys new proxy instances through build()\n// Deployed proxy addresses are logged\ncontract DSProxyFactory {\n    event Created(address indexed sender, address proxy, address cache);\n    mapping(address=>bool) public isProxy;\n    DSProxyCache public cache = new DSProxyCache();\n\n    // deploys a new proxy instance\n    // sets owner of proxy to caller\n    function build() public returns (DSProxy proxy) {\n        proxy = build(msg.sender);\n    }\n\n    // deploys a new proxy instance\n    // sets custom owner of proxy\n    function build(address owner) public returns (DSProxy proxy) {\n        proxy = new DSProxy(cache);\n        Created(owner, address(proxy), address(cache));\n        proxy.setOwner(owner);\n        isProxy[proxy] = true;\n    }\n}",
  "sourcePath": "/Users/samrichards/code/tu/etherswing/contracts/development/makerdao/sai-proxy/ds-proxy/DSProxyFactory.sol",
  "compiler": {
    "name": "solc",
    "version": "0.4.24+commit.e67f0147.Emscripten.clang"
  },
  "schemaVersion": "3.0.10",
  "updatedAt": "2019-08-22T14:53:55.220Z",
  "devdoc": {
    "methods": {}
  },
  "userdoc": {
    "methods": {}
  }
}