{
  "contractName": "DSValue",
  "abi": [
    {
      "constant": false,
      "inputs": [
        {
          "name": "owner_",
          "type": "address"
        }
      ],
      "name": "setOwner",
      "outputs": [],
      "payable": false,
      "stateMutability": "nonpayable",
      "type": "function"
    },
    {
      "constant": false,
      "inputs": [
        {
          "name": "authority_",
          "type": "address"
        }
      ],
      "name": "setAuthority",
      "outputs": [],
      "payable": false,
      "stateMutability": "nonpayable",
      "type": "function"
    },
    {
      "constant": true,
      "inputs": [],
      "name": "owner",
      "outputs": [
        {
          "name": "",
          "type": "address"
        }
      ],
      "payable": false,
      "stateMutability": "view",
      "type": "function"
    },
    {
      "constant": true,
      "inputs": [],
      "name": "authority",
      "outputs": [
        {
          "name": "",
          "type": "address"
        }
      ],
      "payable": false,
      "stateMutability": "view",
      "type": "function"
    },
    {
      "anonymous": true,
      "inputs": [
        {
          "indexed": true,
          "name": "sig",
          "type": "bytes4"
        },
        {
          "indexed": true,
          "name": "guy",
          "type": "address"
        },
        {
          "indexed": true,
          "name": "foo",
          "type": "bytes32"
        },
        {
          "indexed": true,
          "name": "bar",
          "type": "bytes32"
        },
        {
          "indexed": false,
          "name": "wad",
          "type": "uint256"
        },
        {
          "indexed": false,
          "name": "fax",
          "type": "bytes"
        }
      ],
      "name": "LogNote",
      "type": "event"
    },
    {
      "anonymous": false,
      "inputs": [
        {
          "indexed": true,
          "name": "authority",
          "type": "address"
        }
      ],
      "name": "LogSetAuthority",
      "type": "event"
    },
    {
      "anonymous": false,
      "inputs": [
        {
          "indexed": true,
          "name": "owner",
          "type": "address"
        }
      ],
      "name": "LogSetOwner",
      "type": "event"
    },
    {
      "constant": true,
      "inputs": [],
      "name": "peek",
      "outputs": [
        {
          "name": "",
          "type": "bytes32"
        },
        {
          "name": "",
          "type": "bool"
        }
      ],
      "payable": false,
      "stateMutability": "view",
      "type": "function"
    },
    {
      "constant": true,
      "inputs": [],
      "name": "read",
      "outputs": [
        {
          "name": "",
          "type": "bytes32"
        }
      ],
      "payable": false,
      "stateMutability": "view",
      "type": "function"
    },
    {
      "constant": false,
      "inputs": [
        {
          "name": "wut",
          "type": "bytes32"
        }
      ],
      "name": "poke",
      "outputs": [],
      "payable": false,
      "stateMutability": "nonpayable",
      "type": "function"
    },
    {
      "constant": false,
      "inputs": [],
      "name": "void",
      "outputs": [],
      "payable": false,
      "stateMutability": "nonpayable",
      "type": "function"
    }
  ],
  "bytecode": "0x6080604081905260018054600160a060020a03191633908117909155907fce241d7ca1f669fee44b6fc00b8eba2df3bb514eed0f6f668f8f89096e81ed9490600090a2610571806100516000396000f30060806040526004361061008d5763ffffffff7c010000000000000000000000000000000000000000000000000000000060003504166313af403581146100925780631504460f146100b557806357de26a4146100cd57806359e02dd7146100f45780637a9e5e4b146101225780638da5cb5b14610143578063ac4c25b214610174578063bf7e214f14610189575b600080fd5b34801561009e57600080fd5b506100b3600160a060020a036004351661019e565b005b3480156100c157600080fd5b506100b360043561021c565b3480156100d957600080fd5b506100e26102ca565b60408051918252519081900360200190f35b34801561010057600080fd5b506101096102ea565b6040805192835290151560208301528051918290030190f35b34801561012e57600080fd5b506100b3600160a060020a0360043516610310565b34801561014f57600080fd5b5061015861038a565b60408051600160a060020a039092168252519081900360200190f35b34801561018057600080fd5b506100b3610399565b34801561019557600080fd5b5061015861042d565b6101b433600035600160e060020a03191661043c565b15156101bf57600080fd5b6001805473ffffffffffffffffffffffffffffffffffffffff1916600160a060020a0383811691909117918290556040519116907fce241d7ca1f669fee44b6fc00b8eba2df3bb514eed0f6f668f8f89096e81ed9490600090a250565b60408051348082526020820183815236938301849052600435936024359384938693339360008035600160e060020a031916949092606082018484808284376040519201829003965090945050505050a461028333600035600160e060020a03191661043c565b151561028e57600080fd5b50506002556001805474ff0000000000000000000000000000000000000000191674010000000000000000000000000000000000000000179055565b60008060006102d76102ea565b915091508015156102e457fe5b50919050565b60025460015460ff74010000000000000000000000000000000000000000909104169091565b61032633600035600160e060020a03191661043c565b151561033157600080fd5b6000805473ffffffffffffffffffffffffffffffffffffffff1916600160a060020a03838116919091178083556040519116917f1abebea81bfa2637f28358c371278fb15ede7ea8dd28d2e03b112ff6d936ada491a250565b600154600160a060020a031681565b60408051348082526020820183815236938301849052600435936024359384938693339360008035600160e060020a031916949092606082018484808284376040519201829003965090945050505050a461040033600035600160e060020a03191661043c565b151561040b57600080fd5b50506001805474ff000000000000000000000000000000000000000019169055565b600054600160a060020a031681565b6000600160a060020a0383163014156104575750600161053f565b600154600160a060020a03848116911614156104755750600161053f565b600054600160a060020a0316151561048f5750600061053f565b60008054604080517fb7009613000000000000000000000000000000000000000000000000000000008152600160a060020a038781166004830152306024830152600160e060020a0319871660448301529151919092169263b700961392606480820193602093909283900390910190829087803b15801561051057600080fd5b505af1158015610524573d6000803e3d6000fd5b505050506040513d602081101561053a57600080fd5b505190505b929150505600a165627a7a723058203a02bae1f451e7333173449fd70f26031ed33535d3fac5fef0309ea0457822b20029",
  "source": "/// value.sol - a value is a simple thing, it can be get and set\n\n// Copyright (C) 2017  DappHub, LLC\n\n// This program is free software: you can redistribute it and/or modify\n// it under the terms of the GNU General Public License as published by\n// the Free Software Foundation, either version 3 of the License, or\n// (at your option) any later version.\n\n// This program is distributed in the hope that it will be useful,\n// but WITHOUT ANY WARRANTY; without even the implied warranty of\n// MERCHANTABILITY or FITNESS FOR A PARTICULAR PURPOSE.  See the\n// GNU General Public License for more details.\n\n// You should have received a copy of the GNU General Public License\n// along with this program.  If not, see <http://www.gnu.org/licenses/>.\n\npragma solidity ^0.4.13;\n\nimport '../ds-thing/thing.sol';\n\ncontract DSValue is DSThing {\n    bool    has;\n    bytes32 val;\n    function peek() public view returns (bytes32, bool) {\n        return (val,has);\n    }\n    function read() public view returns (bytes32) {\n        var (wut, haz) = peek();\n        assert(haz);\n        return wut;\n    }\n    function poke(bytes32 wut) public note auth {\n        val = wut;\n        has = true;\n    }\n    function void() public note auth {  // unset the value\n        has = false;\n    }\n}\n\ncontract PipDSValue is DSThing {\n    bool    has;\n    bytes32 val;\n    function peek() public view returns (bytes32, bool) {\n        return (val,has);\n    }\n    function read() public view returns (bytes32) {\n        var (wut, haz) = peek();\n        assert(haz);\n        return wut;\n    }\n    function poke(bytes32 wut) public note auth {\n        val = wut;\n        has = true;\n    }\n    function void() public note auth {  // unset the value\n        has = false;\n    }\n}\n\ncontract PepDSValue is DSThing {\n    bool    has;\n    bytes32 val;\n    function peek() public view returns (bytes32, bool) {\n        return (val,has);\n    }\n    function read() public view returns (bytes32) {\n        var (wut, haz) = peek();\n        assert(haz);\n        return wut;\n    }\n    function poke(bytes32 wut) public note auth {\n        val = wut;\n        has = true;\n    }\n    function void() public note auth {  // unset the value\n        has = false;\n    }\n}",
  "sourcePath": "/Users/samrichards/code/tu/etherswing/contracts/development/makerdao/sai/ds-value/value.sol",
  "compiler": {
    "name": "solc",
    "version": "0.4.24+commit.e67f0147.Emscripten.clang"
  },
  "schemaVersion": "3.0.10",
  "updatedAt": "2019-07-16T04:23:02.477Z",
  "devdoc": {
    "methods": {}
  },
  "userdoc": {
    "methods": {}
  }
}