{
  "contractName": "ProxyRegistry",
  "abi": [
    {
      "constant": true,
      "inputs": [
        {
          "name": "",
          "type": "address"
        }
      ],
      "name": "proxies",
      "outputs": [
        {
          "name": "",
          "type": "address"
        }
      ],
      "payable": false,
      "stateMutability": "view",
      "type": "function"
    },
    {
      "inputs": [
        {
          "name": "factory_",
          "type": "address"
        }
      ],
      "payable": false,
      "stateMutability": "nonpayable",
      "type": "constructor"
    },
    {
      "constant": false,
      "inputs": [],
      "name": "build",
      "outputs": [
        {
          "name": "proxy",
          "type": "address"
        }
      ],
      "payable": false,
      "stateMutability": "nonpayable",
      "type": "function"
    },
    {
      "constant": false,
      "inputs": [
        {
          "name": "owner",
          "type": "address"
        }
      ],
      "name": "build",
      "outputs": [
        {
          "name": "proxy",
          "type": "address"
        }
      ],
      "payable": false,
      "stateMutability": "nonpayable",
      "type": "function"
    }
  ],
  "bytecode": "0x608060405234801561001057600080fd5b50604051602080610319833981016040525160018054600160a060020a031916600160a060020a039092169190911790556102c9806100506000396000f3006080604052600436106100565763ffffffff7c01000000000000000000000000000000000000000000000000000000006000350416638e1a55fc811461005b578063c45527911461008c578063f3701da2146100ad575b600080fd5b34801561006757600080fd5b506100706100ce565b60408051600160a060020a039092168252519081900360200190f35b34801561009857600080fd5b50610070600160a060020a03600435166100de565b3480156100b957600080fd5b50610070600160a060020a03600435166100f9565b60006100d9336100f9565b905090565b600060208190529081526040902054600160a060020a031681565b600160a060020a0381811660009081526020819052604081205490911615806101be5750600160a060020a038083166000818152602081815260408083205481517f8da5cb5b000000000000000000000000000000000000000000000000000000008152915194951693638da5cb5b93600480840194938390030190829087803b15801561018657600080fd5b505af115801561019a573d6000803e3d6000fd5b505050506040513d60208110156101b057600080fd5b5051600160a060020a031614155b15156101c957600080fd5b600154604080517ff3701da2000000000000000000000000000000000000000000000000000000008152600160a060020a0385811660048301529151919092169163f3701da29160248083019260209291908290030181600087803b15801561023157600080fd5b505af1158015610245573d6000803e3d6000fd5b505050506040513d602081101561025b57600080fd5b5051600160a060020a039283166000908152602081905260409020805473ffffffffffffffffffffffffffffffffffffffff19169382169390931790925550905600a165627a7a72305820b961da6cbd75670def82f544e50c68c75b7eb987f18d052d8d81fb8c177f3b980029",
  "source": "/// ProxyRegistry.sol\n\n// Copyright (C) 2018-2019 Gonzalo Balabasquer <gbalabasquer@gmail.com>\n//\n// This program is free software: you can redistribute it and/or modify\n// it under the terms of the GNU Affero General Public License as published by\n// the Free Software Foundation, either version 3 of the License, or\n// (at your option) any later version.\n//\n// This program is distributed in the hope that it will be useful,\n// but WITHOUT ANY WARRANTY; without even the implied warranty of\n// MERCHANTABILITY or FITNESS FOR A PARTICULAR PURPOSE.  See the\n// GNU Affero General Public License for more details.\n//\n// You should have received a copy of the GNU Affero General Public License\n// along with this program.  If not, see <https://www.gnu.org/licenses/>.\n\npragma solidity >=0.4.24;\n\nimport \"./DSProxy.sol\";\nimport \"./DSProxyFactory.sol\";\n\n// This Registry deploys new proxy instances through DSProxyFactory.build(address) and keeps a registry of owner => proxy\ncontract ProxyRegistry {\n    mapping(address => DSProxy) public proxies;\n    DSProxyFactory factory;\n\n    constructor(address factory_) public {\n        factory = DSProxyFactory(factory_);\n    }\n\n    // deploys a new proxy instance\n    // sets owner of proxy to caller\n    function build() public returns (address proxy) {\n        proxy = build(msg.sender);\n    }\n\n    // deploys a new proxy instance\n    // sets custom owner of proxy\n    function build(address owner) public returns (address proxy) {\n        require(proxies[owner] == DSProxy(0) || proxies[owner].owner() != owner); // Not allow new proxy if the user already has one and remains being the owner\n        proxy = factory.build(owner);\n        proxies[owner] = DSProxy(proxy);\n    }\n}\n",
  "sourcePath": "/Users/samrichards/code/tu/etherswing/contracts/development/makerdao/proxy/ds-proxy/ProxyRegistry.sol",
  "compiler": {
    "name": "solc",
    "version": "0.4.24+commit.e67f0147.Emscripten.clang"
  },
  "schemaVersion": "3.0.10",
  "updatedAt": "2019-07-16T04:26:45.051Z",
  "devdoc": {
    "methods": {}
  },
  "userdoc": {
    "methods": {}
  }
}