{
  "contractName": "SaiMom",
  "abi": [
    {
      "constant": false,
      "inputs": [
        {
          "name": "owner_",
          "type": "address"
        }
      ],
      "name": "setOwner",
      "outputs": [],
      "payable": false,
      "stateMutability": "nonpayable",
      "type": "function"
    },
    {
      "constant": true,
      "inputs": [],
      "name": "tub",
      "outputs": [
        {
          "name": "",
          "type": "address"
        }
      ],
      "payable": false,
      "stateMutability": "view",
      "type": "function"
    },
    {
      "constant": true,
      "inputs": [],
      "name": "vox",
      "outputs": [
        {
          "name": "",
          "type": "address"
        }
      ],
      "payable": false,
      "stateMutability": "view",
      "type": "function"
    },
    {
      "constant": false,
      "inputs": [
        {
          "name": "authority_",
          "type": "address"
        }
      ],
      "name": "setAuthority",
      "outputs": [],
      "payable": false,
      "stateMutability": "nonpayable",
      "type": "function"
    },
    {
      "constant": true,
      "inputs": [],
      "name": "owner",
      "outputs": [
        {
          "name": "",
          "type": "address"
        }
      ],
      "payable": false,
      "stateMutability": "view",
      "type": "function"
    },
    {
      "constant": true,
      "inputs": [],
      "name": "authority",
      "outputs": [
        {
          "name": "",
          "type": "address"
        }
      ],
      "payable": false,
      "stateMutability": "view",
      "type": "function"
    },
    {
      "constant": true,
      "inputs": [],
      "name": "tap",
      "outputs": [
        {
          "name": "",
          "type": "address"
        }
      ],
      "payable": false,
      "stateMutability": "view",
      "type": "function"
    },
    {
      "inputs": [
        {
          "name": "tub_",
          "type": "address"
        },
        {
          "name": "tap_",
          "type": "address"
        },
        {
          "name": "vox_",
          "type": "address"
        }
      ],
      "payable": false,
      "stateMutability": "nonpayable",
      "type": "constructor"
    },
    {
      "anonymous": true,
      "inputs": [
        {
          "indexed": true,
          "name": "sig",
          "type": "bytes4"
        },
        {
          "indexed": true,
          "name": "guy",
          "type": "address"
        },
        {
          "indexed": true,
          "name": "foo",
          "type": "bytes32"
        },
        {
          "indexed": true,
          "name": "bar",
          "type": "bytes32"
        },
        {
          "indexed": false,
          "name": "wad",
          "type": "uint256"
        },
        {
          "indexed": false,
          "name": "fax",
          "type": "bytes"
        }
      ],
      "name": "LogNote",
      "type": "event"
    },
    {
      "anonymous": false,
      "inputs": [
        {
          "indexed": true,
          "name": "authority",
          "type": "address"
        }
      ],
      "name": "LogSetAuthority",
      "type": "event"
    },
    {
      "anonymous": false,
      "inputs": [
        {
          "indexed": true,
          "name": "owner",
          "type": "address"
        }
      ],
      "name": "LogSetOwner",
      "type": "event"
    },
    {
      "constant": false,
      "inputs": [
        {
          "name": "wad",
          "type": "uint256"
        }
      ],
      "name": "setCap",
      "outputs": [],
      "payable": false,
      "stateMutability": "nonpayable",
      "type": "function"
    },
    {
      "constant": false,
      "inputs": [
        {
          "name": "ray",
          "type": "uint256"
        }
      ],
      "name": "setMat",
      "outputs": [],
      "payable": false,
      "stateMutability": "nonpayable",
      "type": "function"
    },
    {
      "constant": false,
      "inputs": [
        {
          "name": "ray",
          "type": "uint256"
        }
      ],
      "name": "setTax",
      "outputs": [],
      "payable": false,
      "stateMutability": "nonpayable",
      "type": "function"
    },
    {
      "constant": false,
      "inputs": [
        {
          "name": "ray",
          "type": "uint256"
        }
      ],
      "name": "setFee",
      "outputs": [],
      "payable": false,
      "stateMutability": "nonpayable",
      "type": "function"
    },
    {
      "constant": false,
      "inputs": [
        {
          "name": "ray",
          "type": "uint256"
        }
      ],
      "name": "setAxe",
      "outputs": [],
      "payable": false,
      "stateMutability": "nonpayable",
      "type": "function"
    },
    {
      "constant": false,
      "inputs": [
        {
          "name": "wad",
          "type": "uint256"
        }
      ],
      "name": "setTubGap",
      "outputs": [],
      "payable": false,
      "stateMutability": "nonpayable",
      "type": "function"
    },
    {
      "constant": false,
      "inputs": [
        {
          "name": "pip_",
          "type": "address"
        }
      ],
      "name": "setPip",
      "outputs": [],
      "payable": false,
      "stateMutability": "nonpayable",
      "type": "function"
    },
    {
      "constant": false,
      "inputs": [
        {
          "name": "pep_",
          "type": "address"
        }
      ],
      "name": "setPep",
      "outputs": [],
      "payable": false,
      "stateMutability": "nonpayable",
      "type": "function"
    },
    {
      "constant": false,
      "inputs": [
        {
          "name": "vox_",
          "type": "address"
        }
      ],
      "name": "setVox",
      "outputs": [],
      "payable": false,
      "stateMutability": "nonpayable",
      "type": "function"
    },
    {
      "constant": false,
      "inputs": [
        {
          "name": "wad",
          "type": "uint256"
        }
      ],
      "name": "setTapGap",
      "outputs": [],
      "payable": false,
      "stateMutability": "nonpayable",
      "type": "function"
    },
    {
      "constant": false,
      "inputs": [
        {
          "name": "ray",
          "type": "uint256"
        }
      ],
      "name": "setWay",
      "outputs": [],
      "payable": false,
      "stateMutability": "nonpayable",
      "type": "function"
    },
    {
      "constant": false,
      "inputs": [
        {
          "name": "ray",
          "type": "uint256"
        }
      ],
      "name": "setHow",
      "outputs": [],
      "payable": false,
      "stateMutability": "nonpayable",
      "type": "function"
    }
  ],
  "bytecode": "0x608060405234801561001057600080fd5b5060405160608061148683398101604081815282516020840151919093015160018054600160a060020a0319163390811790915591929091907fce241d7ca1f669fee44b6fc00b8eba2df3bb514eed0f6f668f8f89096e81ed9490600090a260028054600160a060020a03948516600160a060020a0319918216179091556003805493851693821693909317909255600480549190931691161790556113cb806100bb6000396000f3006080604052600436106100ed5763ffffffff60e060020a60003504166313af403581146100f257806322e58933146101155780632545b9e21461012d5780632e5bb6ff1461014557806334e70cc21461015d57806347786d371461018e57806367550a35146101a657806369fe0e2d146101bb5780637a9e5e4b146101d35780637fb07f6e146101f457806382bf9a751461020c5780638da5cb5b1461022d578063a6d76a8f14610242578063a93e36081461025a578063b5c456b514610272578063bf7e214f1461028a578063cf48d1a61461029f578063d9c27cc6146102c0578063fd221031146102e1575b600080fd5b3480156100fe57600080fd5b50610113600160a060020a03600435166102f6565b005b34801561012157600080fd5b50610113600435610374565b34801561013957600080fd5b50610113600435610479565b34801561015157600080fd5b5061011360043561062e565b34801561016957600080fd5b506101726107e4565b60408051600160a060020a039092168252519081900360200190f35b34801561019a57600080fd5b506101136004356107f3565b3480156101b257600080fd5b506101726108db565b3480156101c757600080fd5b506101136004356108ea565b3480156101df57600080fd5b50610113600160a060020a0360043516610a41565b34801561020057600080fd5b50610113600435610abb565b34801561021857600080fd5b50610113600160a060020a0360043516610d00565b34801561023957600080fd5b50610172610dd9565b34801561024e57600080fd5b50610113600435610de8565b34801561026657600080fd5b50610113600435610ebe565b34801561027e57600080fd5b50610113600435610fad565b34801561029657600080fd5b506101726110c6565b3480156102ab57600080fd5b50610113600160a060020a03600435166110d5565b3480156102cc57600080fd5b50610113600160a060020a03600435166111ae565b3480156102ed57600080fd5b50610172611287565b61030c33600035600160e060020a031916611296565b151561031757600080fd5b6001805473ffffffffffffffffffffffffffffffffffffffff1916600160a060020a0383811691909117918290556040519116907fce241d7ca1f669fee44b6fc00b8eba2df3bb514eed0f6f668f8f89096e81ed9490600090a250565b60408051348082526020820183815236938301849052600435936024359384938693339360008035600160e060020a031916949092606082018484808284376040519201829003965090945050505050a46103db33600035600160e060020a031916611296565b15156103e657600080fd5b6002546040805160e060020a6392b0d7210281527f67617000000000000000000000000000000000000000000000000000000000006004820152602481018690529051600160a060020a03909216916392b0d7219160448082019260009290919082900301818387803b15801561045c57600080fd5b505af1158015610470573d6000803e3d6000fd5b50505050505050565b604080513480825260208201838152369383018490526000936004359360243593849386933393600160e060020a03198a351693928a929190606082018484808284376040519201829003965090945050505050a46104e433600035600160e060020a031916611296565b15156104ef57600080fd5b6003546040805160e060020a6392b0d7210281527f67617000000000000000000000000000000000000000000000000000000000006004820152602481018790529051600160a060020a03909216916392b0d7219160448082019260009290919082900301818387803b15801561056557600080fd5b505af1158015610579573d6000803e3d6000fd5b50505050600360009054906101000a9004600160a060020a0316600160a060020a0316636c32c0a66040518163ffffffff1660e060020a028152600401602060405180830381600087803b1580156105d057600080fd5b505af11580156105e4573d6000803e3d6000fd5b505050506040513d60208110156105fa57600080fd5b50519250670e92596fd629000083111561061357600080fd5b670d2f13f7789f000083101561062857600080fd5b50505050565b604080513480825260208201838152369383018490526000936004359360243593849386933393600160e060020a03198a351693928a929190606082018484808284376040519201829003965090945050505050a461069933600035600160e060020a031916611296565b15156106a457600080fd5b6002546040805160e060020a6392b0d7210281527f74617800000000000000000000000000000000000000000000000000000000006004820152602481018790529051600160a060020a03909216916392b0d7219160448082019260009290919082900301818387803b15801561071a57600080fd5b505af115801561072e573d6000803e3d6000fd5b50505050600260009054906101000a9004600160a060020a0316600160a060020a03166399c8d5566040518163ffffffff1660e060020a028152600401602060405180830381600087803b15801561078557600080fd5b505af1158015610799573d6000803e3d6000fd5b505050506040513d60208110156107af57600080fd5b505192506b033b2e3c9fd0803ce80000008310156107cc57600080fd5b6b033b2e7841618c3029b00000831061062857600080fd5b600254600160a060020a031681565b60408051348082526020820183815236938301849052600435936024359384938693339360008035600160e060020a031916949092606082018484808284376040519201829003965090945050505050a461085a33600035600160e060020a031916611296565b151561086557600080fd5b6002546040805160e060020a6392b0d7210281527f63617000000000000000000000000000000000000000000000000000000000006004820152602481018690529051600160a060020a03909216916392b0d7219160448082019260009290919082900301818387803b15801561045c57600080fd5b600454600160a060020a031681565b604080513480825260208201838152369383018490526000936004359360243593849386933393600160e060020a03198a351693928a929190606082018484808284376040519201829003965090945050505050a461095533600035600160e060020a031916611296565b151561096057600080fd5b6002546040805160e060020a6392b0d7210281527f66656500000000000000000000000000000000000000000000000000000000006004820152602481018790529051600160a060020a03909216916392b0d7219160448082019260009290919082900301818387803b1580156109d657600080fd5b505af11580156109ea573d6000803e3d6000fd5b50505050600260009054906101000a9004600160a060020a0316600160a060020a031663ddca3f436040518163ffffffff1660e060020a028152600401602060405180830381600087803b15801561078557600080fd5b610a5733600035600160e060020a031916611296565b1515610a6257600080fd5b6000805473ffffffffffffffffffffffffffffffffffffffff1916600160a060020a03838116919091178083556040519116917f1abebea81bfa2637f28358c371278fb15ede7ea8dd28d2e03b112ff6d936ada491a250565b6040805134808252602082018381523693830184905260009384936004359360243593849386933393600160e060020a03198a35169390928a929091606082018484808284376040519201829003965090945050505050a4610b2933600035600160e060020a031916611296565b1515610b3457600080fd5b6002546040805160e060020a6392b0d7210281527f6d617400000000000000000000000000000000000000000000000000000000006004820152602481018890529051600160a060020a03909216916392b0d7219160448082019260009290919082900301818387803b158015610baa57600080fd5b505af1158015610bbe573d6000803e3d6000fd5b50505050600260009054906101000a9004600160a060020a0316600160a060020a031663509bf2bf6040518163ffffffff1660e060020a028152600401602060405180830381600087803b158015610c1557600080fd5b505af1158015610c29573d6000803e3d6000fd5b505050506040513d6020811015610c3f57600080fd5b5051600254604080517fab0783da0000000000000000000000000000000000000000000000000000000081529051929650600160a060020a039091169163ab0783da916004808201926020929091908290030181600087803b158015610ca457600080fd5b505af1158015610cb8573d6000803e3d6000fd5b505050506040513d6020811015610cce57600080fd5b505192506b033b2e3c9fd0803ce80000008410801590610cee5750828411155b1515610cf957600080fd5b5050505050565b60408051348082526020820183815236938301849052600435936024359384938693339360008035600160e060020a031916949092606082018484808284376040519201829003965090945050505050a4610d6733600035600160e060020a031916611296565b1515610d7257600080fd5b600254604080517f82bf9a75000000000000000000000000000000000000000000000000000000008152600160a060020a038681166004830152915191909216916382bf9a7591602480830192600092919082900301818387803b15801561045c57600080fd5b600154600160a060020a031681565b60408051348082526020820183815236938301849052600435936024359384938693339360008035600160e060020a031916949092606082018484808284376040519201829003965090945050505050a4610e4f33600035600160e060020a031916611296565b1515610e5a57600080fd5b60048054604080517fbecda0ea00000000000000000000000000000000000000000000000000000000815292830186905251600160a060020a039091169163becda0ea91602480830192600092919082900301818387803b15801561045c57600080fd5b6040805134808252602082018381523693830184905260009384936004359360243593849386933393600160e060020a03198a35169390928a929091606082018484808284376040519201829003965090945050505050a4610f2c33600035600160e060020a031916611296565b1515610f3757600080fd5b6002546040805160e060020a6392b0d7210281527f61786500000000000000000000000000000000000000000000000000000000006004820152602481018890529051600160a060020a03909216916392b0d7219160448082019260009290919082900301818387803b158015610baa57600080fd5b60408051348082526020820183815236938301849052600435936024359384938693339360008035600160e060020a031916949092606082018484808284376040519201829003965090945050505050a461101433600035600160e060020a031916611296565b151561101f57600080fd5b6b033b2e7841618c3029b00000831061103757600080fd5b6b033b2dfb9278161c43400000831161104f57600080fd5b600480546040805160e060020a6392b0d7210281527f7761790000000000000000000000000000000000000000000000000000000000938101939093526024830186905251600160a060020a03909116916392b0d72191604480830192600092919082900301818387803b15801561045c57600080fd5b600054600160a060020a031681565b60408051348082526020820183815236938301849052600435936024359384938693339360008035600160e060020a031916949092606082018484808284376040519201829003965090945050505050a461113c33600035600160e060020a031916611296565b151561114757600080fd5b600254604080517fcf48d1a6000000000000000000000000000000000000000000000000000000008152600160a060020a0386811660048301529151919092169163cf48d1a691602480830192600092919082900301818387803b15801561045c57600080fd5b60408051348082526020820183815236938301849052600435936024359384938693339360008035600160e060020a031916949092606082018484808284376040519201829003965090945050505050a461121533600035600160e060020a031916611296565b151561122057600080fd5b600254604080517fd9c27cc6000000000000000000000000000000000000000000000000000000008152600160a060020a0386811660048301529151919092169163d9c27cc691602480830192600092919082900301818387803b15801561045c57600080fd5b600354600160a060020a031681565b6000600160a060020a0383163014156112b157506001611399565b600154600160a060020a03848116911614156112cf57506001611399565b600054600160a060020a031615156112e957506000611399565b60008054604080517fb7009613000000000000000000000000000000000000000000000000000000008152600160a060020a038781166004830152306024830152600160e060020a0319871660448301529151919092169263b700961392606480820193602093909283900390910190829087803b15801561136a57600080fd5b505af115801561137e573d6000803e3d6000fd5b505050506040513d602081101561139457600080fd5b505190505b929150505600a165627a7a723058209c716bf5296473830b45bbf9f5512bce94660e399b064ffba9c1ebd2ea66723f0029",
  "source": "/// mom.sol -- admin manager\n\n// Copyright (C) 2017  Nikolai Mushegian <nikolai@dapphub.com>\n// Copyright (C) 2017  Daniel Brockman <daniel@dapphub.com>\n// Copyright (C) 2017  Rain <rainbreak@riseup.net>\n\n// This program is free software: you can redistribute it and/or modify\n// it under the terms of the GNU General Public License as published by\n// the Free Software Foundation, either version 3 of the License, or\n// (at your option) any later version.\n\n// This program is distributed in the hope that it will be useful,\n// but WITHOUT ANY WARRANTY; without even the implied warranty of\n// MERCHANTABILITY or FITNESS FOR A PARTICULAR PURPOSE.  See the\n// GNU General Public License for more details.\n\n// You should have received a copy of the GNU General Public License\n// along with this program.  If not, see <http://www.gnu.org/licenses/>.\n\npragma solidity ^0.4.18;\n\nimport './ds-thing/thing.sol';\nimport './tub.sol';\nimport './top.sol';\nimport './tap.sol';\n\ncontract SaiMom is DSThing {\n    SaiTub  public  tub;\n    SaiTap  public  tap;\n    SaiVox  public  vox;\n\n    function SaiMom(SaiTub tub_, SaiTap tap_, SaiVox vox_) public {\n        tub = tub_;\n        tap = tap_;\n        vox = vox_;\n    }\n    // Debt ceiling\n    function setCap(uint wad) public note auth {\n        tub.mold(\"cap\", wad);\n    }\n    // Liquidation ratio\n    function setMat(uint ray) public note auth {\n        tub.mold(\"mat\", ray);\n        var axe = tub.axe();\n        var mat = tub.mat();\n        require(axe >= RAY && axe <= mat);\n    }\n    // Stability fee\n    function setTax(uint ray) public note auth {\n        tub.mold(\"tax\", ray);\n        var tax = tub.tax();\n        require(RAY <= tax);\n        require(tax < 1000001100000000000000000000);  // 10% / day\n    }\n    // Governance fee\n    function setFee(uint ray) public note auth {\n        tub.mold(\"fee\", ray);\n        var fee = tub.fee();\n        require(RAY <= fee);\n        require(fee < 1000001100000000000000000000);  // 10% / day\n    }\n    // Liquidation fee\n    function setAxe(uint ray) public note auth {\n        tub.mold(\"axe\", ray);\n        var axe = tub.axe();\n        var mat = tub.mat();\n        require(axe >= RAY && axe <= mat);\n    }\n    // Join/Exit Spread\n    function setTubGap(uint wad) public note auth {\n        tub.mold(\"gap\", wad);\n    }\n    // ETH/USD Feed\n    function setPip(DSValue pip_) public note auth {\n        tub.setPip(pip_);\n    }\n    // MKR/USD Feed\n    function setPep(DSValue pep_) public note auth {\n        tub.setPep(pep_);\n    }\n    // TRFM\n    function setVox(SaiVox vox_) public note auth {\n        tub.setVox(vox_);\n    }\n    // Boom/Bust Spread\n    function setTapGap(uint wad) public note auth {\n        tap.mold(\"gap\", wad);\n        var gap = tap.gap();\n        require(gap <= 1.05 ether);\n        require(gap >= 0.95 ether);\n    }\n    // Rate of change of target price (per second)\n    function setWay(uint ray) public note auth {\n        require(ray < 1000001100000000000000000000);  // 10% / day\n        require(ray >  999998800000000000000000000);\n        vox.mold(\"way\", ray);\n    }\n    function setHow(uint ray) public note auth {\n        vox.tune(ray);\n    }\n}\n",
  "sourcePath": "/Users/samrichards/code/tu/etherswing/contracts/development/makerdao/sai/mom.sol",
  "compiler": {
    "name": "solc",
    "version": "0.4.24+commit.e67f0147.Emscripten.clang"
  },
  "schemaVersion": "3.0.10",
  "updatedAt": "2019-07-16T04:23:02.587Z",
  "devdoc": {
    "methods": {}
  },
  "userdoc": {
    "methods": {}
  }
}