{
  "contractName": "SaiTop",
  "abi": [
    {
      "constant": true,
      "inputs": [],
      "name": "sin",
      "outputs": [
        {
          "name": "",
          "type": "address"
        }
      ],
      "payable": false,
      "stateMutability": "view",
      "type": "function"
    },
    {
      "constant": true,
      "inputs": [],
      "name": "skr",
      "outputs": [
        {
          "name": "",
          "type": "address"
        }
      ],
      "payable": false,
      "stateMutability": "view",
      "type": "function"
    },
    {
      "constant": false,
      "inputs": [
        {
          "name": "owner_",
          "type": "address"
        }
      ],
      "name": "setOwner",
      "outputs": [],
      "payable": false,
      "stateMutability": "nonpayable",
      "type": "function"
    },
    {
      "constant": true,
      "inputs": [],
      "name": "tub",
      "outputs": [
        {
          "name": "",
          "type": "address"
        }
      ],
      "payable": false,
      "stateMutability": "view",
      "type": "function"
    },
    {
      "constant": true,
      "inputs": [],
      "name": "vox",
      "outputs": [
        {
          "name": "",
          "type": "address"
        }
      ],
      "payable": false,
      "stateMutability": "view",
      "type": "function"
    },
    {
      "constant": true,
      "inputs": [],
      "name": "cooldown",
      "outputs": [
        {
          "name": "",
          "type": "uint256"
        }
      ],
      "payable": false,
      "stateMutability": "view",
      "type": "function"
    },
    {
      "constant": false,
      "inputs": [
        {
          "name": "authority_",
          "type": "address"
        }
      ],
      "name": "setAuthority",
      "outputs": [],
      "payable": false,
      "stateMutability": "nonpayable",
      "type": "function"
    },
    {
      "constant": true,
      "inputs": [],
      "name": "gem",
      "outputs": [
        {
          "name": "",
          "type": "address"
        }
      ],
      "payable": false,
      "stateMutability": "view",
      "type": "function"
    },
    {
      "constant": true,
      "inputs": [],
      "name": "owner",
      "outputs": [
        {
          "name": "",
          "type": "address"
        }
      ],
      "payable": false,
      "stateMutability": "view",
      "type": "function"
    },
    {
      "constant": true,
      "inputs": [],
      "name": "sai",
      "outputs": [
        {
          "name": "",
          "type": "address"
        }
      ],
      "payable": false,
      "stateMutability": "view",
      "type": "function"
    },
    {
      "constant": true,
      "inputs": [],
      "name": "fix",
      "outputs": [
        {
          "name": "",
          "type": "uint256"
        }
      ],
      "payable": false,
      "stateMutability": "view",
      "type": "function"
    },
    {
      "constant": true,
      "inputs": [],
      "name": "authority",
      "outputs": [
        {
          "name": "",
          "type": "address"
        }
      ],
      "payable": false,
      "stateMutability": "view",
      "type": "function"
    },
    {
      "constant": true,
      "inputs": [],
      "name": "fit",
      "outputs": [
        {
          "name": "",
          "type": "uint256"
        }
      ],
      "payable": false,
      "stateMutability": "view",
      "type": "function"
    },
    {
      "constant": true,
      "inputs": [],
      "name": "caged",
      "outputs": [
        {
          "name": "",
          "type": "uint256"
        }
      ],
      "payable": false,
      "stateMutability": "view",
      "type": "function"
    },
    {
      "constant": true,
      "inputs": [],
      "name": "tap",
      "outputs": [
        {
          "name": "",
          "type": "address"
        }
      ],
      "payable": false,
      "stateMutability": "view",
      "type": "function"
    },
    {
      "inputs": [
        {
          "name": "tub_",
          "type": "address"
        },
        {
          "name": "tap_",
          "type": "address"
        }
      ],
      "payable": false,
      "stateMutability": "nonpayable",
      "type": "constructor"
    },
    {
      "anonymous": true,
      "inputs": [
        {
          "indexed": true,
          "name": "sig",
          "type": "bytes4"
        },
        {
          "indexed": true,
          "name": "guy",
          "type": "address"
        },
        {
          "indexed": true,
          "name": "foo",
          "type": "bytes32"
        },
        {
          "indexed": true,
          "name": "bar",
          "type": "bytes32"
        },
        {
          "indexed": false,
          "name": "wad",
          "type": "uint256"
        },
        {
          "indexed": false,
          "name": "fax",
          "type": "bytes"
        }
      ],
      "name": "LogNote",
      "type": "event"
    },
    {
      "anonymous": false,
      "inputs": [
        {
          "indexed": true,
          "name": "authority",
          "type": "address"
        }
      ],
      "name": "LogSetAuthority",
      "type": "event"
    },
    {
      "anonymous": false,
      "inputs": [
        {
          "indexed": true,
          "name": "owner",
          "type": "address"
        }
      ],
      "name": "LogSetOwner",
      "type": "event"
    },
    {
      "constant": true,
      "inputs": [],
      "name": "era",
      "outputs": [
        {
          "name": "",
          "type": "uint256"
        }
      ],
      "payable": false,
      "stateMutability": "view",
      "type": "function"
    },
    {
      "constant": false,
      "inputs": [],
      "name": "cage",
      "outputs": [],
      "payable": false,
      "stateMutability": "nonpayable",
      "type": "function"
    },
    {
      "constant": false,
      "inputs": [],
      "name": "flow",
      "outputs": [],
      "payable": false,
      "stateMutability": "nonpayable",
      "type": "function"
    },
    {
      "constant": false,
      "inputs": [
        {
          "name": "cooldown_",
          "type": "uint256"
        }
      ],
      "name": "setCooldown",
      "outputs": [],
      "payable": false,
      "stateMutability": "nonpayable",
      "type": "function"
    }
  ],
  "bytecode": "0x6080604052615460600c553480156200001757600080fd5b5060405160408062001545833981016040819052815160209092015160018054600160a060020a0319163390811790915590917fce241d7ca1f669fee44b6fc00b8eba2df3bb514eed0f6f668f8f89096e81ed9490600090a260038054600160a060020a03808516600160a060020a03199283161792839055600480548583169316929092178255604080517f67550a35000000000000000000000000000000000000000000000000000000008152905193909116926367550a35928281019260209291908290030181600087803b158015620000f357600080fd5b505af115801562000108573d6000803e3d6000fd5b505050506040513d60208110156200011f57600080fd5b505160028054600160a060020a031916600160a060020a03928316179055600354604080517f9166cba400000000000000000000000000000000000000000000000000000000815290519190921691639166cba49160048083019260209291908290030181600087803b1580156200019657600080fd5b505af1158015620001ab573d6000803e3d6000fd5b505050506040513d6020811015620001c257600080fd5b505160058054600160a060020a031916600160a060020a03928316179055600354604080517f071bafb50000000000000000000000000000000000000000000000000000000081529051919092169163071bafb59160048083019260209291908290030181600087803b1580156200023957600080fd5b505af11580156200024e573d6000803e3d6000fd5b505050506040513d60208110156200026557600080fd5b505160068054600160a060020a031916600160a060020a03928316179055600354604080517f0f8a771e00000000000000000000000000000000000000000000000000000000815290519190921691630f8a771e9160048083019260209291908290030181600087803b158015620002dc57600080fd5b505af1158015620002f1573d6000803e3d6000fd5b505050506040513d60208110156200030857600080fd5b505160078054600160a060020a031916600160a060020a03928316179055600354604080517f7bd2bea700000000000000000000000000000000000000000000000000000000815290519190921691637bd2bea79160048083019260209291908290030181600087803b1580156200037f57600080fd5b505af115801562000394573d6000803e3d6000fd5b505050506040513d6020811015620003ab57600080fd5b505160088054600160a060020a031916600160a060020a0390921691909117905550611166905080620003df6000396000f3006080604052600436106100ed5763ffffffff60e060020a600035041663071bafb581146100f25780630f8a771e1461012357806313af403514610138578063143e55e01461015b578063343aad821461018257806334e70cc2146101975780634fc3f41a146101ac57806367550a35146101c457806369245009146101d9578063787a08a6146101ee5780637a9e5e4b146102035780637bd2bea7146102245780638da5cb5b146102395780639166cba41461024e578063a551878e14610263578063bf7e214f14610278578063c8e13bb41461028d578063f83e5793146102a2578063fd221031146102b7575b600080fd5b3480156100fe57600080fd5b506101076102cc565b60408051600160a060020a039092168252519081900360200190f35b34801561012f57600080fd5b506101076102db565b34801561014457600080fd5b50610159600160a060020a03600435166102ea565b005b34801561016757600080fd5b50610170610368565b60408051918252519081900360200190f35b34801561018e57600080fd5b5061015961036c565b3480156101a357600080fd5b506101076105f9565b3480156101b857600080fd5b50610159600435610608565b3480156101d057600080fd5b5061010761062e565b3480156101e557600080fd5b5061015961063d565b3480156101fa57600080fd5b50610170610857565b34801561020f57600080fd5b50610159600160a060020a036004351661085d565b34801561023057600080fd5b506101076108d7565b34801561024557600080fd5b506101076108e6565b34801561025a57600080fd5b506101076108f5565b34801561026f57600080fd5b50610170610904565b34801561028457600080fd5b5061010761090a565b34801561029957600080fd5b50610170610919565b3480156102ae57600080fd5b5061017061091f565b3480156102c357600080fd5b50610107610925565b600654600160a060020a031681565b600754600160a060020a031681565b61030033600035600160e060020a031916610934565b151561030b57600080fd5b6001805473ffffffffffffffffffffffffffffffffffffffff1916600160a060020a0383811691909117918290556040519116907fce241d7ca1f669fee44b6fc00b8eba2df3bb514eed0f6f668f8f89096e81ed9490600090a250565b4290565b6040805134808252602082018381523693830184905260009384936004359360243593849386933393600160e060020a03198a35169390928a929091606082018484808284376040519201829003965090945050505050a4600360009054906101000a9004600160a060020a0316600160a060020a0316636626b26d6040518163ffffffff1660e060020a028152600401602060405180830381600087803b15801561041757600080fd5b505af115801561042b573d6000803e3d6000fd5b505050506040513d602081101561044157600080fd5b5051151561044e57600080fd5b600360009054906101000a9004600160a060020a0316600160a060020a031663e0ae96e96040518163ffffffff1660e060020a028152600401602060405180830381600087803b1580156104a157600080fd5b505af11580156104b5573d6000803e3d6000fd5b505050506040513d60208110156104cb57600080fd5b5051158015610560575060048054604080517f7296359a0000000000000000000000000000000000000000000000000000000081529051600160a060020a0390921692637296359a9282820192602092908290030181600087803b15801561053257600080fd5b505af1158015610546573d6000803e3d6000fd5b505050506040513d602081101561055c57600080fd5b5051155b9350600c54600b5401610571610368565b119250838061057d5750825b151561058857600080fd5b600360009054906101000a9004600160a060020a0316600160a060020a031663343aad826040518163ffffffff1660e060020a028152600401600060405180830381600087803b1580156105db57600080fd5b505af11580156105ef573d6000803e3d6000fd5b5050505050505050565b600354600160a060020a031681565b61061e33600035600160e060020a031916610934565b151561062957600080fd5b600c55565b600254600160a060020a031681565b60408051348082526020820183815236938301849052600435936024359384938693339360008035600160e060020a031916949092606082018484808284376040519201829003965090945050505050a46106a433600035600160e060020a031916610934565b15156106af57600080fd5b61085361084e600360009054906101000a9004600160a060020a0316600160a060020a031663d741e2f96040518163ffffffff1660e060020a028152600401602060405180830381600087803b15801561070857600080fd5b505af115801561071c573d6000803e3d6000fd5b505050506040513d602081101561073257600080fd5b5051604080517f57de26a40000000000000000000000000000000000000000000000000000000081529051600160a060020a03909216916357de26a4916004808201926020929091908290030181600087803b15801561079157600080fd5b505af11580156107a5573d6000803e3d6000fd5b505050506040513d60208110156107bb57600080fd5b5051600254604080517f495d32cb0000000000000000000000000000000000000000000000000000000081529051600160a060020a039092169163495d32cb916004808201926020929091908290030181600087803b15801561081d57600080fd5b505af1158015610831573d6000803e3d6000fd5b505050506040513d602081101561084757600080fd5b5051610a3d565b610a74565b5050565b600c5481565b61087333600035600160e060020a031916610934565b151561087e57600080fd5b6000805473ffffffffffffffffffffffffffffffffffffffff1916600160a060020a03838116919091178083556040519116917f1abebea81bfa2637f28358c371278fb15ede7ea8dd28d2e03b112ff6d936ada491a250565b600854600160a060020a031681565b600154600160a060020a031681565b600554600160a060020a031681565b60095481565b600054600160a060020a031681565b600a5481565b600b5481565b600454600160a060020a031681565b6000600160a060020a03831630141561094f57506001610a37565b600154600160a060020a038481169116141561096d57506001610a37565b600054600160a060020a0316151561098757506000610a37565b60008054604080517fb7009613000000000000000000000000000000000000000000000000000000008152600160a060020a038781166004830152306024830152600160e060020a0319871660448301529151919092169263b700961392606480820193602093909283900390910190829087803b158015610a0857600080fd5b505af1158015610a1c573d6000803e3d6000fd5b505050506040513d6020811015610a3257600080fd5b505190505b92915050565b600081610a63610a59856b033b2e3c9fd0803ce8000000611091565b6002855b046110b9565b811515610a6c57fe5b049392505050565b600360009054906101000a9004600160a060020a0316600160a060020a0316636626b26d6040518163ffffffff1660e060020a028152600401602060405180830381600087803b158015610ac757600080fd5b505af1158015610adb573d6000803e3d6000fd5b505050506040513d6020811015610af157600080fd5b5051158015610aff57508015155b1515610b0a57600080fd5b610b12610368565b600b55600354604080517f9f678cca0000000000000000000000000000000000000000000000000000000081529051600160a060020a0390921691639f678cca9160048082019260009290919082900301818387803b158015610b7457600080fd5b505af1158015610b88573d6000803e3d6000fd5b505060048054604080517f0434fe0b0000000000000000000000000000000000000000000000000000000081529051600160a060020a039092169450630434fe0b9350808301926000929182900301818387803b158015610be857600080fd5b505af1158015610bfc573d6000803e3d6000fd5b50505050610d0f610c8b82600260009054906101000a9004600160a060020a0316600160a060020a031663495d32cb6040518163ffffffff1660e060020a028152600401602060405180830381600087803b158015610c5a57600080fd5b505af1158015610c6e573d6000803e3d6000fd5b505050506040513d6020811015610c8457600080fd5b50516110c9565b600360009054906101000a9004600160a060020a0316600160a060020a0316637ec9c3b86040518163ffffffff1660e060020a028152600401602060405180830381600087803b158015610cde57600080fd5b505af1158015610cf2573d6000803e3d6000fd5b505050506040513d6020811015610d0857600080fd5b50516110f1565b600a55600554604080517f18160ddd0000000000000000000000000000000000000000000000000000000081529051600160a060020a03909216916318160ddd916004808201926020929091908290030181600087803b158015610d7257600080fd5b505af1158015610d86573d6000803e3d6000fd5b505050506040513d6020811015610d9c57600080fd5b50511515610dbe57610db6670de0b6b3a764000082610a3d565b600955610ec9565b610ec5610dd3670de0b6b3a764000083610a3d565b600354604080517f8a95a7460000000000000000000000000000000000000000000000000000000081529051610ec092600160a060020a031691638a95a7469160048083019260209291908290030181600087803b158015610e3457600080fd5b505af1158015610e48573d6000803e3d6000fd5b505050506040513d6020811015610e5e57600080fd5b5051600554604080517f18160ddd0000000000000000000000000000000000000000000000000000000081529051600160a060020a03909216916318160ddd916004808201926020929091908290030181600087803b15801561081d57600080fd5b611121565b6009555b600354600a54600954600554604080517f18160ddd0000000000000000000000000000000000000000000000000000000081529051600160a060020a0395861695638ceedb479594610f429490939116916318160ddd916004808201926020929091908290030181600087803b158015610cde57600080fd5b6040518363ffffffff1660e060020a0281526004018083815260200182815260200192505050600060405180830381600087803b158015610f8257600080fd5b505af1158015610f96573d6000803e3d6000fd5b505060048054600954604080517fa2f91af20000000000000000000000000000000000000000000000000000000081529384019190915251600160a060020a03909116935063a2f91af29250602480830192600092919082900301818387803b15801561100257600080fd5b505af1158015611016573d6000803e3d6000fd5b505060048054604080517f1406b9210000000000000000000000000000000000000000000000000000000081529051600160a060020a039092169450631406b9219350808301926000929182900301818387803b15801561107657600080fd5b505af115801561108a573d6000803e3d6000fd5b5050505050565b60008115806110ae5750508082028282828115156110ab57fe5b04145b1515610a3757600080fd5b80820182811015610a3757600080fd5b6000670de0b6b3a7640000610a636110e18585611091565b6002670de0b6b3a7640000610a5d565b60006b033b2e3c9fd0803ce8000000610a6361110d8585611091565b60026b033b2e3c9fd0803ce8000000610a5d565b6000818311156111315781611133565b825b93925050505600a165627a7a72305820c5126e86d237ebb80f06dadd7a2a09f04b8e5f4ef104a62d64eabfcb9fd179ad0029",
  "source": "/// top.sol -- global settlement manager\n\n// Copyright (C) 2017  Nikolai Mushegian <nikolai@dapphub.com>\n// Copyright (C) 2017  Daniel Brockman <daniel@dapphub.com>\n// Copyright (C) 2017  Rain Break <rainbreak@riseup.net>\n\n// This program is free software: you can redistribute it and/or modify\n// it under the terms of the GNU General Public License as published by\n// the Free Software Foundation, either version 3 of the License, or\n// (at your option) any later version.\n\n// This program is distributed in the hope that it will be useful,\n// but WITHOUT ANY WARRANTY; without even the implied warranty of\n// MERCHANTABILITY or FITNESS FOR A PARTICULAR PURPOSE.  See the\n// GNU General Public License for more details.\n\n// You should have received a copy of the GNU General Public License\n// along with this program.  If not, see <http://www.gnu.org/licenses/>.\n\npragma solidity ^0.4.18;\n\nimport \"./tub.sol\";\nimport \"./tap.sol\";\n\ncontract SaiTop is DSThing {\n    SaiVox   public  vox;\n    SaiTub   public  tub;\n    SaiTap   public  tap;\n\n    DSToken  public  sai;\n    DSToken  public  sin;\n    DSToken  public  skr;\n    ERC20    public  gem;\n\n    uint256  public  fix;  // sai cage price (gem per sai)\n    uint256  public  fit;  // skr cage price (ref per skr)\n    uint256  public  caged;\n    uint256  public  cooldown = 6 hours;\n\n    function SaiTop(SaiTub tub_, SaiTap tap_) public {\n        tub = tub_;\n        tap = tap_;\n\n        vox = tub.vox();\n\n        sai = tub.sai();\n        sin = tub.sin();\n        skr = tub.skr();\n        gem = tub.gem();\n    }\n\n    function era() public view returns (uint) {\n        return block.timestamp;\n    }\n\n    // force settlement of the system at a given price (sai per gem).\n    // This is nearly the equivalent of biting all cups at once.\n    // Important consideration: the gems associated with free skr can\n    // be tapped to make sai whole.\n    function cage(uint price) internal {\n        require(!tub.off() && price != 0);\n        caged = era();\n\n        tub.drip();  // collect remaining fees\n        tap.heal();  // absorb any pending fees\n\n        fit = rmul(wmul(price, vox.par()), tub.per());\n        // Most gems we can get per sai is the full balance of the tub.\n        // If there is no sai issued, we should still be able to cage.\n        if (sai.totalSupply() == 0) {\n            fix = rdiv(WAD, price);\n        } else {\n            fix = min(rdiv(WAD, price), rdiv(tub.pie(), sai.totalSupply()));\n        }\n\n        tub.cage(fit, rmul(fix, sai.totalSupply()));\n        tap.cage(fix);\n\n        tap.vent();    // burn pending sale skr\n    }\n    // cage by reading the last value from the feed for the price\n    function cage() public note auth {\n        cage(rdiv(uint(tub.pip().read()), vox.par()));\n    }\n\n    function flow() public note {\n        require(tub.off());\n        var empty = tub.din() == 0 && tap.fog() == 0;\n        var ended = era() > caged + cooldown;\n        require(empty || ended);\n        tub.flow();\n    }\n\n    function setCooldown(uint cooldown_) public auth {\n        cooldown = cooldown_;\n    }\n}\n",
  "sourcePath": "/Users/samrichards/code/tu/etherswing/contracts/development/makerdao/sai/top.sol",
  "compiler": {
    "name": "solc",
    "version": "0.4.24+commit.e67f0147.Emscripten.clang"
  },
  "schemaVersion": "3.0.10",
  "updatedAt": "2019-08-22T14:53:45.654Z",
  "devdoc": {
    "methods": {}
  },
  "userdoc": {
    "methods": {}
  }
}