{
  "contractName": "SaiTap",
  "abi": [
    {
      "constant": true,
      "inputs": [],
      "name": "sin",
      "outputs": [
        {
          "name": "",
          "type": "address"
        }
      ],
      "payable": false,
      "stateMutability": "view",
      "type": "function"
    },
    {
      "constant": true,
      "inputs": [],
      "name": "skr",
      "outputs": [
        {
          "name": "",
          "type": "address"
        }
      ],
      "payable": false,
      "stateMutability": "view",
      "type": "function"
    },
    {
      "constant": false,
      "inputs": [
        {
          "name": "owner_",
          "type": "address"
        }
      ],
      "name": "setOwner",
      "outputs": [],
      "payable": false,
      "stateMutability": "nonpayable",
      "type": "function"
    },
    {
      "constant": true,
      "inputs": [],
      "name": "tub",
      "outputs": [
        {
          "name": "",
          "type": "address"
        }
      ],
      "payable": false,
      "stateMutability": "view",
      "type": "function"
    },
    {
      "constant": true,
      "inputs": [],
      "name": "off",
      "outputs": [
        {
          "name": "",
          "type": "bool"
        }
      ],
      "payable": false,
      "stateMutability": "view",
      "type": "function"
    },
    {
      "constant": true,
      "inputs": [],
      "name": "vox",
      "outputs": [
        {
          "name": "",
          "type": "address"
        }
      ],
      "payable": false,
      "stateMutability": "view",
      "type": "function"
    },
    {
      "constant": true,
      "inputs": [],
      "name": "gap",
      "outputs": [
        {
          "name": "",
          "type": "uint256"
        }
      ],
      "payable": false,
      "stateMutability": "view",
      "type": "function"
    },
    {
      "constant": false,
      "inputs": [
        {
          "name": "authority_",
          "type": "address"
        }
      ],
      "name": "setAuthority",
      "outputs": [],
      "payable": false,
      "stateMutability": "nonpayable",
      "type": "function"
    },
    {
      "constant": true,
      "inputs": [],
      "name": "owner",
      "outputs": [
        {
          "name": "",
          "type": "address"
        }
      ],
      "payable": false,
      "stateMutability": "view",
      "type": "function"
    },
    {
      "constant": true,
      "inputs": [],
      "name": "sai",
      "outputs": [
        {
          "name": "",
          "type": "address"
        }
      ],
      "payable": false,
      "stateMutability": "view",
      "type": "function"
    },
    {
      "constant": true,
      "inputs": [],
      "name": "fix",
      "outputs": [
        {
          "name": "",
          "type": "uint256"
        }
      ],
      "payable": false,
      "stateMutability": "view",
      "type": "function"
    },
    {
      "constant": true,
      "inputs": [],
      "name": "authority",
      "outputs": [
        {
          "name": "",
          "type": "address"
        }
      ],
      "payable": false,
      "stateMutability": "view",
      "type": "function"
    },
    {
      "inputs": [
        {
          "name": "tub_",
          "type": "address"
        }
      ],
      "payable": false,
      "stateMutability": "nonpayable",
      "type": "constructor"
    },
    {
      "anonymous": true,
      "inputs": [
        {
          "indexed": true,
          "name": "sig",
          "type": "bytes4"
        },
        {
          "indexed": true,
          "name": "guy",
          "type": "address"
        },
        {
          "indexed": true,
          "name": "foo",
          "type": "bytes32"
        },
        {
          "indexed": true,
          "name": "bar",
          "type": "bytes32"
        },
        {
          "indexed": false,
          "name": "wad",
          "type": "uint256"
        },
        {
          "indexed": false,
          "name": "fax",
          "type": "bytes"
        }
      ],
      "name": "LogNote",
      "type": "event"
    },
    {
      "anonymous": false,
      "inputs": [
        {
          "indexed": true,
          "name": "authority",
          "type": "address"
        }
      ],
      "name": "LogSetAuthority",
      "type": "event"
    },
    {
      "anonymous": false,
      "inputs": [
        {
          "indexed": true,
          "name": "owner",
          "type": "address"
        }
      ],
      "name": "LogSetOwner",
      "type": "event"
    },
    {
      "constant": true,
      "inputs": [],
      "name": "joy",
      "outputs": [
        {
          "name": "",
          "type": "uint256"
        }
      ],
      "payable": false,
      "stateMutability": "view",
      "type": "function"
    },
    {
      "constant": true,
      "inputs": [],
      "name": "woe",
      "outputs": [
        {
          "name": "",
          "type": "uint256"
        }
      ],
      "payable": false,
      "stateMutability": "view",
      "type": "function"
    },
    {
      "constant": true,
      "inputs": [],
      "name": "fog",
      "outputs": [
        {
          "name": "",
          "type": "uint256"
        }
      ],
      "payable": false,
      "stateMutability": "view",
      "type": "function"
    },
    {
      "constant": false,
      "inputs": [
        {
          "name": "param",
          "type": "bytes32"
        },
        {
          "name": "val",
          "type": "uint256"
        }
      ],
      "name": "mold",
      "outputs": [],
      "payable": false,
      "stateMutability": "nonpayable",
      "type": "function"
    },
    {
      "constant": false,
      "inputs": [],
      "name": "heal",
      "outputs": [],
      "payable": false,
      "stateMutability": "nonpayable",
      "type": "function"
    },
    {
      "constant": false,
      "inputs": [],
      "name": "s2s",
      "outputs": [
        {
          "name": "",
          "type": "uint256"
        }
      ],
      "payable": false,
      "stateMutability": "nonpayable",
      "type": "function"
    },
    {
      "constant": false,
      "inputs": [
        {
          "name": "wad",
          "type": "uint256"
        }
      ],
      "name": "bid",
      "outputs": [
        {
          "name": "",
          "type": "uint256"
        }
      ],
      "payable": false,
      "stateMutability": "nonpayable",
      "type": "function"
    },
    {
      "constant": false,
      "inputs": [
        {
          "name": "wad",
          "type": "uint256"
        }
      ],
      "name": "ask",
      "outputs": [
        {
          "name": "",
          "type": "uint256"
        }
      ],
      "payable": false,
      "stateMutability": "nonpayable",
      "type": "function"
    },
    {
      "constant": false,
      "inputs": [
        {
          "name": "wad",
          "type": "uint256"
        }
      ],
      "name": "bust",
      "outputs": [],
      "payable": false,
      "stateMutability": "nonpayable",
      "type": "function"
    },
    {
      "constant": false,
      "inputs": [
        {
          "name": "wad",
          "type": "uint256"
        }
      ],
      "name": "boom",
      "outputs": [],
      "payable": false,
      "stateMutability": "nonpayable",
      "type": "function"
    },
    {
      "constant": false,
      "inputs": [
        {
          "name": "fix_",
          "type": "uint256"
        }
      ],
      "name": "cage",
      "outputs": [],
      "payable": false,
      "stateMutability": "nonpayable",
      "type": "function"
    },
    {
      "constant": false,
      "inputs": [
        {
          "name": "wad",
          "type": "uint256"
        }
      ],
      "name": "cash",
      "outputs": [],
      "payable": false,
      "stateMutability": "nonpayable",
      "type": "function"
    },
    {
      "constant": false,
      "inputs": [
        {
          "name": "wad",
          "type": "uint256"
        }
      ],
      "name": "mock",
      "outputs": [],
      "payable": false,
      "stateMutability": "nonpayable",
      "type": "function"
    },
    {
      "constant": false,
      "inputs": [],
      "name": "vent",
      "outputs": [],
      "payable": false,
      "stateMutability": "nonpayable",
      "type": "function"
    }
  ],
  "bytecode": "0x60806040523480156200001157600080fd5b50604051602080620018c8833981016040819052905160018054600160a060020a0319163390811790915590917fce241d7ca1f669fee44b6fc00b8eba2df3bb514eed0f6f668f8f89096e81ed9490600090a260068054600160a060020a031916600160a060020a038381169190911791829055604080517f9166cba400000000000000000000000000000000000000000000000000000000815290519290911691639166cba4916004808201926020929091908290030181600087803b158015620000dc57600080fd5b505af1158015620000f1573d6000803e3d6000fd5b505050506040513d60208110156200010857600080fd5b505160028054600160a060020a031916600160a060020a03928316179055600654604080517f071bafb50000000000000000000000000000000000000000000000000000000081529051919092169163071bafb59160048083019260209291908290030181600087803b1580156200017f57600080fd5b505af115801562000194573d6000803e3d6000fd5b505050506040513d6020811015620001ab57600080fd5b505160038054600160a060020a031916600160a060020a03928316179055600654604080517f0f8a771e00000000000000000000000000000000000000000000000000000000815290519190921691630f8a771e9160048083019260209291908290030181600087803b1580156200022257600080fd5b505af115801562000237573d6000803e3d6000fd5b505050506040513d60208110156200024e57600080fd5b505160048054600160a060020a031916600160a060020a03928316178155600654604080517f67550a35000000000000000000000000000000000000000000000000000000008152905191909316926367550a3592818101926020929091908290030181600087803b158015620002c457600080fd5b505af1158015620002d9573d6000803e3d6000fd5b505050506040513d6020811015620002f057600080fd5b505160058054600160a060020a031916600160a060020a0390921691909117905550670de0b6b3a764000060075561159a806200032e6000396000f30060806040526004361061013a5763ffffffff60e060020a6000350416630434fe0b811461013f578063071bafb5146101565780630f8a771e1461018757806313af40351461019c5780631406b921146101bd57806317dc92f5146101d25780632da8d3e6146101ea57806334e70cc2146102115780633de377ec14610226578063454a2ab31461023e578063465b43d01461025657806365d1df241461026b5780636626b26d1461028057806367550a35146102a95780636c32c0a6146102be5780637296359a146102d35780637a9e5e4b146102e85780638da5cb5b146103095780639166cba41461031e57806392b0d72114610333578063a2f91af21461034e578063a551878e14610366578063af378ce51461037b578063b443a08514610393578063bf7e214f146103ab578063e47e7e66146103c0575b600080fd5b34801561014b57600080fd5b506101546103d8565b005b34801561016257600080fd5b5061016b61056d565b60408051600160a060020a039092168252519081900360200190f35b34801561019357600080fd5b5061016b61057c565b3480156101a857600080fd5b50610154600160a060020a036004351661058b565b3480156101c957600080fd5b50610154610609565b3480156101de57600080fd5b506101546004356106d9565b3480156101f657600080fd5b506101ff6108e9565b60408051918252519081900360200190f35b34801561021d57600080fd5b5061016b61097f565b34801561023257600080fd5b5061015460043561098e565b34801561024a57600080fd5b506101ff600435610b6b565b34801561026257600080fd5b506101ff610ba3565b34801561027757600080fd5b506101ff610c08565b34801561028c57600080fd5b50610295610d2e565b604080519115158252519081900360200190f35b3480156102b557600080fd5b5061016b610d37565b3480156102ca57600080fd5b506101ff610d46565b3480156102df57600080fd5b506101ff610d4c565b3480156102f457600080fd5b50610154600160a060020a0360043516610db5565b34801561031557600080fd5b5061016b610e2f565b34801561032a57600080fd5b5061016b610e3e565b34801561033f57600080fd5b50610154600435602435610e4d565b34801561035a57600080fd5b50610154600435610ef3565b34801561037257600080fd5b506101ff610f89565b34801561038757600080fd5b50610154600435610f8f565b34801561039f57600080fd5b50610154600435611016565b3480156103b757600080fd5b5061016b611080565b3480156103cc57600080fd5b506101ff60043561108f565b604080513480825260208201838152369383018490526000936004359360243593849386933393600160e060020a03198a351693928a929190606082018484808284376040519201829003965090945050505050a4610435610ba3565b158061044657506104446108e9565b155b1561045057610568565b61046861045b610ba3565b6104636108e9565b6110a8565b600254604080517f42966c68000000000000000000000000000000000000000000000000000000008152600481018490529051929550600160a060020a03909116916342966c689160248082019260009290919082900301818387803b1580156104d157600080fd5b505af11580156104e5573d6000803e3d6000fd5b5050600354604080517f42966c68000000000000000000000000000000000000000000000000000000008152600481018890529051600160a060020a0390921693506342966c68925060248082019260009290919082900301818387803b15801561054f57600080fd5b505af1158015610563573d6000803e3d6000fd5b505050505b505050565b600354600160a060020a031681565b600454600160a060020a031681565b6105a133600035600160e060020a0319166110c1565b15156105ac57600080fd5b6001805473ffffffffffffffffffffffffffffffffffffffff1916600160a060020a0383811691909117918290556040519116907fce241d7ca1f669fee44b6fc00b8eba2df3bb514eed0f6f668f8f89096e81ed9490600090a250565b60408051348082526020820183815236938301849052600435936024359384938693339360008035600160e060020a031916949092606082018484808284376040519201829003965090945050505050a460085460ff16151561066b57600080fd5b600454600160a060020a03166342966c68610684610d4c565b6040518263ffffffff1660e060020a02815260040180828152602001915050600060405180830381600087803b1580156106bd57600080fd5b505af11580156106d1573d6000803e3d6000fd5b505050505050565b60408051348082526020820183815236938301849052600435936024359384938693339360008035600160e060020a031916949092606082018484808284376040519201829003965090945050505050a460085460ff16151561073b57600080fd5b600254604080517f9dc29fac000000000000000000000000000000000000000000000000000000008152336004820152602481018690529051600160a060020a0390921691639dc29fac9160448082019260009290919082900301818387803b1580156107a757600080fd5b505af11580156107bb573d6000803e3d6000fd5b50505050600660009054906101000a9004600160a060020a0316600160a060020a0316637bd2bea76040518163ffffffff1660e060020a028152600401602060405180830381600087803b15801561081257600080fd5b505af1158015610826573d6000803e3d6000fd5b505050506040513d602081101561083c57600080fd5b5051600954600160a060020a039091169063a9059cbb9033906108609087906111c8565b6040518363ffffffff1660e060020a0281526004018083600160a060020a0316600160a060020a0316815260200182815260200192505050602060405180830381600087803b1580156108b257600080fd5b505af11580156108c6573d6000803e3d6000fd5b505050506040513d60208110156108dc57600080fd5b5051151561056857600080fd5b600354604080517f70a082310000000000000000000000000000000000000000000000000000000081523060048201529051600092600160a060020a0316916370a0823191602480830192602092919082900301818787803b15801561094e57600080fd5b505af1158015610962573d6000803e3d6000fd5b505050506040513d602081101561097857600080fd5b5051905090565b600654600160a060020a031681565b60408051348082526020820183815236938301849052600435936024359384938693339360008035600160e060020a031916949092606082018484808284376040519201829003965090945050505050a460085460ff1615156109f057600080fd5b600254604080517f40c10f19000000000000000000000000000000000000000000000000000000008152336004820152602481018690529051600160a060020a03909216916340c10f199160448082019260009290919082900301818387803b158015610a5c57600080fd5b505af1158015610a70573d6000803e3d6000fd5b50505050600660009054906101000a9004600160a060020a0316600160a060020a0316637bd2bea76040518163ffffffff1660e060020a028152600401602060405180830381600087803b158015610ac757600080fd5b505af1158015610adb573d6000803e3d6000fd5b505050506040513d6020811015610af157600080fd5b5051600954600160a060020a03909116906323b872dd9033903090610b179088906111c8565b6040805160e060020a63ffffffff8716028152600160a060020a0394851660048201529290931660248301526044820152905160648083019260209291908290030181600087803b1580156108b257600080fd5b6000610b9d82610b98610b7c610c08565b610b93670de0b6b3a764000060020260075461120b565b61121b565b6111c8565b92915050565b600254604080517f70a082310000000000000000000000000000000000000000000000000000000081523060048201529051600092600160a060020a0316916370a0823191602480830192602092919082900301818787803b15801561094e57600080fd5b6000806000600660009054906101000a9004600160a060020a0316600160a060020a03166351f910666040518163ffffffff1660e060020a028152600401602060405180830381600087803b158015610c6057600080fd5b505af1158015610c74573d6000803e3d6000fd5b505050506040513d6020811015610c8a57600080fd5b5051600554604080517f495d32cb0000000000000000000000000000000000000000000000000000000081529051929450600160a060020a039091169163495d32cb916004808201926020929091908290030181600087803b158015610cef57600080fd5b505af1158015610d03573d6000803e3d6000fd5b505050506040513d6020811015610d1957600080fd5b50519050610d278282611243565b9250505090565b60085460ff1681565b600554600160a060020a031681565b60075481565b60048054604080517f70a08231000000000000000000000000000000000000000000000000000000008152309381019390935251600092600160a060020a03909216916370a0823191602480830192602092919082900301818787803b15801561094e57600080fd5b610dcb33600035600160e060020a0319166110c1565b1515610dd657600080fd5b6000805473ffffffffffffffffffffffffffffffffffffffff1916600160a060020a03838116919091178083556040519116917f1abebea81bfa2637f28358c371278fb15ede7ea8dd28d2e03b112ff6d936ada491a250565b600154600160a060020a031681565b600254600160a060020a031681565b60408051348082526020820183815236938301849052600435936024359384938693339360008035600160e060020a031916949092606082018484808284376040519201829003965090945050505050a4610eb433600035600160e060020a0319166110c1565b1515610ebf57600080fd5b7f6761700000000000000000000000000000000000000000000000000000000000841415610eed5760078390555b50505050565b60408051348082526020820183815236938301849052600435936024359384938693339360008035600160e060020a031916949092606082018484808284376040519201829003965090945050505050a4610f5a33600035600160e060020a0319166110c1565b1515610f6557600080fd5b60085460ff1615610f7557600080fd5b50506008805460ff19166001179055600955565b60095481565b60408051348082526020820183815236938301849052600435936024359384938693339360008035600160e060020a031916949092606082018484808284376040519201829003965090945050505050a460085460ff1615610ff057600080fd5b610ff8610d4c565b83111561100d5761100883611267565b610568565b610568836112f8565b60408051348082526020820183815236938301849052600435936024359384938693339360008035600160e060020a031916949092606082018484808284376040519201829003965090945050505050a460085460ff161561107757600080fd5b61056883611421565b600054600160a060020a031681565b6000610b9d82610b986110a0610c08565b60075461121b565b6000818311156110b857816110ba565b825b9392505050565b6000600160a060020a0383163014156110dc57506001610b9d565b600154600160a060020a03848116911614156110fa57506001610b9d565b600054600160a060020a0316151561111457506000610b9d565b60008054604080517fb7009613000000000000000000000000000000000000000000000000000000008152600160a060020a038781166004830152306024830152600160e060020a0319871660448301529151919092169263b700961392606480820193602093909283900390910190829087803b15801561119557600080fd5b505af11580156111a9573d6000803e3d6000fd5b505050506040513d60208110156111bf57600080fd5b50519050610b9d565b60006b033b2e3c9fd0803ce80000006111fa6111e48585611536565b60026b033b2e3c9fd0803ce80000005b0461155e565b81151561120357fe5b049392505050565b80820382811115610b9d57600080fd5b6000670de0b6b3a76400006111fa6112338585611536565b6002670de0b6b3a76400006111f4565b6000816111fa61125f856b033b2e3c9fd0803ce8000000611536565b6002856111f4565b600454600160a060020a031663a0712d6861128983611284610d4c565b61120b565b6040518263ffffffff1660e060020a02815260040180828152602001915050600060405180830381600087803b1580156112c257600080fd5b505af11580156112d6573d6000803e3d6000fd5b505050506112e3816112f8565b6112eb610ba3565b156112f557600080fd5b50565b60006113038261108f565b1161130d57600080fd5b60048054604080517fb753a98c00000000000000000000000000000000000000000000000000000000815233938101939093526024830184905251600160a060020a039091169163b753a98c91604480830192600092919082900301818387803b15801561137a57600080fd5b505af115801561138e573d6000803e3d6000fd5b5050600254600160a060020a0316915063f2d5d56b9050336113af8461108f565b6040518363ffffffff1660e060020a0281526004018083600160a060020a0316600160a060020a0316815260200182815260200192505050600060405180830381600087803b15801561140157600080fd5b505af1158015611415573d6000803e3d6000fd5b505050506112f56103d8565b6114296103d8565b600254600160a060020a031663b753a98c3361144484610b6b565b6040518363ffffffff1660e060020a0281526004018083600160a060020a0316600160a060020a0316815260200182815260200192505050600060405180830381600087803b15801561149657600080fd5b505af11580156114aa573d6000803e3d6000fd5b505060048054604080517f9dc29fac00000000000000000000000000000000000000000000000000000000815233938101939093526024830186905251600160a060020a039091169350639dc29fac9250604480830192600092919082900301818387803b15801561151b57600080fd5b505af115801561152f573d6000803e3d6000fd5b5050505050565b600081158061155357505080820282828281151561155057fe5b04145b1515610b9d57600080fd5b80820182811015610b9d57600080fd00a165627a7a72305820591cc1db371b18bcf5fd8b73eaa8518890ca87297e7959274313566eeaed87fe0029",
  "source": "/// tap.sol -- liquidation engine (see also `vow`)\n\n// Copyright (C) 2017  Nikolai Mushegian <nikolai@dapphub.com>\n// Copyright (C) 2017  Daniel Brockman <daniel@dapphub.com>\n// Copyright (C) 2017  Rain Break <rainbreak@riseup.net>\n\n// This program is free software: you can redistribute it and/or modify\n// it under the terms of the GNU General Public License as published by\n// the Free Software Foundation, either version 3 of the License, or\n// (at your option) any later version.\n\n// This program is distributed in the hope that it will be useful,\n// but WITHOUT ANY WARRANTY; without even the implied warranty of\n// MERCHANTABILITY or FITNESS FOR A PARTICULAR PURPOSE.  See the\n// GNU General Public License for more details.\n\n// You should have received a copy of the GNU General Public License\n// along with this program.  If not, see <http://www.gnu.org/licenses/>.\n\npragma solidity ^0.4.18;\n\nimport \"./tub.sol\";\n\ncontract SaiTap is DSThing {\n    DSToken  public  sai;\n    DSToken  public  sin;\n    DSToken  public  skr;\n\n    SaiVox   public  vox;\n    SaiTub   public  tub;\n\n    uint256  public  gap;  // Boom-Bust Spread\n    bool     public  off;  // Cage flag\n    uint256  public  fix;  // Cage price\n\n    // Surplus\n    function joy() public view returns (uint) {\n        return sai.balanceOf(this);\n    }\n    // Bad debt\n    function woe() public view returns (uint) {\n        return sin.balanceOf(this);\n    }\n    // Collateral pending liquidation\n    function fog() public view returns (uint) {\n        return skr.balanceOf(this);\n    }\n\n\n    function SaiTap(SaiTub tub_) public {\n        tub = tub_;\n\n        sai = tub.sai();\n        sin = tub.sin();\n        skr = tub.skr();\n\n        vox = tub.vox();\n\n        gap = WAD;\n    }\n\n    function mold(bytes32 param, uint val) public note auth {\n        if (param == 'gap') gap = val;\n    }\n\n    // Cancel debt\n    function heal() public note {\n        if (joy() == 0 || woe() == 0) return;  // optimised\n        var wad = min(joy(), woe());\n        sai.burn(wad);\n        sin.burn(wad);\n    }\n\n    // Feed price (sai per skr)\n    function s2s() public returns (uint) {\n        var tag = tub.tag();    // ref per skr\n        var par = vox.par();    // ref per sai\n        return rdiv(tag, par);  // sai per skr\n    }\n    // Boom price (sai per skr)\n    function bid(uint wad) public returns (uint) {\n        return rmul(wad, wmul(s2s(), sub(2 * WAD, gap)));\n    }\n    // Bust price (sai per skr)\n    function ask(uint wad) public returns (uint) {\n        return rmul(wad, wmul(s2s(), gap));\n    }\n    function flip(uint wad) internal {\n        require(ask(wad) > 0);\n        skr.push(msg.sender, wad);\n        sai.pull(msg.sender, ask(wad));\n        heal();\n    }\n    function flop(uint wad) internal {\n        skr.mint(sub(wad, fog()));\n        flip(wad);\n        require(joy() == 0);  // can't flop into surplus\n    }\n    function flap(uint wad) internal {\n        heal();\n        sai.push(msg.sender, bid(wad));\n        skr.burn(msg.sender, wad);\n    }\n    function bust(uint wad) public note {\n        require(!off);\n        if (wad > fog()) flop(wad);\n        else flip(wad);\n    }\n    function boom(uint wad) public note {\n        require(!off);\n        flap(wad);\n    }\n\n    //------------------------------------------------------------------\n\n    function cage(uint fix_) public note auth {\n        require(!off);\n        off = true;\n        fix = fix_;\n    }\n    function cash(uint wad) public note {\n        require(off);\n        sai.burn(msg.sender, wad);\n        require(tub.gem().transfer(msg.sender, rmul(wad, fix)));\n    }\n    function mock(uint wad) public note {\n        require(off);\n        sai.mint(msg.sender, wad);\n        require(tub.gem().transferFrom(msg.sender, this, rmul(wad, fix)));\n    }\n    function vent() public note {\n        require(off);\n        skr.burn(fog());\n    }\n}\n",
  "sourcePath": "/Users/samrichards/code/tu/etherswing/contracts/development/makerdao/sai/tap.sol",
  "compiler": {
    "name": "solc",
    "version": "0.4.24+commit.e67f0147.Emscripten.clang"
  },
  "schemaVersion": "3.0.10",
  "updatedAt": "2019-08-22T14:53:45.649Z",
  "devdoc": {
    "methods": {}
  },
  "userdoc": {
    "methods": {}
  }
}