{
  "contractName": "SaiTub",
  "abi": [
    {
      "constant": true,
      "inputs": [],
      "name": "sin",
      "outputs": [
        {
          "name": "",
          "type": "address"
        }
      ],
      "payable": false,
      "stateMutability": "view",
      "type": "function"
    },
    {
      "constant": true,
      "inputs": [],
      "name": "skr",
      "outputs": [
        {
          "name": "",
          "type": "address"
        }
      ],
      "payable": false,
      "stateMutability": "view",
      "type": "function"
    },
    {
      "constant": true,
      "inputs": [],
      "name": "gov",
      "outputs": [
        {
          "name": "",
          "type": "address"
        }
      ],
      "payable": false,
      "stateMutability": "view",
      "type": "function"
    },
    {
      "constant": false,
      "inputs": [
        {
          "name": "owner_",
          "type": "address"
        }
      ],
      "name": "setOwner",
      "outputs": [],
      "payable": false,
      "stateMutability": "nonpayable",
      "type": "function"
    },
    {
      "constant": true,
      "inputs": [],
      "name": "rho",
      "outputs": [
        {
          "name": "",
          "type": "uint256"
        }
      ],
      "payable": false,
      "stateMutability": "view",
      "type": "function"
    },
    {
      "constant": true,
      "inputs": [],
      "name": "cap",
      "outputs": [
        {
          "name": "",
          "type": "uint256"
        }
      ],
      "payable": false,
      "stateMutability": "view",
      "type": "function"
    },
    {
      "constant": true,
      "inputs": [],
      "name": "cupi",
      "outputs": [
        {
          "name": "",
          "type": "uint256"
        }
      ],
      "payable": false,
      "stateMutability": "view",
      "type": "function"
    },
    {
      "constant": true,
      "inputs": [],
      "name": "axe",
      "outputs": [
        {
          "name": "",
          "type": "uint256"
        }
      ],
      "payable": false,
      "stateMutability": "view",
      "type": "function"
    },
    {
      "constant": true,
      "inputs": [],
      "name": "off",
      "outputs": [
        {
          "name": "",
          "type": "bool"
        }
      ],
      "payable": false,
      "stateMutability": "view",
      "type": "function"
    },
    {
      "constant": true,
      "inputs": [],
      "name": "vox",
      "outputs": [
        {
          "name": "",
          "type": "address"
        }
      ],
      "payable": false,
      "stateMutability": "view",
      "type": "function"
    },
    {
      "constant": true,
      "inputs": [],
      "name": "gap",
      "outputs": [
        {
          "name": "",
          "type": "uint256"
        }
      ],
      "payable": false,
      "stateMutability": "view",
      "type": "function"
    },
    {
      "constant": false,
      "inputs": [
        {
          "name": "authority_",
          "type": "address"
        }
      ],
      "name": "setAuthority",
      "outputs": [],
      "payable": false,
      "stateMutability": "nonpayable",
      "type": "function"
    },
    {
      "constant": true,
      "inputs": [],
      "name": "gem",
      "outputs": [
        {
          "name": "",
          "type": "address"
        }
      ],
      "payable": false,
      "stateMutability": "view",
      "type": "function"
    },
    {
      "constant": true,
      "inputs": [],
      "name": "rum",
      "outputs": [
        {
          "name": "",
          "type": "uint256"
        }
      ],
      "payable": false,
      "stateMutability": "view",
      "type": "function"
    },
    {
      "constant": true,
      "inputs": [],
      "name": "owner",
      "outputs": [
        {
          "name": "",
          "type": "address"
        }
      ],
      "payable": false,
      "stateMutability": "view",
      "type": "function"
    },
    {
      "constant": true,
      "inputs": [],
      "name": "sai",
      "outputs": [
        {
          "name": "",
          "type": "address"
        }
      ],
      "payable": false,
      "stateMutability": "view",
      "type": "function"
    },
    {
      "constant": true,
      "inputs": [],
      "name": "tax",
      "outputs": [
        {
          "name": "",
          "type": "uint256"
        }
      ],
      "payable": false,
      "stateMutability": "view",
      "type": "function"
    },
    {
      "constant": true,
      "inputs": [],
      "name": "mat",
      "outputs": [
        {
          "name": "",
          "type": "uint256"
        }
      ],
      "payable": false,
      "stateMutability": "view",
      "type": "function"
    },
    {
      "constant": true,
      "inputs": [],
      "name": "pep",
      "outputs": [
        {
          "name": "",
          "type": "address"
        }
      ],
      "payable": false,
      "stateMutability": "view",
      "type": "function"
    },
    {
      "constant": true,
      "inputs": [],
      "name": "out",
      "outputs": [
        {
          "name": "",
          "type": "bool"
        }
      ],
      "payable": false,
      "stateMutability": "view",
      "type": "function"
    },
    {
      "constant": true,
      "inputs": [],
      "name": "authority",
      "outputs": [
        {
          "name": "",
          "type": "address"
        }
      ],
      "payable": false,
      "stateMutability": "view",
      "type": "function"
    },
    {
      "constant": true,
      "inputs": [],
      "name": "fit",
      "outputs": [
        {
          "name": "",
          "type": "uint256"
        }
      ],
      "payable": false,
      "stateMutability": "view",
      "type": "function"
    },
    {
      "constant": true,
      "inputs": [],
      "name": "pip",
      "outputs": [
        {
          "name": "",
          "type": "address"
        }
      ],
      "payable": false,
      "stateMutability": "view",
      "type": "function"
    },
    {
      "constant": true,
      "inputs": [],
      "name": "fee",
      "outputs": [
        {
          "name": "",
          "type": "uint256"
        }
      ],
      "payable": false,
      "stateMutability": "view",
      "type": "function"
    },
    {
      "constant": true,
      "inputs": [],
      "name": "pit",
      "outputs": [
        {
          "name": "",
          "type": "address"
        }
      ],
      "payable": false,
      "stateMutability": "view",
      "type": "function"
    },
    {
      "constant": true,
      "inputs": [],
      "name": "tap",
      "outputs": [
        {
          "name": "",
          "type": "address"
        }
      ],
      "payable": false,
      "stateMutability": "view",
      "type": "function"
    },
    {
      "constant": true,
      "inputs": [
        {
          "name": "",
          "type": "bytes32"
        }
      ],
      "name": "cups",
      "outputs": [
        {
          "name": "lad",
          "type": "address"
        },
        {
          "name": "ink",
          "type": "uint256"
        },
        {
          "name": "art",
          "type": "uint256"
        },
        {
          "name": "ire",
          "type": "uint256"
        }
      ],
      "payable": false,
      "stateMutability": "view",
      "type": "function"
    },
    {
      "inputs": [
        {
          "name": "sai_",
          "type": "address"
        },
        {
          "name": "sin_",
          "type": "address"
        },
        {
          "name": "skr_",
          "type": "address"
        },
        {
          "name": "gem_",
          "type": "address"
        },
        {
          "name": "gov_",
          "type": "address"
        },
        {
          "name": "pip_",
          "type": "address"
        },
        {
          "name": "pep_",
          "type": "address"
        },
        {
          "name": "vox_",
          "type": "address"
        },
        {
          "name": "pit_",
          "type": "address"
        }
      ],
      "payable": false,
      "stateMutability": "nonpayable",
      "type": "constructor"
    },
    {
      "anonymous": false,
      "inputs": [
        {
          "indexed": true,
          "name": "lad",
          "type": "address"
        },
        {
          "indexed": false,
          "name": "cup",
          "type": "bytes32"
        }
      ],
      "name": "LogNewCup",
      "type": "event"
    },
    {
      "anonymous": true,
      "inputs": [
        {
          "indexed": true,
          "name": "sig",
          "type": "bytes4"
        },
        {
          "indexed": true,
          "name": "guy",
          "type": "address"
        },
        {
          "indexed": true,
          "name": "foo",
          "type": "bytes32"
        },
        {
          "indexed": true,
          "name": "bar",
          "type": "bytes32"
        },
        {
          "indexed": false,
          "name": "wad",
          "type": "uint256"
        },
        {
          "indexed": false,
          "name": "fax",
          "type": "bytes"
        }
      ],
      "name": "LogNote",
      "type": "event"
    },
    {
      "anonymous": false,
      "inputs": [
        {
          "indexed": true,
          "name": "authority",
          "type": "address"
        }
      ],
      "name": "LogSetAuthority",
      "type": "event"
    },
    {
      "anonymous": false,
      "inputs": [
        {
          "indexed": true,
          "name": "owner",
          "type": "address"
        }
      ],
      "name": "LogSetOwner",
      "type": "event"
    },
    {
      "constant": true,
      "inputs": [
        {
          "name": "cup",
          "type": "bytes32"
        }
      ],
      "name": "lad",
      "outputs": [
        {
          "name": "",
          "type": "address"
        }
      ],
      "payable": false,
      "stateMutability": "view",
      "type": "function"
    },
    {
      "constant": true,
      "inputs": [
        {
          "name": "cup",
          "type": "bytes32"
        }
      ],
      "name": "ink",
      "outputs": [
        {
          "name": "",
          "type": "uint256"
        }
      ],
      "payable": false,
      "stateMutability": "view",
      "type": "function"
    },
    {
      "constant": false,
      "inputs": [
        {
          "name": "cup",
          "type": "bytes32"
        }
      ],
      "name": "tab",
      "outputs": [
        {
          "name": "",
          "type": "uint256"
        }
      ],
      "payable": false,
      "stateMutability": "nonpayable",
      "type": "function"
    },
    {
      "constant": false,
      "inputs": [
        {
          "name": "cup",
          "type": "bytes32"
        }
      ],
      "name": "rap",
      "outputs": [
        {
          "name": "",
          "type": "uint256"
        }
      ],
      "payable": false,
      "stateMutability": "nonpayable",
      "type": "function"
    },
    {
      "constant": false,
      "inputs": [],
      "name": "din",
      "outputs": [
        {
          "name": "",
          "type": "uint256"
        }
      ],
      "payable": false,
      "stateMutability": "nonpayable",
      "type": "function"
    },
    {
      "constant": true,
      "inputs": [],
      "name": "air",
      "outputs": [
        {
          "name": "",
          "type": "uint256"
        }
      ],
      "payable": false,
      "stateMutability": "view",
      "type": "function"
    },
    {
      "constant": true,
      "inputs": [],
      "name": "pie",
      "outputs": [
        {
          "name": "",
          "type": "uint256"
        }
      ],
      "payable": false,
      "stateMutability": "view",
      "type": "function"
    },
    {
      "constant": true,
      "inputs": [],
      "name": "era",
      "outputs": [
        {
          "name": "",
          "type": "uint256"
        }
      ],
      "payable": false,
      "stateMutability": "view",
      "type": "function"
    },
    {
      "constant": false,
      "inputs": [
        {
          "name": "param",
          "type": "bytes32"
        },
        {
          "name": "val",
          "type": "uint256"
        }
      ],
      "name": "mold",
      "outputs": [],
      "payable": false,
      "stateMutability": "nonpayable",
      "type": "function"
    },
    {
      "constant": false,
      "inputs": [
        {
          "name": "pip_",
          "type": "address"
        }
      ],
      "name": "setPip",
      "outputs": [],
      "payable": false,
      "stateMutability": "nonpayable",
      "type": "function"
    },
    {
      "constant": false,
      "inputs": [
        {
          "name": "pep_",
          "type": "address"
        }
      ],
      "name": "setPep",
      "outputs": [],
      "payable": false,
      "stateMutability": "nonpayable",
      "type": "function"
    },
    {
      "constant": false,
      "inputs": [
        {
          "name": "vox_",
          "type": "address"
        }
      ],
      "name": "setVox",
      "outputs": [],
      "payable": false,
      "stateMutability": "nonpayable",
      "type": "function"
    },
    {
      "constant": false,
      "inputs": [
        {
          "name": "tap_",
          "type": "address"
        }
      ],
      "name": "turn",
      "outputs": [],
      "payable": false,
      "stateMutability": "nonpayable",
      "type": "function"
    },
    {
      "constant": true,
      "inputs": [],
      "name": "per",
      "outputs": [
        {
          "name": "ray",
          "type": "uint256"
        }
      ],
      "payable": false,
      "stateMutability": "view",
      "type": "function"
    },
    {
      "constant": true,
      "inputs": [
        {
          "name": "wad",
          "type": "uint256"
        }
      ],
      "name": "ask",
      "outputs": [
        {
          "name": "",
          "type": "uint256"
        }
      ],
      "payable": false,
      "stateMutability": "view",
      "type": "function"
    },
    {
      "constant": true,
      "inputs": [
        {
          "name": "wad",
          "type": "uint256"
        }
      ],
      "name": "bid",
      "outputs": [
        {
          "name": "",
          "type": "uint256"
        }
      ],
      "payable": false,
      "stateMutability": "view",
      "type": "function"
    },
    {
      "constant": false,
      "inputs": [
        {
          "name": "wad",
          "type": "uint256"
        }
      ],
      "name": "join",
      "outputs": [],
      "payable": false,
      "stateMutability": "nonpayable",
      "type": "function"
    },
    {
      "constant": false,
      "inputs": [
        {
          "name": "wad",
          "type": "uint256"
        }
      ],
      "name": "exit",
      "outputs": [],
      "payable": false,
      "stateMutability": "nonpayable",
      "type": "function"
    },
    {
      "constant": false,
      "inputs": [],
      "name": "chi",
      "outputs": [
        {
          "name": "",
          "type": "uint256"
        }
      ],
      "payable": false,
      "stateMutability": "nonpayable",
      "type": "function"
    },
    {
      "constant": false,
      "inputs": [],
      "name": "rhi",
      "outputs": [
        {
          "name": "",
          "type": "uint256"
        }
      ],
      "payable": false,
      "stateMutability": "nonpayable",
      "type": "function"
    },
    {
      "constant": false,
      "inputs": [],
      "name": "drip",
      "outputs": [],
      "payable": false,
      "stateMutability": "nonpayable",
      "type": "function"
    },
    {
      "constant": true,
      "inputs": [],
      "name": "tag",
      "outputs": [
        {
          "name": "wad",
          "type": "uint256"
        }
      ],
      "payable": false,
      "stateMutability": "view",
      "type": "function"
    },
    {
      "constant": false,
      "inputs": [
        {
          "name": "cup",
          "type": "bytes32"
        }
      ],
      "name": "safe",
      "outputs": [
        {
          "name": "",
          "type": "bool"
        }
      ],
      "payable": false,
      "stateMutability": "nonpayable",
      "type": "function"
    },
    {
      "constant": false,
      "inputs": [],
      "name": "open",
      "outputs": [
        {
          "name": "cup",
          "type": "bytes32"
        }
      ],
      "payable": false,
      "stateMutability": "nonpayable",
      "type": "function"
    },
    {
      "constant": false,
      "inputs": [
        {
          "name": "cup",
          "type": "bytes32"
        },
        {
          "name": "guy",
          "type": "address"
        }
      ],
      "name": "give",
      "outputs": [],
      "payable": false,
      "stateMutability": "nonpayable",
      "type": "function"
    },
    {
      "constant": false,
      "inputs": [
        {
          "name": "cup",
          "type": "bytes32"
        },
        {
          "name": "wad",
          "type": "uint256"
        }
      ],
      "name": "lock",
      "outputs": [],
      "payable": false,
      "stateMutability": "nonpayable",
      "type": "function"
    },
    {
      "constant": false,
      "inputs": [
        {
          "name": "cup",
          "type": "bytes32"
        },
        {
          "name": "wad",
          "type": "uint256"
        }
      ],
      "name": "free",
      "outputs": [],
      "payable": false,
      "stateMutability": "nonpayable",
      "type": "function"
    },
    {
      "constant": false,
      "inputs": [
        {
          "name": "cup",
          "type": "bytes32"
        },
        {
          "name": "wad",
          "type": "uint256"
        }
      ],
      "name": "draw",
      "outputs": [],
      "payable": false,
      "stateMutability": "nonpayable",
      "type": "function"
    },
    {
      "constant": false,
      "inputs": [
        {
          "name": "cup",
          "type": "bytes32"
        },
        {
          "name": "wad",
          "type": "uint256"
        }
      ],
      "name": "wipe",
      "outputs": [],
      "payable": false,
      "stateMutability": "nonpayable",
      "type": "function"
    },
    {
      "constant": false,
      "inputs": [
        {
          "name": "cup",
          "type": "bytes32"
        }
      ],
      "name": "shut",
      "outputs": [],
      "payable": false,
      "stateMutability": "nonpayable",
      "type": "function"
    },
    {
      "constant": false,
      "inputs": [
        {
          "name": "cup",
          "type": "bytes32"
        }
      ],
      "name": "bite",
      "outputs": [],
      "payable": false,
      "stateMutability": "nonpayable",
      "type": "function"
    },
    {
      "constant": false,
      "inputs": [
        {
          "name": "fit_",
          "type": "uint256"
        },
        {
          "name": "jam",
          "type": "uint256"
        }
      ],
      "name": "cage",
      "outputs": [],
      "payable": false,
      "stateMutability": "nonpayable",
      "type": "function"
    },
    {
      "constant": false,
      "inputs": [],
      "name": "flow",
      "outputs": [],
      "payable": false,
      "stateMutability": "nonpayable",
      "type": "function"
    }
  ],
  "bytecode": "0x608060405234801561001057600080fd5b506040516101208062002c3583398101604081815282516020840151918401516060850151608086015160a087015160c088015160e08901516101009099015160018054600160a060020a03191633908117909155969997989597949693959294919391929091907fce241d7ca1f669fee44b6fc00b8eba2df3bb514eed0f6f668f8f89096e81ed9490600090a260058054600160a060020a0319908116600160a060020a03898116919091179092556004805482168a84161790556002805482168c84161790556003805482168b8416179055600680548216888416179055600b80548216848416179055600880548216878416179055600980548216868416179055600780549091169184169190911790556b033b2e3c9fd0803ce8000000600c819055600e819055600f8190556010819055670de0b6b3a7640000601155601581905560165561016a64010000000061017c810204565b60145550610180975050505050505050565b4290565b612aa580620001906000396000f3006080604052600436106102b05763ffffffff60e060020a600035041663049878f381146102b5578063071bafb5146102cf5780630f8a771e1461030057806312d43a511461031557806313af40351461032a578063143e55e01461034b5780631f3634ed1461037257806320aba08b1461038a57806327e7e21e1461039f578063338a0261146103b4578063343aad82146103c9578063355274ea146103de57806340cc8854146103f3578063440f19ba1461040b578063454a2ab314610426578063499554311461043e578063509bf2bf1461045357806351f91066146104685780636626b26d1461047d57806367550a35146104a65780636c32c0a6146104bb5780636f78ee0d146104d057806373b38101146104e85780637a9e5e4b146105035780637bd2bea7146105245780637e74325f146105395780637ec9c3b81461055a5780637f8661a11461056f57806382bf9a75146105875780638a95a746146105a85780638ceedb47146105bd5780638cf0c191146105d85780638da5cb5b146105ed5780639166cba41461060257806392b0d7211461061757806399c8d556146106325780639f678cca14610647578063a5cd184e1461065c578063ab0783da14610677578063ace237f51461068c578063b2a1449b146106a1578063b3b77a51146106b6578063b84d2106146106d1578063baa8529c146106e9578063bf7e214f1461070d578063c8e13bb414610722578063c92aecc414610737578063cf48d1a61461074c578063d741e2f91461076d578063d9c27cc614610782578063ddca3f43146107a3578063de5f5517146107b8578063e0ae96e9146107d0578063e47e7e66146107e5578063e95823ad146107fd578063f03c7c6e14610815578063f7c8d6341461082a578063fcfff16f14610842578063fd22103114610857578063fdac00251461086c575b600080fd5b3480156102c157600080fd5b506102cd6004356108b4565b005b3480156102db57600080fd5b506102e4610a5b565b60408051600160a060020a039092168252519081900360200190f35b34801561030c57600080fd5b506102e4610a6a565b34801561032157600080fd5b506102e4610a79565b34801561033657600080fd5b506102cd600160a060020a0360043516610a88565b34801561035757600080fd5b50610360610af9565b60408051918252519081900360200190f35b34801561037e57600080fd5b50610360600435610afd565b34801561039657600080fd5b50610360610b12565b3480156103ab57600080fd5b50610360610b18565b3480156103c057600080fd5b50610360610bb2565b3480156103d557600080fd5b506102cd610bc3565b3480156103ea57600080fd5b50610360610c59565b3480156103ff57600080fd5b506102cd600435610c5f565b34801561041757600080fd5b506102cd600435602435610f42565b34801561043257600080fd5b5061036060043561118f565b34801561044a57600080fd5b506103606111c7565b34801561045f57600080fd5b506103606111cd565b34801561047457600080fd5b506103606111d3565b34801561048957600080fd5b5061049261127d565b604080519115158252519081900360200190f35b3480156104b257600080fd5b506102e4611286565b3480156104c757600080fd5b50610360611295565b3480156104dc57600080fd5b5061036060043561129b565b3480156104f457600080fd5b506102cd6004356024356112cb565b34801561050f57600080fd5b506102cd600160a060020a0360043516611596565b34801561053057600080fd5b506102e4611603565b34801561054557600080fd5b506102cd600160a060020a0360043516611612565b34801561056657600080fd5b506103606116b2565b34801561057b57600080fd5b506102cd6004356117e2565b34801561059357600080fd5b506102cd600160a060020a0360043516611968565b3480156105b457600080fd5b506103606119fe565b3480156105c957600080fd5b506102cd600435602435611a63565b3480156105e457600080fd5b50610360611bc9565b3480156105f957600080fd5b506102e4611bcf565b34801561060e57600080fd5b506102e4611bde565b34801561062357600080fd5b506102cd600435602435611bed565b34801561063e57600080fd5b50610360611e19565b34801561065357600080fd5b506102cd611e1f565b34801561066857600080fd5b506102cd600435602435611fd7565b34801561068357600080fd5b50610360612153565b34801561069857600080fd5b506102e4612159565b3480156106ad57600080fd5b50610492612168565b3480156106c257600080fd5b506102cd600435602435612176565b3480156106dd57600080fd5b506102cd6004356122c9565b3480156106f557600080fd5b506102cd600435600160a060020a03602435166123bf565b34801561071957600080fd5b506102e4612478565b34801561072e57600080fd5b50610360612487565b34801561074357600080fd5b5061036061248d565b34801561075857600080fd5b506102cd600160a060020a036004351661249e565b34801561077957600080fd5b506102e4612534565b34801561078e57600080fd5b506102cd600160a060020a0360043516612543565b3480156107af57600080fd5b506103606125d9565b3480156107c457600080fd5b506102e46004356125df565b3480156107dc57600080fd5b506103606125fa565b3480156107f157600080fd5b5061036060043561260a565b34801561080957600080fd5b50610492600435612623565b34801561082157600080fd5b506102e46126e4565b34801561083657600080fd5b506103606004356126f3565b34801561084e57600080fd5b50610360612711565b34801561086357600080fd5b506102e46127e7565b34801561087857600080fd5b506108846004356127f6565b60408051600160a060020a0390951685526020850193909352838301919091526060830152519081900360800190f35b60408051348082526020820183815236938301849052600435936024359384938693339360008035600160e060020a031916949092606082018484808284376040519201829003965090945050505050a460125460ff161561091557600080fd5b60006109208461260a565b1161092a57600080fd5b600554600160a060020a03166323b872dd33306109468761260a565b6040805160e060020a63ffffffff8716028152600160a060020a0394851660048201529290931660248301526044820152905160648083019260209291908290030181600087803b15801561099a57600080fd5b505af11580156109ae573d6000803e3d6000fd5b505050506040513d60208110156109c457600080fd5b505115156109d157600080fd5b60048054604080517f40c10f1900000000000000000000000000000000000000000000000000000000815233938101939093526024830186905251600160a060020a03909116916340c10f1991604480830192600092919082900301818387803b158015610a3e57600080fd5b505af1158015610a52573d6000803e3d6000fd5b50505050505050565b600354600160a060020a031681565b600454600160a060020a031681565b600654600160a060020a031681565b610a9e33600035600160e060020a031916612827565b1515610aa957600080fd5b60018054600160a060020a031916600160a060020a0383811691909117918290556040519116907fce241d7ca1f669fee44b6fc00b8eba2df3bb514eed0f6f668f8f89096e81ed9490600090a250565b4290565b60009081526019602052604090206001015490565b60145481565b60048054604080517f70a08231000000000000000000000000000000000000000000000000000000008152309381019390935251600092600160a060020a03909216916370a0823191602480830192602092919082900301818787803b158015610b8157600080fd5b505af1158015610b95573d6000803e3d6000fd5b505050506040513d6020811015610bab57600080fd5b5051905090565b6000610bbc611e1f565b5060165490565b60408051348082526020820183815236938301849052600435936024359384938693339360008035600160e060020a031916949092606082018484808284376040519201829003965090945050505050a4610c2a33600035600160e060020a031916612827565b1515610c3557600080fd5b60125460ff161515610c4657600080fd5b50506012805461ff001916610100179055565b600d5481565b6040805134808252602082018381523693830184905260009384936004359360243593849386933393600160e060020a03198a35169390928a929091606082018484808284376040519201829003965090945050505050a4610cc085612623565b1580610cce575060125460ff165b1515610cd957600080fd5b610ce2856126f3565b600354600a54604080517f40c10f19000000000000000000000000000000000000000000000000000000008152600160a060020a0392831660048201526024810185905290519397509116916340c10f199160448082019260009290919082900301818387803b158015610d5557600080fd5b505af1158015610d69573d6000803e3d6000fd5b5050601754600088815260196020526040902060020154610d8d935090915061292e565b60175560008581526019602052604081206002810182905560030155600c54610e5090610e4390610dbf90879061293e565b600760009054906101000a9004600160a060020a0316600160a060020a031663495d32cb6040518163ffffffff1660e060020a028152600401602060405180830381600087803b158015610e1257600080fd5b505af1158015610e26573d6000803e3d6000fd5b505050506040513d6020811015610e3c57600080fd5b505161293e565b610e4b6111d3565b612981565b600086815260196020526040902060010154909350831115610e815760008581526019602052604090206001015492505b60048054600a54604080517fb753a98c000000000000000000000000000000000000000000000000000000008152600160a060020a0392831694810194909452602484018790525191169163b753a98c91604480830192600092919082900301818387803b158015610ef257600080fd5b505af1158015610f06573d6000803e3d6000fd5b505050600086815260196020526040902060010154610f2691508461292e565b6000958652601960205260409095206001019490945550505050565b60408051348082526020820183815236938301849052600435936024359384938693339360008035600160e060020a031916949092606082018484808284376040519201829003965090945050505050a460125460ff1615610fa357600080fd5b600084815260196020526040902054600160a060020a03163314610fc657600080fd5b6000610fd484610e4b61248d565b11610fde57600080fd5b6000848152601960205260409020600201546110059061100085610e4b61248d565b6129a5565b60008581526019602052604090206002015560175461102a9061100085610e4b61248d565b60175560008481526019602052604090206003015461104f9061100085610e4b610bb2565b6000858152601960205260408082206003810193909355600254925481517f40c10f19000000000000000000000000000000000000000000000000000000008152600160a060020a0391821660048201526024810188905291519316926340c10f199260448084019391929182900301818387803b1580156110d057600080fd5b505af11580156110e4573d6000803e3d6000fd5b505050506110f184612623565b15156110fc57600080fd5b600d54600260009054906101000a9004600160a060020a0316600160a060020a03166318160ddd6040518163ffffffff1660e060020a028152600401602060405180830381600087803b15801561115257600080fd5b505af1158015611166573d6000803e3d6000fd5b505050506040513d602081101561117c57600080fd5b5051111561118957600080fd5b50505050565b60006111c1826111bc6111a06116b2565b6111b7670de0b6b3a764000060020260115461292e565b6129b5565b61293e565b92915050565b60185481565b600c5481565b60125460009060ff166112745761126f6111eb6116b2565b600860009054906101000a9004600160a060020a0316600160a060020a03166357de26a46040518163ffffffff1660e060020a028152600401602060405180830381600087803b15801561123e57600080fd5b505af1158015611252573d6000803e3d6000fd5b505050506040513d602081101561126857600080fd5b50516129b5565b611278565b6013545b905090565b60125460ff1681565b600754600160a060020a031681565b60115481565b6000818152601960205260408120600301546111c1906112bd906111bc610bb2565b6112c6846126f3565b61292e565b60408051348082526020820183815236938301849052600093849384936004359360243593849386933393600160e060020a03198a35169391928a9291606082018484808284376040519201829003965090945050505050a460125460ff161561133457600080fd5b61134d866111bc6113448a61129b565b610e4b8b6126f3565b600088815260196020526040902060020154909550611372906112c688610e4b61248d565b600088815260196020526040902060020155601754611397906112c688610e4b61248d565b6017556000878152601960205260409020600301546113c5906112c66113bd89896129a5565b610e4b610bb2565b6000888152601960205260408082206003019290925560025482517f9dc29fac000000000000000000000000000000000000000000000000000000008152336004820152602481018a90529251600160a060020a0390911692639dc29fac92604480830193919282900301818387803b15801561144157600080fd5b505af1158015611455573d6000803e3d6000fd5b5050600954604080517f59e02dd70000000000000000000000000000000000000000000000000000000081528151600160a060020a0390931694506359e02dd79350600480820193918290030181600087803b1580156114b457600080fd5b505af11580156114c8573d6000803e3d6000fd5b505050506040513d60408110156114de57600080fd5b50805160209091015190945092508280156114f857508315155b15610a5257600654600b54600160a060020a039182169163bb35783b9133911661152289896129dd565b6040805160e060020a63ffffffff8716028152600160a060020a03948516600482015292909316602483015260448201529051606480830192600092919082900301818387803b15801561157557600080fd5b505af1158015611589573d6000803e3d6000fd5b5050505050505050505050565b6115ac33600035600160e060020a031916612827565b15156115b757600080fd5b60008054600160a060020a031916600160a060020a03838116919091178083556040519116917f1abebea81bfa2637f28358c371278fb15ede7ea8dd28d2e03b112ff6d936ada491a250565b600554600160a060020a031681565b60408051348082526020820183815236938301849052600435936024359384938693339360008035600160e060020a031916949092606082018484808284376040519201829003965090945050505050a4600a54600160a060020a03161561167957600080fd5b600160a060020a038316151561168e57600080fd5b5050600a8054600160a060020a031916600160a060020a0392909216919091179055565b6000600460009054906101000a9004600160a060020a0316600160a060020a03166318160ddd6040518163ffffffff1660e060020a028152600401602060405180830381600087803b15801561170757600080fd5b505af115801561171b573d6000803e3d6000fd5b505050506040513d602081101561173157600080fd5b5051156117d15761126f6117436119fe565b60048054604080517f18160ddd0000000000000000000000000000000000000000000000000000000081529051600160a060020a03909216926318160ddd9282820192602092908290030181600087803b1580156117a057600080fd5b505af11580156117b4573d6000803e3d6000fd5b505050506040513d60208110156117ca57600080fd5b5051612981565b506b033b2e3c9fd0803ce800000090565b60408051348082526020820183815236938301849052600435936024359384938693339360008035600160e060020a031916949092606082018484808284376040519201829003965090945050505050a460125460ff16158061184c5750601254610100900460ff165b151561185757600080fd5b600554600160a060020a031663a9059cbb336118728661118f565b6040518363ffffffff1660e060020a0281526004018083600160a060020a0316600160a060020a0316815260200182815260200192505050602060405180830381600087803b1580156118c457600080fd5b505af11580156118d8573d6000803e3d6000fd5b505050506040513d60208110156118ee57600080fd5b505115156118fb57600080fd5b60048054604080517f9dc29fac00000000000000000000000000000000000000000000000000000000815233938101939093526024830186905251600160a060020a0390911691639dc29fac91604480830192600092919082900301818387803b158015610a3e57600080fd5b60408051348082526020820183815236938301849052600435936024359384938693339360008035600160e060020a031916949092606082018484808284376040519201829003965090945050505050a46119cf33600035600160e060020a031916612827565b15156119da57600080fd5b505060088054600160a060020a031916600160a060020a0392909216919091179055565b600554604080517f70a082310000000000000000000000000000000000000000000000000000000081523060048201529051600092600160a060020a0316916370a0823191602480830192602092919082900301818787803b158015610b8157600080fd5b60408051348082526020820183815236938301849052600435936024359384938693339360008035600160e060020a031916949092606082018484808284376040519201829003965090945050505050a4611aca33600035600160e060020a031916612827565b1515611ad557600080fd5b60125460ff16158015611ae757508315155b1515611af257600080fd5b6012805460ff191660011790556b033b2e3c9fd0803ce8000000600c55670de0b6b3a76400006011556013849055600554600a54604080517fa9059cbb000000000000000000000000000000000000000000000000000000008152600160a060020a039283166004820152602481018790529051919092169163a9059cbb9160448083019260209291908290030181600087803b158015611b9257600080fd5b505af1158015611ba6573d6000803e3d6000fd5b505050506040513d6020811015611bbc57600080fd5b5051151561118957600080fd5b60175481565b600154600160a060020a031681565b600254600160a060020a031681565b60408051348082526020820183815236938301849052600435936024359384938693339360008035600160e060020a031916949092606082018484808284376040519201829003965090945050505050a4611c5433600035600160e060020a031916612827565b1515611c5f57600080fd5b7f6361700000000000000000000000000000000000000000000000000000000000841415611c9157600d839055611189565b7f6d61740000000000000000000000000000000000000000000000000000000000841415611cdc576b033b2e3c9fd0803ce8000000831015611cd257600080fd5b600e839055611189565b7f7461780000000000000000000000000000000000000000000000000000000000841415611d2f576b033b2e3c9fd0803ce8000000831015611d1d57600080fd5b611d25611e1f565b600f839055611189565b7f6665650000000000000000000000000000000000000000000000000000000000841415611d82576b033b2e3c9fd0803ce8000000831015611d7057600080fd5b611d78611e1f565b6010839055611189565b7f6178650000000000000000000000000000000000000000000000000000000000841415611dcd576b033b2e3c9fd0803ce8000000831015611dc357600080fd5b600c839055611189565b7f6761700000000000000000000000000000000000000000000000000000000000841415611e1457670de0b6b3a7640000831015611e0a57600080fd5b6011839055611189565b611189565b600f5481565b604080513480825260208201838152369383018490526000938493849384936004359360243593849386933393600160e060020a03198a3516938a92606082018484808284376040519201829003965090945050505050a460125460ff1615611e8757611fcf565b611e8f610af9565b9550601454860394508460001415611ea657611fcf565b6014869055600f546b033b2e3c9fd0803ce800000094508414611f84576015549250611ed4600f54866129f5565b9350611ee26015548561293e565b6015819055600254600a54600160a060020a03918216926340c10f199290911690611f1990611f11908861292e565b60175461293e565b6040518363ffffffff1660e060020a0281526004018083600160a060020a0316600160a060020a0316815260200182815260200192505050600060405180830381600087803b158015611f6b57600080fd5b505af1158015611f7f573d6000803e3d6000fd5b505050505b6010546b033b2e3c9fd0803ce800000014611fac57611fa9846111bc601054886129f5565b93505b6b033b2e3c9fd0803ce80000008414611fcf57611fcb6016548561293e565b6016555b505050505050565b60408051348082526020820183815236938301849052600435936024359384938693339360008035600160e060020a031916949092606082018484808284376040519201829003965090945050505050a4600084815260196020526040902054600160a060020a0316331461204b57600080fd5b600084815260196020526040902060010154612067908461292e565b600085815260196020526040808220600101929092556004805483517fb753a98c0000000000000000000000000000000000000000000000000000000081523392810192909252602482018790529251600160a060020a039093169263b753a98c9260448084019391929182900301818387803b1580156120e757600080fd5b505af11580156120fb573d6000803e3d6000fd5b5050505061210884612623565b151561211357600080fd5b600084815260196020526040902060010154158061214857506000848152601960205260409020600101546611c37937e08000105b151561118957600080fd5b600e5481565b600954600160a060020a031681565b601254610100900460ff1681565b60408051348082526020820183815236938301849052600435936024359384938693339360008035600160e060020a031916949092606082018484808284376040519201829003965090945050505050a460125460ff16156121d757600080fd5b6000848152601960205260409020600101546121f390846129a5565b600085815260196020526040808220600101929092556004805483517ff2d5d56b0000000000000000000000000000000000000000000000000000000081523392810192909252602482018790529251600160a060020a039093169263f2d5d56b9260448084019391929182900301818387803b15801561227357600080fd5b505af1158015612287573d6000803e3d6000fd5b5050506000858152601960205260409020600101541590508061214857506000848152601960205260409020600101546611c37937e080001061118957600080fd5b60408051348082526020820183815236938301849052600435936024359384938693339360008035600160e060020a031916949092606082018484808284376040519201829003965090945050505050a460125460ff161561232a57600080fd5b600083815260196020526040902054600160a060020a0316331461234d57600080fd5b612356836126f3565b1561236d5761236d83612368856126f3565b6112cb565b61237683610afd565b1561238d5761238d8361238885610afd565b611fd7565b505060009081526019602052604081208054600160a060020a0319168155600181018290556002810182905560030155565b60408051348082526020820183815236938301849052600435936024359384938693339360008035600160e060020a031916949092606082018484808284376040519201829003965090945050505050a4600084815260196020526040902054600160a060020a0316331461243357600080fd5b600160a060020a038316151561244857600080fd5b50506000918252601960205260409091208054600160a060020a031916600160a060020a03909216919091179055565b600054600160a060020a031681565b60135481565b6000612497611e1f565b5060155490565b60408051348082526020820183815236938301849052600435936024359384938693339360008035600160e060020a031916949092606082018484808284376040519201829003965090945050505050a461250533600035600160e060020a031916612827565b151561251057600080fd5b505060078054600160a060020a031916600160a060020a0392909216919091179055565b600854600160a060020a031681565b60408051348082526020820183815236938301849052600435936024359384938693339360008035600160e060020a031916949092606082018484808284376040519201829003965090945050505050a46125aa33600035600160e060020a031916612827565b15156125b557600080fd5b505060098054600160a060020a031916600160a060020a0392909216919091179055565b60105481565b600090815260196020526040902054600160a060020a031690565b60006112786017546111bc61248d565b60006111c1826111bc61261b6116b2565b6011546129b5565b60008060008061263d6126346111d3565b6111bc87610afd565b92506126ca600760009054906101000a9004600160a060020a0316600160a060020a031663495d32cb6040518163ffffffff1660e060020a028152600401602060405180830381600087803b15801561269557600080fd5b505af11580156126a9573d6000803e3d6000fd5b505050506040513d60208110156126bf57600080fd5b50516111bc876126f3565b91506126d882600e5461293e565b90921015949350505050565b600b54600160a060020a031681565b6000818152601960205260408120600201546111c1906111bc61248d565b604080513480825260208201838152369383018490526000936004359360243593849386933393600160e060020a03198a351693928a929190606082018484808284376040519201829003965090945050505050a460125460ff161561277657600080fd5b61278360185460016129a5565b60188190556000818152601960209081526040918290208054600160a060020a0319163390811790915582518481529251939650927f89b8893b806db50897c8e2362c71571cfaeb9761ee40727f683f1793cda9df169281900390910190a2505090565b600a54600160a060020a031681565b6019602052600090815260409020805460018201546002830154600390930154600160a060020a0390921692909184565b6000600160a060020a038316301415612842575060016111c1565b600154600160a060020a0384811691161415612860575060016111c1565b600054600160a060020a0316151561287a575060006111c1565b60008054604080517fb7009613000000000000000000000000000000000000000000000000000000008152600160a060020a038781166004830152306024830152600160e060020a0319871660448301529151919092169263b700961392606480820193602093909283900390910190829087803b1580156128fb57600080fd5b505af115801561290f573d6000803e3d6000fd5b505050506040513d602081101561292557600080fd5b50519392505050565b808203828111156111c157600080fd5b60006b033b2e3c9fd0803ce800000061297061295a8585612a51565b60026b033b2e3c9fd0803ce80000005b046129a5565b81151561297957fe5b049392505050565b60008161297061299d856b033b2e3c9fd0803ce8000000612a51565b60028561296a565b808201828110156111c157600080fd5b6000670de0b6b3a76400006129706129cd8585612a51565b6002670de0b6b3a764000061296a565b60008161297061299d85670de0b6b3a7640000612a51565b6000600282061515612a13576b033b2e3c9fd0803ce8000000612a15565b825b90506002820491505b81156111c157612a2e838461293e565b92506002820615612a4657612a43818461293e565b90505b600282049150612a1e565b6000811580612a6e575050808202828282811515612a6b57fe5b04145b15156111c157600080fd00a165627a7a72305820dcf997de6f12c9dbcb7e8847692faec3a56d78a6b9c450a5204c876b39e8eaa90029",
  "source": "/// tub.sol -- simplified CDP engine (baby brother of `vat')\n\n// Copyright (C) 2017  Nikolai Mushegian <nikolai@dapphub.com>\n// Copyright (C) 2017  Daniel Brockman <daniel@dapphub.com>\n// Copyright (C) 2017  Rain Break <rainbreak@riseup.net>\n\n// This program is free software: you can redistribute it and/or modify\n// it under the terms of the GNU General Public License as published by\n// the Free Software Foundation, either version 3 of the License, or\n// (at your option) any later version.\n\n// This program is distributed in the hope that it will be useful,\n// but WITHOUT ANY WARRANTY; without even the implied warranty of\n// MERCHANTABILITY or FITNESS FOR A PARTICULAR PURPOSE.  See the\n// GNU General Public License for more details.\n\n// You should have received a copy of the GNU General Public License\n// along with this program.  If not, see <http://www.gnu.org/licenses/>.\n\npragma solidity ^0.4.18;\n\nimport \"./ds-thing/thing.sol\";\nimport \"./ds-token/token.sol\";\nimport \"./ds-value/value.sol\";\n\nimport \"./vox.sol\";\n\ncontract SaiTubEvents {\n    event LogNewCup(address indexed lad, bytes32 cup);\n}\n\ncontract SaiTub is DSThing, SaiTubEvents {\n    DSToken  public  sai;  // Stablecoin\n    DSToken  public  sin;  // Debt (negative sai)\n\n    DSToken  public  skr;  // Abstracted collateral\n    ERC20    public  gem;  // Underlying collateral\n\n    DSToken  public  gov;  // Governance token\n\n    SaiVox   public  vox;  // Target price feed\n    DSValue  public  pip;  // Reference price feed\n    DSValue  public  pep;  // Governance price feed\n\n    address  public  tap;  // Liquidator\n    address  public  pit;  // Governance Vault\n\n    uint256  public  axe;  // Liquidation penalty\n    uint256  public  cap;  // Debt ceiling\n    uint256  public  mat;  // Liquidation ratio\n    uint256  public  tax;  // Stability fee\n    uint256  public  fee;  // Governance fee\n    uint256  public  gap;  // Join-Exit Spread\n\n    bool     public  off;  // Cage flag\n    bool     public  out;  // Post cage exit\n\n    uint256  public  fit;  // REF per SKR (just before settlement)\n\n    uint256  public  rho;  // Time of last drip\n    uint256         _chi;  // Accumulated Tax Rates\n    uint256         _rhi;  // Accumulated Tax + Fee Rates\n    uint256  public  rum;  // Total normalised debt\n\n    uint256                   public  cupi;\n    mapping (bytes32 => Cup)  public  cups;\n\n    struct Cup {\n        address  lad;      // CDP owner\n        uint256  ink;      // Locked collateral (in SKR)\n        uint256  art;      // Outstanding normalised debt (tax only)\n        uint256  ire;      // Outstanding normalised debt\n    }\n\n    function lad(bytes32 cup) public view returns (address) {\n        return cups[cup].lad;\n    }\n    function ink(bytes32 cup) public view returns (uint) {\n        return cups[cup].ink;\n    }\n    function tab(bytes32 cup) public returns (uint) {\n        return rmul(cups[cup].art, chi());\n    }\n    function rap(bytes32 cup) public returns (uint) {\n        return sub(rmul(cups[cup].ire, rhi()), tab(cup));\n    }\n\n    // Total CDP Debt\n    function din() public returns (uint) {\n        return rmul(rum, chi());\n    }\n    // Backing collateral\n    function air() public view returns (uint) {\n        return skr.balanceOf(this);\n    }\n    // Raw collateral\n    function pie() public view returns (uint) {\n        return gem.balanceOf(this);\n    }\n\n    //------------------------------------------------------------------\n\n    function SaiTub(\n        DSToken  sai_,\n        DSToken  sin_,\n        DSToken  skr_,\n        ERC20    gem_,\n        DSToken  gov_,\n        DSValue  pip_,\n        DSValue  pep_,\n        SaiVox   vox_,\n        address  pit_\n    ) public {\n        gem = gem_;\n        skr = skr_;\n\n        sai = sai_;\n        sin = sin_;\n\n        gov = gov_;\n        pit = pit_;\n\n        pip = pip_;\n        pep = pep_;\n        vox = vox_;\n\n        axe = RAY;\n        mat = RAY;\n        tax = RAY;\n        fee = RAY;\n        gap = WAD;\n\n        _chi = RAY;\n        _rhi = RAY;\n\n        rho = era();\n    }\n\n    function era() public constant returns (uint) {\n        return block.timestamp;\n    }\n\n    //--Risk-parameter-config-------------------------------------------\n\n    function mold(bytes32 param, uint val) public note auth {\n        if      (param == 'cap') cap = val;\n        else if (param == 'mat') { require(val >= RAY); mat = val; }\n        else if (param == 'tax') { require(val >= RAY); drip(); tax = val; }\n        else if (param == 'fee') { require(val >= RAY); drip(); fee = val; }\n        else if (param == 'axe') { require(val >= RAY); axe = val; }\n        else if (param == 'gap') { require(val >= WAD); gap = val; }\n        else return;\n    }\n\n    //--Price-feed-setters----------------------------------------------\n\n    function setPip(DSValue pip_) public note auth {\n        pip = pip_;\n    }\n    function setPep(DSValue pep_) public note auth {\n        pep = pep_;\n    }\n    function setVox(SaiVox vox_) public note auth {\n        vox = vox_;\n    }\n\n    //--Tap-setter------------------------------------------------------\n    function turn(address tap_) public note {\n        require(tap  == 0);\n        require(tap_ != 0);\n        tap = tap_;\n    }\n\n    //--Collateral-wrapper----------------------------------------------\n\n    // Wrapper ratio (gem per skr)\n    function per() public view returns (uint ray) {\n        return skr.totalSupply() == 0 ? RAY : rdiv(pie(), skr.totalSupply());\n    }\n    // Join price (gem per skr)\n    function ask(uint wad) public view returns (uint) {\n        return rmul(wad, wmul(per(), gap));\n    }\n    // Exit price (gem per skr)\n    function bid(uint wad) public view returns (uint) {\n        return rmul(wad, wmul(per(), sub(2 * WAD, gap)));\n    }\n    function join(uint wad) public note {\n        require(!off);\n        require(ask(wad) > 0);\n        require(gem.transferFrom(msg.sender, this, ask(wad)));\n        skr.mint(msg.sender, wad);\n    }\n    function exit(uint wad) public note {\n        require(!off || out);\n        require(gem.transfer(msg.sender, bid(wad)));\n        skr.burn(msg.sender, wad);\n    }\n\n    //--Stability-fee-accumulation--------------------------------------\n\n    // Accumulated Rates\n    function chi() public returns (uint) {\n        drip();\n        return _chi;\n    }\n    function rhi() public returns (uint) {\n        drip();\n        return _rhi;\n    }\n    function drip() public note {\n        if (off) return;\n\n        var rho_ = era();\n        var age = rho_ - rho;\n        if (age == 0) return;    // optimised\n        rho = rho_;\n\n        var inc = RAY;\n\n        if (tax != RAY) {  // optimised\n            var _chi_ = _chi;\n            inc = rpow(tax, age);\n            _chi = rmul(_chi, inc);\n            sai.mint(tap, rmul(sub(_chi, _chi_), rum));\n        }\n\n        // optimised\n        if (fee != RAY) inc = rmul(inc, rpow(fee, age));\n        if (inc != RAY) _rhi = rmul(_rhi, inc);\n    }\n\n\n    //--CDP-risk-indicator----------------------------------------------\n\n    // Abstracted collateral price (ref per skr)\n    function tag() public view returns (uint wad) {\n        return off ? fit : wmul(per(), uint(pip.read()));\n    }\n    // Returns true if cup is well-collateralized\n    function safe(bytes32 cup) public returns (bool) {\n        var pro = rmul(tag(), ink(cup));\n        var con = rmul(vox.par(), tab(cup));\n        var min = rmul(con, mat);\n        return pro >= min;\n    }\n\n\n    //--CDP-operations--------------------------------------------------\n\n    function open() public note returns (bytes32 cup) {\n        require(!off);\n        cupi = add(cupi, 1);\n        cup = bytes32(cupi);\n        cups[cup].lad = msg.sender;\n        LogNewCup(msg.sender, cup);\n    }\n    function give(bytes32 cup, address guy) public note {\n        require(msg.sender == cups[cup].lad);\n        require(guy != 0);\n        cups[cup].lad = guy;\n    }\n\n    function lock(bytes32 cup, uint wad) public note {\n        require(!off);\n        cups[cup].ink = add(cups[cup].ink, wad);\n        skr.pull(msg.sender, wad);\n        require(cups[cup].ink == 0 || cups[cup].ink > 0.005 ether);\n    }\n    function free(bytes32 cup, uint wad) public note {\n        require(msg.sender == cups[cup].lad);\n        cups[cup].ink = sub(cups[cup].ink, wad);\n        skr.push(msg.sender, wad);\n        require(safe(cup));\n        require(cups[cup].ink == 0 || cups[cup].ink > 0.005 ether);\n    }\n\n    function draw(bytes32 cup, uint wad) public note {\n        require(!off);\n        require(msg.sender == cups[cup].lad);\n        require(rdiv(wad, chi()) > 0);\n\n        cups[cup].art = add(cups[cup].art, rdiv(wad, chi()));\n        rum = add(rum, rdiv(wad, chi()));\n\n        cups[cup].ire = add(cups[cup].ire, rdiv(wad, rhi()));\n        sai.mint(cups[cup].lad, wad);\n\n        require(safe(cup));\n        require(sai.totalSupply() <= cap);\n    }\n    function wipe(bytes32 cup, uint wad) public note {\n        require(!off);\n\n        var owe = rmul(wad, rdiv(rap(cup), tab(cup)));\n\n        cups[cup].art = sub(cups[cup].art, rdiv(wad, chi()));\n        rum = sub(rum, rdiv(wad, chi()));\n\n        cups[cup].ire = sub(cups[cup].ire, rdiv(add(wad, owe), rhi()));\n        sai.burn(msg.sender, wad);\n\n        var (val, ok) = pep.peek();\n        if (ok && val != 0) gov.move(msg.sender, pit, wdiv(owe, uint(val)));\n    }\n\n    function shut(bytes32 cup) public note {\n        require(!off);\n        require(msg.sender == cups[cup].lad);\n        if (tab(cup) != 0) wipe(cup, tab(cup));\n        if (ink(cup) != 0) free(cup, ink(cup));\n        delete cups[cup];\n    }\n\n    function bite(bytes32 cup) public note {\n        require(!safe(cup) || off);\n\n        // Take on all of the debt, except unpaid fees\n        var rue = tab(cup);\n        sin.mint(tap, rue);\n        rum = sub(rum, cups[cup].art);\n        cups[cup].art = 0;\n        cups[cup].ire = 0;\n\n        // Amount owed in SKR, including liquidation penalty\n        var owe = rdiv(rmul(rmul(rue, axe), vox.par()), tag());\n\n        if (owe > cups[cup].ink) {\n            owe = cups[cup].ink;\n        }\n\n        skr.push(tap, owe);\n        cups[cup].ink = sub(cups[cup].ink, owe);\n    }\n\n    //------------------------------------------------------------------\n\n    function cage(uint fit_, uint jam) public note auth {\n        require(!off && fit_ != 0);\n        off = true;\n        axe = RAY;\n        gap = WAD;\n        fit = fit_;         // ref per skr\n        require(gem.transfer(tap, jam));\n    }\n    function flow() public note auth {\n        require(off);\n        out = true;\n    }\n}\n",
  "sourcePath": "/Users/samrichards/code/tu/etherswing/contracts/development/makerdao/sai/tub.sol",
  "compiler": {
    "name": "solc",
    "version": "0.4.24+commit.e67f0147.Emscripten.clang"
  },
  "schemaVersion": "3.0.10",
  "updatedAt": "2019-08-22T14:54:46.015Z",
  "devdoc": {
    "methods": {}
  },
  "userdoc": {
    "methods": {}
  }
}