{
  "contractName": "SaiVox",
  "abi": [
    {
      "constant": false,
      "inputs": [
        {
          "name": "owner_",
          "type": "address"
        }
      ],
      "name": "setOwner",
      "outputs": [],
      "payable": false,
      "stateMutability": "nonpayable",
      "type": "function"
    },
    {
      "constant": true,
      "inputs": [],
      "name": "how",
      "outputs": [
        {
          "name": "",
          "type": "uint256"
        }
      ],
      "payable": false,
      "stateMutability": "view",
      "type": "function"
    },
    {
      "constant": false,
      "inputs": [
        {
          "name": "authority_",
          "type": "address"
        }
      ],
      "name": "setAuthority",
      "outputs": [],
      "payable": false,
      "stateMutability": "nonpayable",
      "type": "function"
    },
    {
      "constant": true,
      "inputs": [],
      "name": "owner",
      "outputs": [
        {
          "name": "",
          "type": "address"
        }
      ],
      "payable": false,
      "stateMutability": "view",
      "type": "function"
    },
    {
      "constant": true,
      "inputs": [],
      "name": "fix",
      "outputs": [
        {
          "name": "",
          "type": "uint256"
        }
      ],
      "payable": false,
      "stateMutability": "view",
      "type": "function"
    },
    {
      "constant": true,
      "inputs": [],
      "name": "authority",
      "outputs": [
        {
          "name": "",
          "type": "address"
        }
      ],
      "payable": false,
      "stateMutability": "view",
      "type": "function"
    },
    {
      "constant": true,
      "inputs": [],
      "name": "tau",
      "outputs": [
        {
          "name": "",
          "type": "uint256"
        }
      ],
      "payable": false,
      "stateMutability": "view",
      "type": "function"
    },
    {
      "inputs": [
        {
          "name": "par_",
          "type": "uint256"
        }
      ],
      "payable": false,
      "stateMutability": "nonpayable",
      "type": "constructor"
    },
    {
      "anonymous": true,
      "inputs": [
        {
          "indexed": true,
          "name": "sig",
          "type": "bytes4"
        },
        {
          "indexed": true,
          "name": "guy",
          "type": "address"
        },
        {
          "indexed": true,
          "name": "foo",
          "type": "bytes32"
        },
        {
          "indexed": true,
          "name": "bar",
          "type": "bytes32"
        },
        {
          "indexed": false,
          "name": "wad",
          "type": "uint256"
        },
        {
          "indexed": false,
          "name": "fax",
          "type": "bytes"
        }
      ],
      "name": "LogNote",
      "type": "event"
    },
    {
      "anonymous": false,
      "inputs": [
        {
          "indexed": true,
          "name": "authority",
          "type": "address"
        }
      ],
      "name": "LogSetAuthority",
      "type": "event"
    },
    {
      "anonymous": false,
      "inputs": [
        {
          "indexed": true,
          "name": "owner",
          "type": "address"
        }
      ],
      "name": "LogSetOwner",
      "type": "event"
    },
    {
      "constant": true,
      "inputs": [],
      "name": "era",
      "outputs": [
        {
          "name": "",
          "type": "uint256"
        }
      ],
      "payable": false,
      "stateMutability": "view",
      "type": "function"
    },
    {
      "constant": false,
      "inputs": [
        {
          "name": "param",
          "type": "bytes32"
        },
        {
          "name": "val",
          "type": "uint256"
        }
      ],
      "name": "mold",
      "outputs": [],
      "payable": false,
      "stateMutability": "nonpayable",
      "type": "function"
    },
    {
      "constant": false,
      "inputs": [],
      "name": "par",
      "outputs": [
        {
          "name": "",
          "type": "uint256"
        }
      ],
      "payable": false,
      "stateMutability": "nonpayable",
      "type": "function"
    },
    {
      "constant": false,
      "inputs": [],
      "name": "way",
      "outputs": [
        {
          "name": "",
          "type": "uint256"
        }
      ],
      "payable": false,
      "stateMutability": "nonpayable",
      "type": "function"
    },
    {
      "constant": false,
      "inputs": [
        {
          "name": "ray",
          "type": "uint256"
        }
      ],
      "name": "tell",
      "outputs": [],
      "payable": false,
      "stateMutability": "nonpayable",
      "type": "function"
    },
    {
      "constant": false,
      "inputs": [
        {
          "name": "ray",
          "type": "uint256"
        }
      ],
      "name": "tune",
      "outputs": [],
      "payable": false,
      "stateMutability": "nonpayable",
      "type": "function"
    },
    {
      "constant": false,
      "inputs": [],
      "name": "prod",
      "outputs": [],
      "payable": false,
      "stateMutability": "nonpayable",
      "type": "function"
    }
  ],
  "bytecode": "0x608060405234801561001057600080fd5b506040516020806109a6833981016040819052905160018054600160a060020a0319163390811790915590917fce241d7ca1f669fee44b6fc00b8eba2df3bb514eed0f6f668f8f89096e81ed9490600090a2600481905560028190556b033b2e3c9fd0803ce800000060035561008d640100000000610096810204565b6006555061009a565b4290565b6108fd806100a96000396000f3006080604052600436106100cf5763ffffffff7c01000000000000000000000000000000000000000000000000000000006000350416630302c68881146100d457806313af4035146100eb578063143e55e01461010c5780633a4a423314610133578063495d32cb1461014857806355deb8fc1461015d5780635d6542af146101755780637a9e5e4b1461018a5780638da5cb5b146101ab57806392b0d721146101dc578063a551878e146101f7578063becda0ea1461020c578063bf7e214f14610224578063cfc4af5514610239575b600080fd5b3480156100e057600080fd5b506100e961024e565b005b3480156100f757600080fd5b506100e9600160a060020a0360043516610344565b34801561011857600080fd5b506101216103c2565b60408051918252519081900360200190f35b34801561013f57600080fd5b506101216103c6565b34801561015457600080fd5b506101216103cc565b34801561016957600080fd5b506100e96004356103dd565b34801561018157600080fd5b50610121610456565b34801561019657600080fd5b506100e9600160a060020a0360043516610467565b3480156101b757600080fd5b506101c06104e1565b60408051600160a060020a039092168252519081900360200190f35b3480156101e857600080fd5b506100e96004356024356104f0565b34801561020357600080fd5b50610121610592565b34801561021857600080fd5b506100e9600435610598565b34801561023057600080fd5b506101c0610611565b34801561024557600080fd5b50610121610620565b6040805134808252602082018381523693830184905260009384936004359360243593849386933393600160e060020a03198a35169390928a929091606082018484808284376040519201829003965090945050505050a46006546102b16103c2565b0393508315156102c05761033e565b6102c86103c2565b6006556003546b033b2e3c9fd0803ce8000000146102fb576102f76002546102f260035487610626565b610688565b6002555b60055415156103095761033e565b8360055402925061033a600254600454106103275783600003610329565b835b6103346003546106cb565b0161071d565b6003555b50505050565b61035a33600035600160e060020a03191661076e565b151561036557600080fd5b6001805473ffffffffffffffffffffffffffffffffffffffff1916600160a060020a0383811691909117918290556040519116907fce241d7ca1f669fee44b6fc00b8eba2df3bb514eed0f6f668f8f89096e81ed9490600090a250565b4290565b60055481565b60006103d661024e565b5060025490565b60408051348082526020820183815236938301849052600435936024359384938693339360008035600160e060020a031916949092606082018484808284376040519201829003965090945050505050a461044433600035600160e060020a03191661076e565b151561044f57600080fd5b5050600455565b600061046061024e565b5060035490565b61047d33600035600160e060020a03191661076e565b151561048857600080fd5b6000805473ffffffffffffffffffffffffffffffffffffffff1916600160a060020a03838116919091178083556040519116917f1abebea81bfa2637f28358c371278fb15ede7ea8dd28d2e03b112ff6d936ada491a250565b600154600160a060020a031681565b60408051348082526020820183815236938301849052600435936024359384938693339360008035600160e060020a031916949092606082018484808284376040519201829003965090945050505050a461055733600035600160e060020a03191661076e565b151561056257600080fd5b7f776179000000000000000000000000000000000000000000000000000000000084141561033e57505060035550565b60045481565b60408051348082526020820183815236938301849052600435936024359384938693339360008035600160e060020a031916949092606082018484808284376040519201829003965090945050505050a46105ff33600035600160e060020a03191661076e565b151561060a57600080fd5b5050600555565b600054600160a060020a031681565b60065481565b6000600282061515610644576b033b2e3c9fd0803ce8000000610646565b825b90506002820491505b81156106825761065f8384610688565b92506002820615610677576106748184610688565b90505b60028204915061064f565b92915050565b60006b033b2e3c9fd0803ce80000006106ba6106a48585610875565b60026b033b2e3c9fd0803ce80000005b0461089d565b8115156106c357fe5b049392505050565b60006b033b2e3c9fd0803ce800000082101561070a576106f76b033b2e3c9fd0803ce8000000836108ad565b6b033b2e3c9fd0803ce800000003610682565b506b033b2e3c9fd0803ce7ffffff190190565b60008082600f0b1215610759576107546b033b2e3c9fd0803ce800000083600003600f0b6b033b2e3c9fd0803ce8000000016108ad565b610682565b50600f0b6b033b2e3c9fd0803ce80000000190565b6000600160a060020a03831630141561078957506001610682565b600154600160a060020a03848116911614156107a757506001610682565b600054600160a060020a031615156107c157506000610682565b60008054604080517fb7009613000000000000000000000000000000000000000000000000000000008152600160a060020a038781166004830152306024830152600160e060020a0319871660448301529151919092169263b700961392606480820193602093909283900390910190829087803b15801561084257600080fd5b505af1158015610856573d6000803e3d6000fd5b505050506040513d602081101561086c57600080fd5b50519050610682565b600081158061089257505080820282828281151561088f57fe5b04145b151561068257600080fd5b8082018281101561068257600080fd5b6000816106ba6108c9856b033b2e3c9fd0803ce8000000610875565b6002856106b45600a165627a7a723058205ab791d8f951d53a8c7b258dca2a337fac865fa2108e6fd6634cb249abe1d5130029",
  "source": "/// vox.sol -- target price feed\n\n// Copyright (C) 2016, 2017  Nikolai Mushegian <nikolai@dapphub.com>\n// Copyright (C) 2016, 2017  Daniel Brockman <daniel@dapphub.com>\n// Copyright (C) 2017        Rain Break <rainbreak@riseup.net>\n\n// This program is free software: you can redistribute it and/or modify\n// it under the terms of the GNU General Public License as published by\n// the Free Software Foundation, either version 3 of the License, or\n// (at your option) any later version.\n\n// This program is distributed in the hope that it will be useful,\n// but WITHOUT ANY WARRANTY; without even the implied warranty of\n// MERCHANTABILITY or FITNESS FOR A PARTICULAR PURPOSE.  See the\n// GNU General Public License for more details.\n\n// You should have received a copy of the GNU General Public License\n// along with this program.  If not, see <http://www.gnu.org/licenses/>.\n\npragma solidity ^0.4.18;\n\nimport \"./ds-thing/thing.sol\";\n\ncontract SaiVox is DSThing {\n    uint256  _par;\n    uint256  _way;\n\n    uint256  public  fix;\n    uint256  public  how;\n    uint256  public  tau;\n\n    function SaiVox(uint par_) public {\n        _par = fix = par_;\n        _way = RAY;\n        tau  = era();\n    }\n\n    function era() public view returns (uint) {\n        return block.timestamp;\n    }\n\n    function mold(bytes32 param, uint val) public note auth {\n        if (param == 'way') _way = val;\n    }\n\n    // Dai Target Price (ref per dai)\n    function par() public returns (uint) {\n        prod();\n        return _par;\n    }\n    function way() public returns (uint) {\n        prod();\n        return _way;\n    }\n\n    function tell(uint256 ray) public note auth {\n        fix = ray;\n    }\n    function tune(uint256 ray) public note auth {\n        how = ray;\n    }\n\n    function prod() public note {\n        var age = era() - tau;\n        if (age == 0) return;  // optimised\n        tau = era();\n\n        if (_way != RAY) _par = rmul(_par, rpow(_way, age));  // optimised\n\n        if (how == 0) return;  // optimised\n        var wag = int128(how * age);\n        _way = inj(prj(_way) + (fix < _par ? wag : -wag));\n    }\n\n    function inj(int128 x) internal pure returns (uint256) {\n        return x >= 0 ? uint256(x) + RAY\n            : rdiv(RAY, RAY + uint256(-x));\n    }\n    function prj(uint256 x) internal pure returns (int128) {\n        return x >= RAY ? int128(x - RAY)\n            : int128(RAY) - int128(rdiv(RAY, x));\n    }\n}\n",
  "sourcePath": "/Users/samrichards/code/tu/etherswing/contracts/development/makerdao/sai/vox.sol",
  "compiler": {
    "name": "solc",
    "version": "0.4.24+commit.e67f0147.Emscripten.clang"
  },
  "schemaVersion": "3.0.10",
  "updatedAt": "2019-07-16T04:23:02.637Z",
  "devdoc": {
    "methods": {}
  },
  "userdoc": {
    "methods": {}
  }
}