{
  "contractName": "TokenProxy",
  "abi": [
    {
      "constant": false,
      "inputs": [
        {
          "name": "token",
          "type": "address"
        },
        {
          "name": "guy",
          "type": "address"
        },
        {
          "name": "wad",
          "type": "uint256"
        }
      ],
      "name": "transfer",
      "outputs": [],
      "payable": false,
      "stateMutability": "nonpayable",
      "type": "function"
    },
    {
      "constant": false,
      "inputs": [
        {
          "name": "token",
          "type": "address"
        },
        {
          "name": "guy",
          "type": "address"
        },
        {
          "name": "wad",
          "type": "uint256"
        }
      ],
      "name": "approve",
      "outputs": [],
      "payable": false,
      "stateMutability": "nonpayable",
      "type": "function"
    },
    {
      "constant": false,
      "inputs": [
        {
          "name": "token",
          "type": "address"
        }
      ],
      "name": "deposit",
      "outputs": [],
      "payable": true,
      "stateMutability": "payable",
      "type": "function"
    },
    {
      "constant": false,
      "inputs": [
        {
          "name": "token",
          "type": "address"
        },
        {
          "name": "wad",
          "type": "uint256"
        }
      ],
      "name": "withdraw",
      "outputs": [],
      "payable": false,
      "stateMutability": "nonpayable",
      "type": "function"
    }
  ],
  "bytecode": "0x608060405234801561001057600080fd5b506102c9806100206000396000f3006080604052600436106100485763ffffffff60e060020a600035041663beabacc8811461004d578063e1f21c6714610079578063f340fa01146100a3578063f3fef3a3146100b7575b600080fd5b34801561005957600080fd5b50610077600160a060020a03600435811690602435166044356100db565b005b34801561008557600080fd5b50610077600160a060020a036004358116906024351660443561017a565b610077600160a060020a03600435166101fa565b3480156100c357600080fd5b50610077600160a060020a0360043516602435610254565b82600160a060020a031663a9059cbb83836040518363ffffffff1660e060020a0281526004018083600160a060020a0316600160a060020a0316815260200182815260200192505050602060405180830381600087803b15801561013e57600080fd5b505af1158015610152573d6000803e3d6000fd5b505050506040513d602081101561016857600080fd5b5051151561017557600080fd5b505050565b82600160a060020a031663095ea7b383836040518363ffffffff1660e060020a0281526004018083600160a060020a0316600160a060020a0316815260200182815260200192505050600060405180830381600087803b1580156101dd57600080fd5b505af11580156101f1573d6000803e3d6000fd5b50505050505050565b80600160a060020a031663d0e30db0346040518263ffffffff1660e060020a0281526004016000604051808303818588803b15801561023857600080fd5b505af115801561024c573d6000803e3d6000fd5b505050505050565b81600160a060020a0316632e1a7d4d826040518263ffffffff1660e060020a02815260040180828152602001915050600060405180830381600087803b15801561023857600080fd00a165627a7a7230582048530f7bd296a95e50566cbd81c046c50b0a3b116a9b647827278f9f7c788a3b0029",
  "source": "pragma solidity ^0.4.23;\n\ncontract TokenInterface {\n    function approve(address, uint) public;\n    function transfer(address, uint) public returns (bool);\n    function deposit() public payable;\n    function withdraw(uint) public;\n}\n\ncontract TokenProxy {\n    function transfer(address token, address guy, uint wad) public {\n        require(TokenInterface(token).transfer(guy, wad));\n    }\n\n    function approve(address token, address guy, uint wad) public {\n        TokenInterface(token).approve(guy, wad);\n    }\n\n    function deposit(address token) public payable {\n        TokenInterface(token).deposit.value(msg.value)();\n    }\n\n    function withdraw(address token, uint wad) public {\n        TokenInterface(token).withdraw(wad);\n    }\n}",
  "sourcePath": "/Users/samrichards/code/tu/etherswing/contracts/development/makerdao/sai-proxy/TokenProxy.sol",
  "compiler": {
    "name": "solc",
    "version": "0.4.24+commit.e67f0147.Emscripten.clang"
  },
  "schemaVersion": "3.0.10",
  "updatedAt": "2019-08-22T14:53:45.490Z",
  "devdoc": {
    "methods": {}
  },
  "userdoc": {
    "methods": {}
  }
}