{
  "contractName": "VoxFab",
  "abi": [
    {
      "constant": false,
      "inputs": [],
      "name": "newVox",
      "outputs": [
        {
          "name": "vox",
          "type": "address"
        }
      ],
      "payable": false,
      "stateMutability": "nonpayable",
      "type": "function"
    }
  ],
  "bytecode": "0x608060405234801561001057600080fd5b50610b2c806100206000396000f3006080604052600436106100405763ffffffff7c010000000000000000000000000000000000000000000000000000000060003504166369d3b2528114610045575b600080fd5b34801561005157600080fd5b5061005a610083565b6040805173ffffffffffffffffffffffffffffffffffffffff9092168252519081900360200190f35b60006b033b2e3c9fd0803ce800000061009a61014a565b90815260405190819003602001906000f0801580156100bd573d6000803e3d6000fd5b50604080517f13af4035000000000000000000000000000000000000000000000000000000008152336004820152905191925073ffffffffffffffffffffffffffffffffffffffff8316916313af40359160248082019260009290919082900301818387803b15801561012f57600080fd5b505af1158015610143573d6000803e3d6000fd5b5050505090565b6040516109a68061015b833901905600608060405234801561001057600080fd5b506040516020806109a6833981016040819052905160018054600160a060020a0319163390811790915590917fce241d7ca1f669fee44b6fc00b8eba2df3bb514eed0f6f668f8f89096e81ed9490600090a2600481905560028190556b033b2e3c9fd0803ce800000060035561008d640100000000610096810204565b6006555061009a565b4290565b6108fd806100a96000396000f3006080604052600436106100cf5763ffffffff7c01000000000000000000000000000000000000000000000000000000006000350416630302c68881146100d457806313af4035146100eb578063143e55e01461010c5780633a4a423314610133578063495d32cb1461014857806355deb8fc1461015d5780635d6542af146101755780637a9e5e4b1461018a5780638da5cb5b146101ab57806392b0d721146101dc578063a551878e146101f7578063becda0ea1461020c578063bf7e214f14610224578063cfc4af5514610239575b600080fd5b3480156100e057600080fd5b506100e961024e565b005b3480156100f757600080fd5b506100e9600160a060020a0360043516610344565b34801561011857600080fd5b506101216103c2565b60408051918252519081900360200190f35b34801561013f57600080fd5b506101216103c6565b34801561015457600080fd5b506101216103cc565b34801561016957600080fd5b506100e96004356103dd565b34801561018157600080fd5b50610121610456565b34801561019657600080fd5b506100e9600160a060020a0360043516610467565b3480156101b757600080fd5b506101c06104e1565b60408051600160a060020a039092168252519081900360200190f35b3480156101e857600080fd5b506100e96004356024356104f0565b34801561020357600080fd5b50610121610592565b34801561021857600080fd5b506100e9600435610598565b34801561023057600080fd5b506101c0610611565b34801561024557600080fd5b50610121610620565b6040805134808252602082018381523693830184905260009384936004359360243593849386933393600160e060020a03198a35169390928a929091606082018484808284376040519201829003965090945050505050a46006546102b16103c2565b0393508315156102c05761033e565b6102c86103c2565b6006556003546b033b2e3c9fd0803ce8000000146102fb576102f76002546102f260035487610626565b610688565b6002555b60055415156103095761033e565b8360055402925061033a600254600454106103275783600003610329565b835b6103346003546106cb565b0161071d565b6003555b50505050565b61035a33600035600160e060020a03191661076e565b151561036557600080fd5b6001805473ffffffffffffffffffffffffffffffffffffffff1916600160a060020a0383811691909117918290556040519116907fce241d7ca1f669fee44b6fc00b8eba2df3bb514eed0f6f668f8f89096e81ed9490600090a250565b4290565b60055481565b60006103d661024e565b5060025490565b60408051348082526020820183815236938301849052600435936024359384938693339360008035600160e060020a031916949092606082018484808284376040519201829003965090945050505050a461044433600035600160e060020a03191661076e565b151561044f57600080fd5b5050600455565b600061046061024e565b5060035490565b61047d33600035600160e060020a03191661076e565b151561048857600080fd5b6000805473ffffffffffffffffffffffffffffffffffffffff1916600160a060020a03838116919091178083556040519116917f1abebea81bfa2637f28358c371278fb15ede7ea8dd28d2e03b112ff6d936ada491a250565b600154600160a060020a031681565b60408051348082526020820183815236938301849052600435936024359384938693339360008035600160e060020a031916949092606082018484808284376040519201829003965090945050505050a461055733600035600160e060020a03191661076e565b151561056257600080fd5b7f776179000000000000000000000000000000000000000000000000000000000084141561033e57505060035550565b60045481565b60408051348082526020820183815236938301849052600435936024359384938693339360008035600160e060020a031916949092606082018484808284376040519201829003965090945050505050a46105ff33600035600160e060020a03191661076e565b151561060a57600080fd5b5050600555565b600054600160a060020a031681565b60065481565b6000600282061515610644576b033b2e3c9fd0803ce8000000610646565b825b90506002820491505b81156106825761065f8384610688565b92506002820615610677576106748184610688565b90505b60028204915061064f565b92915050565b60006b033b2e3c9fd0803ce80000006106ba6106a48585610875565b60026b033b2e3c9fd0803ce80000005b0461089d565b8115156106c357fe5b049392505050565b60006b033b2e3c9fd0803ce800000082101561070a576106f76b033b2e3c9fd0803ce8000000836108ad565b6b033b2e3c9fd0803ce800000003610682565b506b033b2e3c9fd0803ce7ffffff190190565b60008082600f0b1215610759576107546b033b2e3c9fd0803ce800000083600003600f0b6b033b2e3c9fd0803ce8000000016108ad565b610682565b50600f0b6b033b2e3c9fd0803ce80000000190565b6000600160a060020a03831630141561078957506001610682565b600154600160a060020a03848116911614156107a757506001610682565b600054600160a060020a031615156107c157506000610682565b60008054604080517fb7009613000000000000000000000000000000000000000000000000000000008152600160a060020a038781166004830152306024830152600160e060020a0319871660448301529151919092169263b700961392606480820193602093909283900390910190829087803b15801561084257600080fd5b505af1158015610856573d6000803e3d6000fd5b505050506040513d602081101561086c57600080fd5b50519050610682565b600081158061089257505080820282828281151561088f57fe5b04145b151561068257600080fd5b8082018281101561068257600080fd5b6000816106ba6108c9856b033b2e3c9fd0803ce8000000610875565b6002856106b45600a165627a7a723058205ab791d8f951d53a8c7b258dca2a337fac865fa2108e6fd6634cb249abe1d5130029a165627a7a723058202cadf561af23685b6f3de8b3f081ea6e9685f7a3a10a35b1225a5a2dfa79c6560029",
  "source": "pragma solidity ^0.4.18;\n\nimport \"./ds-auth/auth.sol\";\nimport './ds-token/token.sol';\nimport './ds-guard/guard.sol';\nimport './ds-roles/roles.sol';\nimport './ds-value/value.sol';\n\nimport './mom.sol';\n\ncontract GemFab {\n    function newTok(bytes32 name) public returns (DSToken token) {\n        token = new DSToken(name);\n        token.setOwner(msg.sender);\n    }\n}\n\ncontract VoxFab {\n    function newVox() public returns (SaiVox vox) {\n        vox = new SaiVox(10 ** 27);\n        vox.setOwner(msg.sender);\n    }\n}\n\ncontract TubFab {\n    function newTub(DSToken sai, DSToken sin, DSToken skr, ERC20 gem, DSToken gov, DSValue pip, DSValue pep, SaiVox vox, address pit) public returns (SaiTub tub) {\n        tub = new SaiTub(sai, sin, skr, gem, gov, pip, pep, vox, pit);\n        tub.setOwner(msg.sender);\n    }\n}\n\ncontract TapFab {\n    function newTap(SaiTub tub) public returns (SaiTap tap) {\n        tap = new SaiTap(tub);\n        tap.setOwner(msg.sender);\n    }\n}\n\ncontract TopFab {\n    function newTop(SaiTub tub, SaiTap tap) public returns (SaiTop top) {\n        top = new SaiTop(tub, tap);\n        top.setOwner(msg.sender);\n    }\n}\n\ncontract MomFab {\n    function newMom(SaiTub tub, SaiTap tap, SaiVox vox) public returns (SaiMom mom) {\n        mom = new SaiMom(tub, tap, vox);\n        mom.setOwner(msg.sender);\n    }\n}\n\ncontract DadFab {\n    function newDad() public returns (DSGuard dad) {\n        dad = new DSGuard();\n        dad.setOwner(msg.sender);\n    }\n}\n\ncontract DaiFab is DSAuth {\n    GemFab public gemFab;\n    VoxFab public voxFab;\n    TapFab public tapFab;\n    TubFab public tubFab;\n    TopFab public topFab;\n    MomFab public momFab;\n    DadFab public dadFab;\n\n    DSToken public sai;\n    DSToken public sin;\n    DSToken public skr;\n\n    SaiVox public vox;\n    SaiTub public tub;\n    SaiTap public tap;\n    SaiTop public top;\n\n    SaiMom public mom;\n    DSGuard public dad;\n\n    uint8 public step = 0;\n\n    function DaiFab(GemFab gemFab_, VoxFab voxFab_, TubFab tubFab_, TapFab tapFab_, TopFab topFab_, MomFab momFab_, DadFab dadFab_) public {\n        gemFab = gemFab_;\n        voxFab = voxFab_;\n        tubFab = tubFab_;\n        tapFab = tapFab_;\n        topFab = topFab_;\n        momFab = momFab_;\n        dadFab = dadFab_;\n    }\n\n    function makeTokens() public auth {\n        require(step == 0);\n        sai = gemFab.newTok('DAI');\n        sin = gemFab.newTok('SIN');\n        skr = gemFab.newTok('PETH');\n        sai.setName('Dai Stablecoin v1.0');\n        sin.setName('SIN');\n        skr.setName('Pooled Ether');\n        step += 1;\n    }\n\n    function makeVoxTub(ERC20 gem, DSToken gov, DSValue pip, DSValue pep, address pit) public auth {\n        require(step == 1);\n        require(address(gem) != 0x0);\n        require(address(gov) != 0x0);\n        require(address(pip) != 0x0);\n        require(address(pep) != 0x0);\n        require(pit != 0x0);\n        vox = voxFab.newVox();\n        tub = tubFab.newTub(sai, sin, skr, gem, gov, pip, pep, vox, pit);\n        step += 1;\n    }\n\n    function makeTapTop() public auth {\n        require(step == 2);\n        tap = tapFab.newTap(tub);\n        tub.turn(tap);\n        top = topFab.newTop(tub, tap);\n        step += 1;\n    }\n\n    function S(string s) internal pure returns (bytes4) {\n        return bytes4(keccak256(s));\n    }\n\n    function ray(uint256 wad) public pure returns (uint256) {\n        return wad * 10 ** 9;\n    }\n\n    // Liquidation Ratio   150%\n    // Liquidation Penalty 13%\n    // Stability Fee       0.05%\n    // PETH Fee            0%\n    // Boom/Bust Spread   -3%\n    // Join/Exit Spread    0%\n    // Debt Ceiling        0\n    function configParams() public auth {\n        require(step == 3);\n\n        tub.mold(\"cap\", 0);\n        tub.mold(\"mat\", ray(1.5  ether));\n        tub.mold(\"axe\", ray(1.13 ether));\n        tub.mold(\"fee\", 1000000000158153903837946257);  // 0.5% / year\n        tub.mold(\"tax\", ray(1 ether));\n        tub.mold(\"gap\", 1 ether);\n\n        tap.mold(\"gap\", 0.97 ether);\n\n        step += 1;\n    }\n\n    function verifyParams() public auth {\n        require(step == 4);\n\n        require(tub.cap() == 0);\n        require(tub.mat() == 1500000000000000000000000000);\n        require(tub.axe() == 1130000000000000000000000000);\n        require(tub.fee() == 1000000000158153903837946257);\n        require(tub.tax() == 1000000000000000000000000000);\n        require(tub.gap() == 1000000000000000000);\n\n        require(tap.gap() == 970000000000000000);\n\n        require(vox.par() == 1000000000000000000000000000);\n        require(vox.how() == 0);\n\n        step += 1;\n    }\n\n    function configAuth(DSAuthority authority) public auth {\n        require(step == 5);\n        require(address(authority) != 0x0);\n\n        mom = momFab.newMom(tub, tap, vox);\n        dad = dadFab.newDad();\n\n        vox.setAuthority(dad);\n        vox.setOwner(0);\n        tub.setAuthority(dad);\n        tub.setOwner(0);\n        tap.setAuthority(dad);\n        tap.setOwner(0);\n        sai.setAuthority(dad);\n        sai.setOwner(0);\n\n//        sai.setOwner(msg.sender); // Enable if we need minting privileges for EOA\n\n        sin.setAuthority(dad);\n        sin.setOwner(0);\n        skr.setAuthority(dad);\n        skr.setOwner(0);\n\n        top.setAuthority(authority);\n        top.setOwner(0);\n        mom.setAuthority(authority);\n        mom.setOwner(0);\n\n        dad.permit(top, tub, S(\"cage(uint256,uint256)\"));\n        dad.permit(top, tub, S(\"flow()\"));\n        dad.permit(top, tap, S(\"cage(uint256)\"));\n\n        dad.permit(tub, skr, S('mint(address,uint256)'));\n        dad.permit(tub, skr, S('burn(address,uint256)'));\n\n        dad.permit(tub, sai, S('mint(address,uint256)'));\n        dad.permit(tub, sai, S('burn(address,uint256)'));\n\n        dad.permit(tub, sin, S('mint(address,uint256)'));\n\n        dad.permit(tap, sai, S('mint(address,uint256)'));\n        dad.permit(tap, sai, S('burn(address,uint256)'));\n        dad.permit(tap, sai, S('burn(uint256)'));\n        dad.permit(tap, sin, S('burn(uint256)'));\n\n        dad.permit(tap, skr, S('mint(uint256)'));\n        dad.permit(tap, skr, S('burn(uint256)'));\n        dad.permit(tap, skr, S('burn(address,uint256)'));\n\n        dad.permit(mom, vox, S(\"mold(bytes32,uint256)\"));\n        dad.permit(mom, vox, S(\"tune(uint256)\"));\n        dad.permit(mom, tub, S(\"mold(bytes32,uint256)\"));\n        dad.permit(mom, tap, S(\"mold(bytes32,uint256)\"));\n        dad.permit(mom, tub, S(\"setPip(address)\"));\n        dad.permit(mom, tub, S(\"setPep(address)\"));\n        dad.permit(mom, tub, S(\"setVox(address)\"));\n\n        dad.setOwner(0);\n        step += 1;\n    }\n}\n",
  "sourcePath": "/Users/samrichards/code/tu/etherswing/contracts/development/makerdao/sai/fab.sol",
  "compiler": {
    "name": "solc",
    "version": "0.4.24+commit.e67f0147.Emscripten.clang"
  },
  "schemaVersion": "3.0.10",
  "updatedAt": "2019-08-22T14:53:55.245Z",
  "devdoc": {
    "methods": {}
  },
  "userdoc": {
    "methods": {}
  }
}