{
  "contractName": "WETH",
  "abi": [
    {
      "constant": true,
      "inputs": [],
      "name": "name",
      "outputs": [
        {
          "name": "",
          "type": "bytes32"
        }
      ],
      "payable": false,
      "stateMutability": "view",
      "type": "function"
    },
    {
      "constant": false,
      "inputs": [],
      "name": "stop",
      "outputs": [],
      "payable": false,
      "stateMutability": "nonpayable",
      "type": "function"
    },
    {
      "constant": false,
      "inputs": [
        {
          "name": "guy",
          "type": "address"
        },
        {
          "name": "wad",
          "type": "uint256"
        }
      ],
      "name": "approve",
      "outputs": [
        {
          "name": "",
          "type": "bool"
        }
      ],
      "payable": false,
      "stateMutability": "nonpayable",
      "type": "function"
    },
    {
      "constant": false,
      "inputs": [
        {
          "name": "owner_",
          "type": "address"
        }
      ],
      "name": "setOwner",
      "outputs": [],
      "payable": false,
      "stateMutability": "nonpayable",
      "type": "function"
    },
    {
      "constant": true,
      "inputs": [],
      "name": "totalSupply",
      "outputs": [
        {
          "name": "",
          "type": "uint256"
        }
      ],
      "payable": false,
      "stateMutability": "view",
      "type": "function"
    },
    {
      "constant": false,
      "inputs": [
        {
          "name": "src",
          "type": "address"
        },
        {
          "name": "dst",
          "type": "address"
        },
        {
          "name": "wad",
          "type": "uint256"
        }
      ],
      "name": "transferFrom",
      "outputs": [
        {
          "name": "",
          "type": "bool"
        }
      ],
      "payable": false,
      "stateMutability": "nonpayable",
      "type": "function"
    },
    {
      "constant": true,
      "inputs": [],
      "name": "decimals",
      "outputs": [
        {
          "name": "",
          "type": "uint256"
        }
      ],
      "payable": false,
      "stateMutability": "view",
      "type": "function"
    },
    {
      "constant": false,
      "inputs": [
        {
          "name": "guy",
          "type": "address"
        },
        {
          "name": "wad",
          "type": "uint256"
        }
      ],
      "name": "mint",
      "outputs": [],
      "payable": false,
      "stateMutability": "nonpayable",
      "type": "function"
    },
    {
      "constant": false,
      "inputs": [
        {
          "name": "wad",
          "type": "uint256"
        }
      ],
      "name": "burn",
      "outputs": [],
      "payable": false,
      "stateMutability": "nonpayable",
      "type": "function"
    },
    {
      "constant": false,
      "inputs": [
        {
          "name": "name_",
          "type": "bytes32"
        }
      ],
      "name": "setName",
      "outputs": [],
      "payable": false,
      "stateMutability": "nonpayable",
      "type": "function"
    },
    {
      "constant": true,
      "inputs": [
        {
          "name": "src",
          "type": "address"
        }
      ],
      "name": "balanceOf",
      "outputs": [
        {
          "name": "",
          "type": "uint256"
        }
      ],
      "payable": false,
      "stateMutability": "view",
      "type": "function"
    },
    {
      "constant": true,
      "inputs": [],
      "name": "stopped",
      "outputs": [
        {
          "name": "",
          "type": "bool"
        }
      ],
      "payable": false,
      "stateMutability": "view",
      "type": "function"
    },
    {
      "constant": false,
      "inputs": [
        {
          "name": "authority_",
          "type": "address"
        }
      ],
      "name": "setAuthority",
      "outputs": [],
      "payable": false,
      "stateMutability": "nonpayable",
      "type": "function"
    },
    {
      "constant": true,
      "inputs": [],
      "name": "owner",
      "outputs": [
        {
          "name": "",
          "type": "address"
        }
      ],
      "payable": false,
      "stateMutability": "view",
      "type": "function"
    },
    {
      "constant": true,
      "inputs": [],
      "name": "symbol",
      "outputs": [
        {
          "name": "",
          "type": "bytes32"
        }
      ],
      "payable": false,
      "stateMutability": "view",
      "type": "function"
    },
    {
      "constant": false,
      "inputs": [
        {
          "name": "guy",
          "type": "address"
        },
        {
          "name": "wad",
          "type": "uint256"
        }
      ],
      "name": "burn",
      "outputs": [],
      "payable": false,
      "stateMutability": "nonpayable",
      "type": "function"
    },
    {
      "constant": false,
      "inputs": [
        {
          "name": "wad",
          "type": "uint256"
        }
      ],
      "name": "mint",
      "outputs": [],
      "payable": false,
      "stateMutability": "nonpayable",
      "type": "function"
    },
    {
      "constant": false,
      "inputs": [
        {
          "name": "dst",
          "type": "address"
        },
        {
          "name": "wad",
          "type": "uint256"
        }
      ],
      "name": "transfer",
      "outputs": [
        {
          "name": "",
          "type": "bool"
        }
      ],
      "payable": false,
      "stateMutability": "nonpayable",
      "type": "function"
    },
    {
      "constant": false,
      "inputs": [
        {
          "name": "dst",
          "type": "address"
        },
        {
          "name": "wad",
          "type": "uint256"
        }
      ],
      "name": "push",
      "outputs": [],
      "payable": false,
      "stateMutability": "nonpayable",
      "type": "function"
    },
    {
      "constant": false,
      "inputs": [
        {
          "name": "src",
          "type": "address"
        },
        {
          "name": "dst",
          "type": "address"
        },
        {
          "name": "wad",
          "type": "uint256"
        }
      ],
      "name": "move",
      "outputs": [],
      "payable": false,
      "stateMutability": "nonpayable",
      "type": "function"
    },
    {
      "constant": false,
      "inputs": [],
      "name": "start",
      "outputs": [],
      "payable": false,
      "stateMutability": "nonpayable",
      "type": "function"
    },
    {
      "constant": true,
      "inputs": [],
      "name": "authority",
      "outputs": [
        {
          "name": "",
          "type": "address"
        }
      ],
      "payable": false,
      "stateMutability": "view",
      "type": "function"
    },
    {
      "constant": false,
      "inputs": [
        {
          "name": "guy",
          "type": "address"
        }
      ],
      "name": "approve",
      "outputs": [
        {
          "name": "",
          "type": "bool"
        }
      ],
      "payable": false,
      "stateMutability": "nonpayable",
      "type": "function"
    },
    {
      "constant": true,
      "inputs": [
        {
          "name": "src",
          "type": "address"
        },
        {
          "name": "guy",
          "type": "address"
        }
      ],
      "name": "allowance",
      "outputs": [
        {
          "name": "",
          "type": "uint256"
        }
      ],
      "payable": false,
      "stateMutability": "view",
      "type": "function"
    },
    {
      "constant": false,
      "inputs": [
        {
          "name": "src",
          "type": "address"
        },
        {
          "name": "wad",
          "type": "uint256"
        }
      ],
      "name": "pull",
      "outputs": [],
      "payable": false,
      "stateMutability": "nonpayable",
      "type": "function"
    },
    {
      "inputs": [],
      "payable": false,
      "stateMutability": "nonpayable",
      "type": "constructor"
    },
    {
      "anonymous": false,
      "inputs": [
        {
          "indexed": true,
          "name": "guy",
          "type": "address"
        },
        {
          "indexed": false,
          "name": "wad",
          "type": "uint256"
        }
      ],
      "name": "Mint",
      "type": "event"
    },
    {
      "anonymous": false,
      "inputs": [
        {
          "indexed": true,
          "name": "guy",
          "type": "address"
        },
        {
          "indexed": false,
          "name": "wad",
          "type": "uint256"
        }
      ],
      "name": "Burn",
      "type": "event"
    },
    {
      "anonymous": false,
      "inputs": [
        {
          "indexed": true,
          "name": "authority",
          "type": "address"
        }
      ],
      "name": "LogSetAuthority",
      "type": "event"
    },
    {
      "anonymous": false,
      "inputs": [
        {
          "indexed": true,
          "name": "owner",
          "type": "address"
        }
      ],
      "name": "LogSetOwner",
      "type": "event"
    },
    {
      "anonymous": true,
      "inputs": [
        {
          "indexed": true,
          "name": "sig",
          "type": "bytes4"
        },
        {
          "indexed": true,
          "name": "guy",
          "type": "address"
        },
        {
          "indexed": true,
          "name": "foo",
          "type": "bytes32"
        },
        {
          "indexed": true,
          "name": "bar",
          "type": "bytes32"
        },
        {
          "indexed": false,
          "name": "wad",
          "type": "uint256"
        },
        {
          "indexed": false,
          "name": "fax",
          "type": "bytes"
        }
      ],
      "name": "LogNote",
      "type": "event"
    },
    {
      "anonymous": false,
      "inputs": [
        {
          "indexed": true,
          "name": "src",
          "type": "address"
        },
        {
          "indexed": true,
          "name": "guy",
          "type": "address"
        },
        {
          "indexed": false,
          "name": "wad",
          "type": "uint256"
        }
      ],
      "name": "Approval",
      "type": "event"
    },
    {
      "anonymous": false,
      "inputs": [
        {
          "indexed": true,
          "name": "src",
          "type": "address"
        },
        {
          "indexed": true,
          "name": "dst",
          "type": "address"
        },
        {
          "indexed": false,
          "name": "wad",
          "type": "uint256"
        }
      ],
      "name": "Transfer",
      "type": "event"
    },
    {
      "constant": false,
      "inputs": [],
      "name": "deposit",
      "outputs": [],
      "payable": true,
      "stateMutability": "payable",
      "type": "function"
    },
    {
      "constant": false,
      "inputs": [
        {
          "name": "amount",
          "type": "uint256"
        }
      ],
      "name": "withdraw",
      "outputs": [],
      "payable": false,
      "stateMutability": "nonpayable",
      "type": "function"
    }
  ],
  "bytecode": "0x60806040526012600655600060075534801561001a57600080fd5b503360008181526001602052604080822082905581805560048054600160a060020a03191684179055517f574554480000000000000000000000000000000000000000000000000000000092917fce241d7ca1f669fee44b6fc00b8eba2df3bb514eed0f6f668f8f89096e81ed9491a2600555610df98061009c6000396000f30060806040526004361061015e5763ffffffff7c010000000000000000000000000000000000000000000000000000000060003504166306fdde03811461016357806307da68f51461018a578063095ea7b3146101a157806313af4035146101d957806318160ddd146101fa57806323b872dd1461020f5780632e1a7d4d14610239578063313ce5671461025157806340c10f191461026657806342966c681461028a5780635ac801fe146102a257806370a08231146102ba57806375f12b21146102db5780637a9e5e4b146102f05780638da5cb5b1461031157806395d89b41146103425780639dc29fac14610357578063a0712d681461037b578063a9059cbb14610393578063b753a98c146103b7578063bb35783b146103db578063be9a655514610405578063bf7e214f1461041a578063d0e30db01461042f578063daea85c514610437578063dd62ed3e14610458578063f2d5d56b1461047f575b600080fd5b34801561016f57600080fd5b506101786104a3565b60408051918252519081900360200190f35b34801561019657600080fd5b5061019f6104a9565b005b3480156101ad57600080fd5b506101c5600160a060020a0360043516602435610543565b604080519115158252519081900360200190f35b3480156101e557600080fd5b5061019f600160a060020a0360043516610570565b34801561020657600080fd5b506101786105ee565b34801561021b57600080fd5b506101c5600160a060020a03600435811690602435166044356105f4565b34801561024557600080fd5b5061019f600435610757565b34801561025d57600080fd5b506101786107b5565b34801561027257600080fd5b5061019f600160a060020a03600435166024356107bb565b34801561029657600080fd5b5061019f600435610883565b3480156102ae57600080fd5b5061019f60043561088d565b3480156102c657600080fd5b50610178600160a060020a03600435166108b3565b3480156102e757600080fd5b506101c56108ce565b3480156102fc57600080fd5b5061019f600160a060020a03600435166108de565b34801561031d57600080fd5b5061032661095c565b60408051600160a060020a039092168252519081900360200190f35b34801561034e57600080fd5b5061017861096b565b34801561036357600080fd5b5061019f600160a060020a0360043516602435610971565b34801561038757600080fd5b5061019f600435610acf565b34801561039f57600080fd5b506101c5600160a060020a0360043516602435610ad9565b3480156103c357600080fd5b5061019f600160a060020a0360043516602435610ae6565b3480156103e757600080fd5b5061019f600160a060020a0360043581169060243516604435610af6565b34801561041157600080fd5b5061019f610b07565b34801561042657600080fd5b50610326610b9b565b61019f610baa565b34801561044357600080fd5b506101c5600160a060020a0360043516610be7565b34801561046457600080fd5b50610178600160a060020a0360043581169060243516610c0d565b34801561048b57600080fd5b5061019f600160a060020a0360043516602435610c38565b60075481565b6104bf33600035600160e060020a031916610c43565b15156104ca57600080fd5b60408051348082526020820183815236938301849052600435936024359384938693339360008035600160e060020a031916949092606082018484808284376040519201829003965090945050505050a450506004805474ff0000000000000000000000000000000000000000191660a060020a179055565b60045460009060a060020a900460ff161561055d57600080fd5b6105678383610d47565b90505b92915050565b61058633600035600160e060020a031916610c43565b151561059157600080fd5b6004805473ffffffffffffffffffffffffffffffffffffffff1916600160a060020a0383811691909117918290556040519116907fce241d7ca1f669fee44b6fc00b8eba2df3bb514eed0f6f668f8f89096e81ed9490600090a250565b60005490565b60045460009060a060020a900460ff161561060e57600080fd5b600160a060020a038416331480159061064c5750600160a060020a038416600090815260026020908152604080832033845290915290205460001914155b156106a457600160a060020a038416600090815260026020908152604080832033845290915290205461067f9083610dad565b600160a060020a03851660009081526002602090815260408083203384529091529020555b600160a060020a0384166000908152600160205260409020546106c79083610dad565b600160a060020a0380861660009081526001602052604080822093909355908516815220546106f69083610dbd565b600160a060020a0380851660008181526001602090815260409182902094909455805186815290519193928816927fddf252ad1be2c89b69c2b068fc378daa952ba7f163c4a11628f55a4df523b3ef92918290030190a35060019392505050565b336000908152600160205260409020546107719082610dad565b336000908152600160205260408120919091555461078f9082610dad565b6000908155604051339183919081818185875af19250505015156107b257600080fd5b50565b60065481565b6107d133600035600160e060020a031916610c43565b15156107dc57600080fd5b60045460a060020a900460ff16156107f357600080fd5b600160a060020a0382166000908152600160205260409020546108169082610dbd565b600160a060020a0383166000908152600160205260408120919091555461083d9082610dbd565b600055604080518281529051600160a060020a038416917f0f6798a560793a54c3bcfe86a93cde1e73087d944c0ea20544137d4121396885919081900360200190a25050565b6107b23382610971565b6108a333600035600160e060020a031916610c43565b15156108ae57600080fd5b600755565b600160a060020a031660009081526001602052604090205490565b60045460a060020a900460ff1681565b6108f433600035600160e060020a031916610c43565b15156108ff57600080fd5b6003805473ffffffffffffffffffffffffffffffffffffffff1916600160a060020a0383811691909117918290556040519116907f1abebea81bfa2637f28358c371278fb15ede7ea8dd28d2e03b112ff6d936ada490600090a250565b600454600160a060020a031681565b60055481565b61098733600035600160e060020a031916610c43565b151561099257600080fd5b60045460a060020a900460ff16156109a957600080fd5b600160a060020a03821633148015906109e75750600160a060020a038216600090815260026020908152604080832033845290915290205460001914155b15610a3f57600160a060020a0382166000908152600260209081526040808320338452909152902054610a1a9082610dad565b600160a060020a03831660009081526002602090815260408083203384529091529020555b600160a060020a038216600090815260016020526040902054610a629082610dad565b600160a060020a03831660009081526001602052604081209190915554610a899082610dad565b600055604080518281529051600160a060020a038416917fcc16f5dbb4873280815c1ee09dbd06736cffcc184412cf7a71a0fdb75d397ca5919081900360200190a25050565b6107b233826107bb565b60006105673384846105f4565b610af13383836105f4565b505050565b610b018383836105f4565b50505050565b610b1d33600035600160e060020a031916610c43565b1515610b2857600080fd5b60408051348082526020820183815236938301849052600435936024359384938693339360008035600160e060020a031916949092606082018484808284376040519201829003965090945050505050a450506004805474ff000000000000000000000000000000000000000019169055565b600354600160a060020a031681565b33600090815260016020526040902054610bc49034610dbd565b3360009081526001602052604081209190915554610be29034610dbd565b600055565b60045460009060a060020a900460ff1615610c0157600080fd5b61056a82600019610d47565b600160a060020a03918216600090815260026020908152604080832093909416825291909152205490565b610af18233836105f4565b6000600160a060020a038316301415610c5e5750600161056a565b600454600160a060020a0384811691161415610c7c5750600161056a565b600354600160a060020a03161515610c965750600061056a565b600354604080517fb7009613000000000000000000000000000000000000000000000000000000008152600160a060020a038681166004830152306024830152600160e060020a0319861660448301529151919092169163b70096139160648083019260209291908290030181600087803b158015610d1457600080fd5b505af1158015610d28573d6000803e3d6000fd5b505050506040513d6020811015610d3e57600080fd5b5051905061056a565b336000818152600260209081526040808320600160a060020a038716808552908352818420869055815186815291519394909390927f8c5be1e5ebec7d5bd14f71427d1e84f3dd0314c0f7b2291e5b200ac8c7c3b925928290030190a350600192915050565b8082038281111561056a57600080fd5b8082018281101561056a57600080fd00a165627a7a7230582032b9b6e2b18ae1e38f8a95a3b28cfe33f0db0c0a7d964d8cdd547063a887ad3d0029",
  "source": "pragma solidity ^0.4.23;\n\nimport \"./ds-token/token.sol\";\n\ncontract WETH is DSToken {\n    function WETH() DSToken(\"WETH\") public {}\n\n    function deposit() public payable {\n        _balances[msg.sender] = add(_balances[msg.sender], msg.value);\n        _supply = add(_supply, msg.value);\n    }\n\n    function withdraw(uint amount) public {\n        _balances[msg.sender] = sub(_balances[msg.sender], amount);\n        _supply = sub(_supply, amount);\n        require(msg.sender.call.value(amount)());\n    }\n}\n",
  "sourcePath": "/Users/samrichards/code/tu/etherswing/contracts/development/makerdao/sai/WETH.sol",
  "compiler": {
    "name": "solc",
    "version": "0.4.24+commit.e67f0147.Emscripten.clang"
  },
  "schemaVersion": "3.0.10",
  "updatedAt": "2019-08-22T14:53:55.330Z",
  "devdoc": {
    "methods": {}
  },
  "userdoc": {
    "methods": {}
  }
}